{
  "contractName": "AccidentFormFiller",
  "abi": [
    {
      "anonymous": false,
      "inputs": [
        {
          "indexed": true,
          "internalType": "address",
          "name": "previousOwner",
          "type": "address"
        },
        {
          "indexed": true,
          "internalType": "address",
          "name": "newOwner",
          "type": "address"
        }
      ],
      "name": "OwnershipTransferred",
      "type": "event"
    },
    {
      "inputs": [],
      "name": "comments",
      "outputs": [
        {
          "internalType": "string",
          "name": "",
          "type": "string"
        }
      ],
      "stateMutability": "view",
      "type": "function"
    },
    {
      "inputs": [],
      "name": "driver1",
      "outputs": [
        {
          "internalType": "address",
          "name": "",
          "type": "address"
        }
      ],
      "stateMutability": "view",
      "type": "function"
    },
    {
      "inputs": [],
      "name": "driver2",
      "outputs": [
        {
          "internalType": "address",
          "name": "",
          "type": "address"
        }
      ],
      "stateMutability": "view",
      "type": "function"
    },
    {
      "inputs": [],
      "name": "owner",
      "outputs": [
        {
          "internalType": "address",
          "name": "",
          "type": "address"
        }
      ],
      "stateMutability": "view",
      "type": "function"
    },
    {
      "inputs": [],
      "name": "renounceOwnership",
      "outputs": [],
      "stateMutability": "nonpayable",
      "type": "function"
    },
    {
      "inputs": [],
      "name": "report",
      "outputs": [
        {
          "internalType": "address",
          "name": "driver1",
          "type": "address"
        },
        {
          "internalType": "address",
          "name": "driver2",
          "type": "address"
        },
        {
          "internalType": "bytes32",
          "name": "value",
          "type": "bytes32"
        },
        {
          "internalType": "bytes32",
          "name": "answer",
          "type": "bytes32"
        },
        {
          "internalType": "address",
          "name": "winner",
          "type": "address"
        },
        {
          "internalType": "bool",
          "name": "caseClosed",
          "type": "bool"
        },
        {
          "internalType": "string",
          "name": "comments",
          "type": "string"
        }
      ],
      "stateMutability": "view",
      "type": "function"
    },
    {
      "inputs": [
        {
          "internalType": "address",
          "name": "newOwner",
          "type": "address"
        }
      ],
      "name": "transferOwnership",
      "outputs": [],
      "stateMutability": "nonpayable",
      "type": "function"
    },
    {
      "inputs": [],
      "name": "value",
      "outputs": [
        {
          "internalType": "bytes32",
          "name": "",
          "type": "bytes32"
        }
      ],
      "stateMutability": "view",
      "type": "function"
    },
    {
      "inputs": [],
      "name": "writeReport",
      "outputs": [],
      "stateMutability": "nonpayable",
      "type": "function"
    },
    {
      "inputs": [
        {
          "internalType": "bytes32",
          "name": "_answer",
          "type": "bytes32"
        },
        {
          "internalType": "address",
          "name": "_winner",
          "type": "address"
        }
      ],
      "name": "closeReport",
      "outputs": [],
      "stateMutability": "nonpayable",
      "type": "function"
    }
  ],
  "bytecode": "0x608060405234801561001057600080fd5b5061002d61002261003260201b60201c565b61003a60201b60201c565b6100fe565b600033905090565b60008060009054906101000a900473ffffffffffffffffffffffffffffffffffffffff169050816000806101000a81548173ffffffffffffffffffffffffffffffffffffffff021916908373ffffffffffffffffffffffffffffffffffffffff1602179055508173ffffffffffffffffffffffffffffffffffffffff168173ffffffffffffffffffffffffffffffffffffffff167f8be0079c531659141344cd1fd0a4f28419497f9722a3daafe3b4186f6b6457e060405160405180910390a35050565b610ecb8061010d6000396000f3fe608060405234801561001057600080fd5b506004361061009e5760003560e01c8063715018a611610066578063715018a61461013f5780638da5cb5b14610149578063d9020bbe14610167578063f2fde38b14610171578063f87150bb1461018d5761009e565b806325c843b9146100a35780632606a10b146100c157806329fb7a85146100e55780633fa4f2451461010357806354ca8fc614610121575b600080fd5b6100ab6101a9565b6040516100b89190610cdc565b60405180910390f35b6100c9610237565b6040516100dc9796959493929190610c4b565b60405180910390f35b6100ed61035c565b6040516100fa9190610c30565b60405180910390f35b61010b610382565b6040516101189190610cc1565b60405180910390f35b610129610388565b6040516101369190610c30565b60405180910390f35b6101476103ae565b005b610151610436565b60405161015e9190610c30565b60405180910390f35b61016f61045f565b005b61018b60048036038101906101869190610a7f565b61072b565b005b6101a760048036038101906101a29190610aa8565b610823565b005b600480546101b690610df5565b80601f01602080910402602001604051908101604052809291908181526020018280546101e290610df5565b801561022f5780601f106102045761010080835404028352916020019161022f565b820191906000526020600020905b81548152906001019060200180831161021257829003601f168201915b505050505081565b60058060000160009054906101000a900473ffffffffffffffffffffffffffffffffffffffff16908060010160009054906101000a900473ffffffffffffffffffffffffffffffffffffffff16908060020154908060030154908060040160009054906101000a900473ffffffffffffffffffffffffffffffffffffffff16908060040160149054906101000a900460ff16908060050180546102d990610df5565b80601f016020809104026020016040519081016040528092919081815260200182805461030590610df5565b80156103525780601f1061032757610100808354040283529160200191610352565b820191906000526020600020905b81548152906001019060200180831161033557829003601f168201915b5050505050905087565b600260009054906101000a900473ffffffffffffffffffffffffffffffffffffffff1681565b60015481565b600360009054906101000a900473ffffffffffffffffffffffffffffffffffffffff1681565b6103b66108e6565b73ffffffffffffffffffffffffffffffffffffffff166103d4610436565b73ffffffffffffffffffffffffffffffffffffffff161461042a576040517f08c379a000000000000000000000000000000000000000000000000000000000815260040161042190610d3e565b60405180910390fd5b61043460006108ee565b565b60008060009054906101000a900473ffffffffffffffffffffffffffffffffffffffff16905090565b600560040160149054906101000a900460ff16156104b2576040517f08c379a00000000000000000000000000000000000000000000000000000000081526004016104a990610d1e565b60405180910390fd5b6040518060e00160405280600260009054906101000a900473ffffffffffffffffffffffffffffffffffffffff1673ffffffffffffffffffffffffffffffffffffffff168152602001600360009054906101000a900473ffffffffffffffffffffffffffffffffffffffff1673ffffffffffffffffffffffffffffffffffffffff16815260200160015481526020016000801b8152602001600073ffffffffffffffffffffffffffffffffffffffff1681526020016000151581526020016004805461057d90610df5565b80601f01602080910402602001604051908101604052809291908181526020018280546105a990610df5565b80156105f65780601f106105cb576101008083540402835291602001916105f6565b820191906000526020600020905b8154815290600101906020018083116105d957829003601f168201915b5050505050815250600560008201518160000160006101000a81548173ffffffffffffffffffffffffffffffffffffffff021916908373ffffffffffffffffffffffffffffffffffffffff16021790555060208201518160010160006101000a81548173ffffffffffffffffffffffffffffffffffffffff021916908373ffffffffffffffffffffffffffffffffffffffff160217905550604082015181600201556060820151816003015560808201518160040160006101000a81548173ffffffffffffffffffffffffffffffffffffffff021916908373ffffffffffffffffffffffffffffffffffffffff16021790555060a08201518160040160146101000a81548160ff02191690831515021790555060c08201518160050190805190602001906107259291906109b2565b50905050565b6107336108e6565b73ffffffffffffffffffffffffffffffffffffffff16610751610436565b73ffffffffffffffffffffffffffffffffffffffff16146107a7576040517f08c379a000000000000000000000000000000000000000000000000000000000815260040161079e90610d3e565b60405180910390fd5b600073ffffffffffffffffffffffffffffffffffffffff168173ffffffffffffffffffffffffffffffffffffffff161415610817576040517f08c379a000000000000000000000000000000000000000000000000000000000815260040161080e90610cfe565b60405180910390fd5b610820816108ee565b50565b600560040160149054906101000a900460ff1615610876576040517f08c379a000000000000000000000000000000000000000000000000000000000815260040161086d90610d1e565b60405180910390fd5b8160056003018190555080600560040160006101000a81548173ffffffffffffffffffffffffffffffffffffffff021916908373ffffffffffffffffffffffffffffffffffffffff1602179055506001600560040160146101000a81548160ff0219169083151502179055505050565b600033905090565b60008060009054906101000a900473ffffffffffffffffffffffffffffffffffffffff169050816000806101000a81548173ffffffffffffffffffffffffffffffffffffffff021916908373ffffffffffffffffffffffffffffffffffffffff1602179055508173ffffffffffffffffffffffffffffffffffffffff168173ffffffffffffffffffffffffffffffffffffffff167f8be0079c531659141344cd1fd0a4f28419497f9722a3daafe3b4186f6b6457e060405160405180910390a35050565b8280546109be90610df5565b90600052602060002090601f0160209004810192826109e05760008555610a27565b82601f106109f957805160ff1916838001178555610a27565b82800160010185558215610a27579182015b82811115610a26578251825591602001919060010190610a0b565b5b509050610a349190610a38565b5090565b5b80821115610a51576000816000905550600101610a39565b5090565b600081359050610a6481610e67565b92915050565b600081359050610a7981610e7e565b92915050565b600060208284031215610a9157600080fd5b6000610a9f84828501610a55565b91505092915050565b60008060408385031215610abb57600080fd5b6000610ac985828601610a6a565b9250506020610ada85828601610a55565b9150509250929050565b610aed81610d7a565b82525050565b610afc81610d8c565b82525050565b610b0b81610d98565b82525050565b6000610b1c82610d5e565b610b268185610d69565b9350610b36818560208601610dc2565b610b3f81610e56565b840191505092915050565b6000610b57602683610d69565b91507f4f776e61626c653a206e6577206f776e657220697320746865207a65726f206160008301527f64647265737300000000000000000000000000000000000000000000000000006020830152604082019050919050565b6000610bbd600e83610d69565b91507f4361736520697320636c6f7365640000000000000000000000000000000000006000830152602082019050919050565b6000610bfd602083610d69565b91507f4f776e61626c653a2063616c6c6572206973206e6f7420746865206f776e65726000830152602082019050919050565b6000602082019050610c456000830184610ae4565b92915050565b600060e082019050610c60600083018a610ae4565b610c6d6020830189610ae4565b610c7a6040830188610b02565b610c876060830187610b02565b610c946080830186610ae4565b610ca160a0830185610af3565b81810360c0830152610cb38184610b11565b905098975050505050505050565b6000602082019050610cd66000830184610b02565b92915050565b60006020820190508181036000830152610cf68184610b11565b905092915050565b60006020820190508181036000830152610d1781610b4a565b9050919050565b60006020820190508181036000830152610d3781610bb0565b9050919050565b60006020820190508181036000830152610d5781610bf0565b9050919050565b600081519050919050565b600082825260208201905092915050565b6000610d8582610da2565b9050919050565b60008115159050919050565b6000819050919050565b600073ffffffffffffffffffffffffffffffffffffffff82169050919050565b60005b83811015610de0578082015181840152602081019050610dc5565b83811115610def576000848401525b50505050565b60006002820490506001821680610e0d57607f821691505b60208210811415610e2157610e20610e27565b5b50919050565b7f4e487b7100000000000000000000000000000000000000000000000000000000600052602260045260246000fd5b6000601f19601f8301169050919050565b610e7081610d7a565b8114610e7b57600080fd5b50565b610e8781610d98565b8114610e9257600080fd5b5056fea26469706673582212204fa6d5723cc87d3ef6aefb909c59d17cc90084aff33ea23a21afa2201d0302e664736f6c63430008000033",
  "immutableReferences": {},
  "source": "// SPDX-License-Identifier: MIT\n\npragma solidity >=0.8.0;\n\nimport \"@openzeppelin/contracts/access/Ownable.sol\";\n\n// A new kind of insurance companies emerges,\n// no more direct responsibility on a car crash !!\n// The one who will get a new car is the most hardworking\n// hash function cracker\nlibrary Hashlib {\n    /// @notice Hash the value _toHash\n    function hash(bytes32 _toHash) public  pure returns (bytes32) {\n        uint128 left = uint128(bytes16(_toHash));\n        uint128 right = uint128(uint256(_toHash));\n        uint128 temp1 = left;\n        left = left ^ right;\n        right = left ^ temp1;\n\n        uint128 mask1 = 0xf0f0f0f0f0f0f0f0f0f0f0f0f0f0f0f0;\n        uint128 mask2 = 0x0f0f0f0f0f0f0f0f0f0f0f0f0f0f0f0f;\n        uint128 temp2 = right;\n        right = left ^ mask1;\n        left = temp2 ^ mask2;\n        \n        return bytes32(uint(left ^ right ^ ~mask2 ^ ~mask1) << 0x80 | uint(left ^ ~mask1));\n    }\n}\n\ncontract AccidentFormFiller is Ownable {\n\n    struct Report {\n        address driver1;\n        address driver2;\n        bytes32 value;\n        bytes32 answer;\n        address winner;\n        bool caseClosed;\n        string comments;\n    }\n\n    bytes32 public value;\n    address public driver1;\n    address public driver2;\n    string public comments;\n    Report public report;\n    \n    modifier caseOpen() {\n        require(!report.caseClosed, \"Case is closed\");\n        _;\n    } \n\n    /// @notice Fill the report with basic information\n    function writeReport() public caseOpen {\n        report = Report(driver1, driver2, value, 0, address(0), false, comments);\n    }\n\n    /// @notice Fill the remaining fields of the report and mark it as case closed\n    function closeReport(bytes32 _answer, address _winner) public caseOpen {\n        report.answer = _answer;\n        report.winner = _winner;\n        report.caseClosed = true;\n    }\n}\n\ncontract CarCrash is Ownable {\n\n    using Hashlib for bytes32;\n\n    struct Report {\n        address driver1;\n        address driver2;\n        bytes32 value;\n        bytes32 answer;\n        address winner;\n        bool caseClosed;\n        string comments;\n    }\n\n    bytes32 public value;\n    address public driver1;\n    address public driver2;\n    string public comments;\n    Report public report;\n    AccidentFormFiller public filler;\n    address public winner;\n\n    event CaseClosed(address winnner);\n\n    constructor(bytes32 _value, address _driver1, address _driver2, string memory _comments, AccidentFormFiller _filler) {\n        value = _value;\n        driver1 = _driver1;\n        driver2 = _driver2;\n        comments = _comments;\n        filler = _filler;\n        \n        // Fill the fields with availabe information\n        (bool res,) = address(_filler).delegatecall(abi.encodeWithSignature(\"writeReport()\"));\n        require(res);\n    }\n\n    modifier onlyDrivers {\n        require(msg.sender == driver1 || msg.sender == driver2, \"Only concerned drivers can attempt\");\n        _;\n    }\n    \n    modifier caseOpen() {\n        require(!report.caseClosed, \"Case is closed\");\n        _;\n    } \n\n    /// @notice Each driver can try to crack the hash, the first one who crack it\n    ///         wins the case and won't have to pay for the damages.\n    function attempt(bytes32 _attempt) external onlyDrivers caseOpen returns (bool) {\n\n        if (_attempt.hash() == value){\n            winner = msg.sender; \n            (bool res,) = address(filler).delegatecall(abi.encodeWithSignature(\"closeReport(bytes32,address)\", _attempt, winner));\n            require(res);\n            emit CaseClosed(winner);\n            return true;\n        }\n\n        return false;\n    }\n}\n\ncontract InsuranceCompany is Ownable {\n\n    CarCrash[] cases;\n    mapping (bytes32 => bool) oldValues;\n    \n    function resolveResponsibility(bytes32 _value, address _driver1, address _driver2, string calldata _comments, AccidentFormFiller _filler) external onlyOwner returns (CarCrash) {\n        require(!oldValues[_value]);\n        oldValues[_value] = true;\n        CarCrash newCase = new CarCrash(_value, _driver1, _driver2, _comments, _filler);\n        cases.push(newCase);\n        return newCase;\n    }\n}\n// Works well with value 0x646f6e277420646f20796f7572206f776e2063727970746f0000000000000000",
  "sourcePath": "/Users/simonperriard/Documents/Personnal/HackTheContract_Solutions/contracts/HackTheContract/03.sol",
  "compiler": {
    "name": "solc",
    "version": "0.8.0+commit.c7dfd78e.Emscripten.clang"
  },
  "schemaVersion": "3.4.2",
  "updatedAt": "2021-08-18T07:32:40.430Z",
  "devdoc": {
    "kind": "dev",
    "methods": {
      "owner()": {
        "details": "Returns the address of the current owner."
      },
      "renounceOwnership()": {
        "details": "Leaves the contract without owner. It will not be possible to call `onlyOwner` functions anymore. Can only be called by the current owner. NOTE: Renouncing ownership will leave the contract without an owner, thereby removing any functionality that is only available to the owner."
      },
      "transferOwnership(address)": {
        "details": "Transfers ownership of the contract to a new account (`newOwner`). Can only be called by the current owner."
      }
    },
    "version": 1
  },
  "userdoc": {
    "kind": "user",
    "methods": {
      "closeReport(bytes32,address)": {
        "notice": "Fill the remaining fields of the report and mark it as case closed"
      },
      "writeReport()": {
        "notice": "Fill the report with basic information"
      }
    },
    "version": 1
  }
}