{
  "contractName": "BookStore",
  "abi": [
    {
      "anonymous": false,
      "inputs": [
        {
          "indexed": true,
          "internalType": "address",
          "name": "previousOwner",
          "type": "address"
        },
        {
          "indexed": true,
          "internalType": "address",
          "name": "newOwner",
          "type": "address"
        }
      ],
      "name": "OwnershipTransferred",
      "type": "event"
    },
    {
      "inputs": [
        {
          "internalType": "address",
          "name": "",
          "type": "address"
        },
        {
          "internalType": "uint256",
          "name": "",
          "type": "uint256"
        }
      ],
      "name": "customersPurchases",
      "outputs": [
        {
          "internalType": "bytes10",
          "name": "",
          "type": "bytes10"
        }
      ],
      "stateMutability": "view",
      "type": "function"
    },
    {
      "inputs": [],
      "name": "owner",
      "outputs": [
        {
          "internalType": "address",
          "name": "",
          "type": "address"
        }
      ],
      "stateMutability": "view",
      "type": "function"
    },
    {
      "inputs": [],
      "name": "renounceOwnership",
      "outputs": [],
      "stateMutability": "nonpayable",
      "type": "function"
    },
    {
      "inputs": [
        {
          "internalType": "bytes10",
          "name": "",
          "type": "bytes10"
        }
      ],
      "name": "store",
      "outputs": [
        {
          "internalType": "bytes10",
          "name": "isbn",
          "type": "bytes10"
        },
        {
          "internalType": "uint16",
          "name": "stock",
          "type": "uint16"
        },
        {
          "internalType": "uint256",
          "name": "price",
          "type": "uint256"
        },
        {
          "internalType": "string",
          "name": "title",
          "type": "string"
        }
      ],
      "stateMutability": "view",
      "type": "function"
    },
    {
      "inputs": [
        {
          "internalType": "string",
          "name": "",
          "type": "string"
        },
        {
          "internalType": "uint256",
          "name": "",
          "type": "uint256"
        }
      ],
      "name": "titleToISBN",
      "outputs": [
        {
          "internalType": "bytes10",
          "name": "",
          "type": "bytes10"
        }
      ],
      "stateMutability": "view",
      "type": "function"
    },
    {
      "inputs": [
        {
          "internalType": "address",
          "name": "newOwner",
          "type": "address"
        }
      ],
      "name": "transferOwnership",
      "outputs": [],
      "stateMutability": "nonpayable",
      "type": "function"
    },
    {
      "inputs": [
        {
          "internalType": "bytes10",
          "name": "_isbn",
          "type": "bytes10"
        },
        {
          "internalType": "string",
          "name": "_title",
          "type": "string"
        },
        {
          "internalType": "uint256",
          "name": "_price",
          "type": "uint256"
        },
        {
          "internalType": "uint16",
          "name": "_qty",
          "type": "uint16"
        }
      ],
      "name": "newBook",
      "outputs": [],
      "stateMutability": "nonpayable",
      "type": "function"
    },
    {
      "inputs": [
        {
          "internalType": "bytes10",
          "name": "_isbn",
          "type": "bytes10"
        },
        {
          "internalType": "uint16",
          "name": "_newQty",
          "type": "uint16"
        }
      ],
      "name": "addBook",
      "outputs": [],
      "stateMutability": "nonpayable",
      "type": "function"
    },
    {
      "inputs": [
        {
          "internalType": "bytes10",
          "name": "_isbn",
          "type": "bytes10"
        },
        {
          "internalType": "address",
          "name": "_recipient",
          "type": "address"
        }
      ],
      "name": "buyBook",
      "outputs": [],
      "stateMutability": "payable",
      "type": "function"
    },
    {
      "inputs": [
        {
          "internalType": "uint256",
          "name": "_amount",
          "type": "uint256"
        }
      ],
      "name": "withdraw",
      "outputs": [],
      "stateMutability": "nonpayable",
      "type": "function"
    },
    {
      "inputs": [
        {
          "internalType": "string",
          "name": "_title",
          "type": "string"
        }
      ],
      "name": "searchByTitle",
      "outputs": [
        {
          "components": [
            {
              "internalType": "bytes10",
              "name": "isbn",
              "type": "bytes10"
            },
            {
              "internalType": "uint16",
              "name": "stock",
              "type": "uint16"
            },
            {
              "internalType": "uint256",
              "name": "price",
              "type": "uint256"
            },
            {
              "internalType": "string",
              "name": "title",
              "type": "string"
            }
          ],
          "internalType": "struct BookStore.Book[]",
          "name": "",
          "type": "tuple[]"
        }
      ],
      "stateMutability": "view",
      "type": "function"
    },
    {
      "inputs": [
        {
          "internalType": "bytes10",
          "name": "_isbn",
          "type": "bytes10"
        }
      ],
      "name": "searchByISBN",
      "outputs": [
        {
          "components": [
            {
              "internalType": "bytes10",
              "name": "isbn",
              "type": "bytes10"
            },
            {
              "internalType": "uint16",
              "name": "stock",
              "type": "uint16"
            },
            {
              "internalType": "uint256",
              "name": "price",
              "type": "uint256"
            },
            {
              "internalType": "string",
              "name": "title",
              "type": "string"
            }
          ],
          "internalType": "struct BookStore.Book",
          "name": "",
          "type": "tuple"
        }
      ],
      "stateMutability": "view",
      "type": "function"
    }
  ],
  "bytecode": "0x60806040523480156200001157600080fd5b5062000032620000266200003860201b60201c565b6200004060201b60201c565b62000104565b600033905090565b60008060009054906101000a900473ffffffffffffffffffffffffffffffffffffffff169050816000806101000a81548173ffffffffffffffffffffffffffffffffffffffff021916908373ffffffffffffffffffffffffffffffffffffffff1602179055508173ffffffffffffffffffffffffffffffffffffffff168173ffffffffffffffffffffffffffffffffffffffff167f8be0079c531659141344cd1fd0a4f28419497f9722a3daafe3b4186f6b6457e060405160405180910390a35050565b61254280620001146000396000f3fe6080604052600436106100a75760003560e01c8063659432d211610064578063659432d2146101f5578063715018a61461021e57806372d5f915146102355780638da5cb5b14610272578063dc4120561461029d578063f2fde38b146102b9576100a7565b806317105f62146100ac5780632e1a7d4d146100ec5780633c094b261461011557806356da23f3146101525780635b5775521461018f5780635bab3ba1146101b8575b600080fd5b3480156100b857600080fd5b506100d360048036038101906100ce919061175f565b6102e2565b6040516100e39493929190611ee3565b60405180910390f35b3480156100f857600080fd5b50610113600480360381019061010e9190611919565b6103b5565b005b34801561012157600080fd5b5061013c6004803603810190610137919061175f565b61048f565b604051610149919061204f565b60405180910390f35b34801561015e57600080fd5b5061017960048036038101906101749190611723565b61063b565b6040516101869190611ec8565b60405180910390f35b34801561019b57600080fd5b506101b660048036038101906101b19190611844565b610681565b005b3480156101c457600080fd5b506101df60048036038101906101da9190611880565b610892565b6040516101ec9190611ea6565b60405180910390f35b34801561020157600080fd5b5061021c600480360381019061021791906117c4565b610a7f565b005b34801561022a57600080fd5b50610233610e5c565b005b34801561024157600080fd5b5061025c600480360381019061025791906118c5565b610ee4565b6040516102699190611ec8565b60405180910390f35b34801561027e57600080fd5b50610287610f40565b6040516102949190611e8b565b60405180910390f35b6102b760048036038101906102b29190611788565b610f69565b005b3480156102c557600080fd5b506102e060048036038101906102db91906116fa565b6111f2565b005b60026020528060005260406000206000915090508060000160009054906101000a900460b01b9080600001600a9054906101000a900461ffff16908060010154908060020180546103329061230d565b80601f016020809104026020016040519081016040528092919081815260200182805461035e9061230d565b80156103ab5780601f10610380576101008083540402835291602001916103ab565b820191906000526020600020905b81548152906001019060200180831161038e57829003601f168201915b5050505050905084565b6103bd6112ea565b73ffffffffffffffffffffffffffffffffffffffff166103db610f40565b73ffffffffffffffffffffffffffffffffffffffff1614610431576040517f08c379a000000000000000000000000000000000000000000000000000000000815260040161042890611fef565b60405180910390fd5b4781111561043e57600080fd5b610446610f40565b73ffffffffffffffffffffffffffffffffffffffff166108fc829081150290604051600060405180830381858888f1935050505015801561048b573d6000803e3d6000fd5b5050565b61049761150c565b6104a0826112f2565b6104df576040517f08c379a00000000000000000000000000000000000000000000000000000000081526004016104d69061202f565b60405180910390fd5b600260008375ffffffffffffffffffffffffffffffffffffffffffff191675ffffffffffffffffffffffffffffffffffffffffffff191681526020019081526020016000206040518060800160405290816000820160009054906101000a900460b01b75ffffffffffffffffffffffffffffffffffffffffffff191675ffffffffffffffffffffffffffffffffffffffffffff1916815260200160008201600a9054906101000a900461ffff1661ffff1661ffff168152602001600182015481526020016002820180546105b29061230d565b80601f01602080910402602001604051908101604052809291908181526020018280546105de9061230d565b801561062b5780601f106106005761010080835404028352916020019161062b565b820191906000526020600020905b81548152906001019060200180831161060e57829003601f168201915b5050505050815250509050919050565b6003602052816000526040600020818154811061065757600080fd5b9060005260206000209060039182820401919006600a02915091509054906101000a900460b01b81565b6106896112ea565b73ffffffffffffffffffffffffffffffffffffffff166106a7610f40565b73ffffffffffffffffffffffffffffffffffffffff16146106fd576040517f08c379a00000000000000000000000000000000000000000000000000000000081526004016106f490611fef565b60405180910390fd5b816000600260008375ffffffffffffffffffffffffffffffffffffffffffff191675ffffffffffffffffffffffffffffffffffffffffffff1916815260200190815260200160002060010154141561078a576040517f08c379a000000000000000000000000000000000000000000000000000000000815260040161078190611faf565b60405180910390fd5b600260008475ffffffffffffffffffffffffffffffffffffffffffff191675ffffffffffffffffffffffffffffffffffffffffffff19168152602001908152602001600020600001600a9054906101000a900461ffff1661ffff168261ffff161161082a576040517f08c379a00000000000000000000000000000000000000000000000000000000081526004016108219061200f565b60405180910390fd5b81600260008575ffffffffffffffffffffffffffffffffffffffffffff191675ffffffffffffffffffffffffffffffffffffffffffff19168152602001908152602001600020600001600a6101000a81548161ffff021916908361ffff160217905550505050565b60606000600184846040516108a8929190611e5d565b908152602001604051809103902080548060200260200160405190810160405280929190818152602001828054801561093c57602002820191906000526020600020906000905b82829054906101000a900460b01b75ffffffffffffffffffffffffffffffffffffffffffff1916815260200190600a01906020826009010492830192600103820291508084116108ef5790505b5050505050905060008151905060008167ffffffffffffffff81111561098b577f4e487b7100000000000000000000000000000000000000000000000000000000600052604160045260246000fd5b6040519080825280602002602001820160405280156109c457816020015b6109b161150c565b8152602001906001900390816109a95790505b50905060005b82811015610a7257610a1b848281518110610a0e577f4e487b7100000000000000000000000000000000000000000000000000000000600052603260045260246000fd5b602002602001015161048f565b828281518110610a54577f4e487b7100000000000000000000000000000000000000000000000000000000600052603260045260246000fd5b60200260200101819052508080610a6a9061233f565b9150506109ca565b5080935050505092915050565b610a876112ea565b73ffffffffffffffffffffffffffffffffffffffff16610aa5610f40565b73ffffffffffffffffffffffffffffffffffffffff1614610afb576040517f08c379a0000000000000000000000000000000000000000000000000000000008152600401610af290611fef565b60405180910390fd5b84848484610b08846112f2565b610b47576040517f08c379a0000000000000000000000000000000000000000000000000000000008152600401610b3e9061202f565b60405180910390fd5b604051602001610b5690611e76565b604051602081830303815290604052805190602001208383604051602001610b7f929190611e5d565b604051602081830303815290604052805190602001201415610bd6576040517f08c379a0000000000000000000000000000000000000000000000000000000008152600401610bcd90611f8f565b60405180910390fd5b60008111610c19576040517f08c379a0000000000000000000000000000000000000000000000000000000008152600401610c1090611f4f565b60405180910390fd5b6000600260008b75ffffffffffffffffffffffffffffffffffffffffffff191675ffffffffffffffffffffffffffffffffffffffffffff191681526020019081526020016000206001015414610ca4576040517f08c379a0000000000000000000000000000000000000000000000000000000008152600401610c9b90611f2f565b60405180910390fd5b60405180608001604052808a75ffffffffffffffffffffffffffffffffffffffffffff191681526020018661ffff16815260200187815260200189898080601f016020809104026020016040519081016040528093929190818152602001838380828437600081840152601f19601f82011690508083019250505050505050815250600260008b75ffffffffffffffffffffffffffffffffffffffffffff191675ffffffffffffffffffffffffffffffffffffffffffff1916815260200190815260200160002060008201518160000160006101000a81548169ffffffffffffffffffff021916908360b01c0217905550602082015181600001600a6101000a81548161ffff021916908361ffff160217905550604082015181600101556060820151816002019080519060200190610dde929190611551565b5090505060018888604051610df4929190611e5d565b9081526020016040518091039020899080600181540180825580915050600190039060005260206000209060039182820401919006600a029091909190916101000a81548169ffffffffffffffffffff021916908360b01c0217905550505050505050505050565b610e646112ea565b73ffffffffffffffffffffffffffffffffffffffff16610e82610f40565b73ffffffffffffffffffffffffffffffffffffffff1614610ed8576040517f08c379a0000000000000000000000000000000000000000000000000000000008152600401610ecf90611fef565b60405180910390fd5b610ee26000611448565b565b6001828051602081018201805184825260208301602085012081835280955050505050508181548110610f1657600080fd5b9060005260206000209060039182820401919006600a02915091509054906101000a900460b01b81565b60008060009054906101000a900473ffffffffffffffffffffffffffffffffffffffff16905090565b816000600260008375ffffffffffffffffffffffffffffffffffffffffffff191675ffffffffffffffffffffffffffffffffffffffffffff19168152602001908152602001600020600101541415610ff6576040517f08c379a0000000000000000000000000000000000000000000000000000000008152600401610fed90611faf565b60405180910390fd5b82600260008275ffffffffffffffffffffffffffffffffffffffffffff191675ffffffffffffffffffffffffffffffffffffffffffff19168152602001908152602001600020600001600a9054906101000a900461ffff1661ffff16600260008375ffffffffffffffffffffffffffffffffffffffffffff191675ffffffffffffffffffffffffffffffffffffffffffff19168152602001908152602001600020600101541734146110dd576040517f08c379a00000000000000000000000000000000000000000000000000000000081526004016110d490611fcf565b60405180910390fd5b600360008473ffffffffffffffffffffffffffffffffffffffff1673ffffffffffffffffffffffffffffffffffffffff168152602001908152602001600020849080600181540180825580915050600190039060005260206000209060039182820401919006600a029091909190916101000a81548169ffffffffffffffffffff021916908360b01c0217905550600260008575ffffffffffffffffffffffffffffffffffffffffffff191675ffffffffffffffffffffffffffffffffffffffffffff19168152602001908152602001600020600001600a81819054906101000a900461ffff16809291906111d1906122e3565b91906101000a81548161ffff021916908361ffff1602179055505050505050565b6111fa6112ea565b73ffffffffffffffffffffffffffffffffffffffff16611218610f40565b73ffffffffffffffffffffffffffffffffffffffff161461126e576040517f08c379a000000000000000000000000000000000000000000000000000000000815260040161126590611fef565b60405180910390fd5b600073ffffffffffffffffffffffffffffffffffffffff168173ffffffffffffffffffffffffffffffffffffffff1614156112de576040517f08c379a00000000000000000000000000000000000000000000000000000000081526004016112d590611f6f565b60405180910390fd5b6112e781611448565b50565b600033905090565b6000806000905060005b60098160ff1610156113d857600a848260ff16600a8110611346577f4e487b7100000000000000000000000000000000000000000000000000000000600052603260045260246000fd5b1a60f81b60f81c60ff16111561135b57600080fd5b80600a61136891906121ea565b848260ff16600a81106113a4577f4e487b7100000000000000000000000000000000000000000000000000000000600052603260045260246000fd5b1a60f81b60f81c6113b5919061217b565b60ff16826113c39190612143565b915080806113d090612388565b9150506112fc565b50600b816113e691906123b2565b905080600b6113f591906121b6565b90508060ff16836009600a8110611435577f4e487b7100000000000000000000000000000000000000000000000000000000600052603260045260246000fd5b1a60f81b60f81c60ff1614915050919050565b60008060009054906101000a900473ffffffffffffffffffffffffffffffffffffffff169050816000806101000a81548173ffffffffffffffffffffffffffffffffffffffff021916908373ffffffffffffffffffffffffffffffffffffffff1602179055508173ffffffffffffffffffffffffffffffffffffffff168173ffffffffffffffffffffffffffffffffffffffff167f8be0079c531659141344cd1fd0a4f28419497f9722a3daafe3b4186f6b6457e060405160405180910390a35050565b6040518060800160405280600075ffffffffffffffffffffffffffffffffffffffffffff19168152602001600061ffff16815260200160008152602001606081525090565b82805461155d9061230d565b90600052602060002090601f01602090048101928261157f57600085556115c6565b82601f1061159857805160ff19168380011785556115c6565b828001600101855582156115c6579182015b828111156115c55782518255916020019190600101906115aa565b5b5090506115d391906115d7565b5090565b5b808211156115f05760008160009055506001016115d8565b5090565b6000611607611602846120a2565b612071565b90508281526020810184848401111561161f57600080fd5b61162a8482856122a1565b509392505050565b600081359050611641816124b0565b92915050565b600081359050611656816124c7565b92915050565b60008083601f84011261166e57600080fd5b8235905067ffffffffffffffff81111561168757600080fd5b60208301915083600182028301111561169f57600080fd5b9250929050565b600082601f8301126116b757600080fd5b81356116c78482602086016115f4565b91505092915050565b6000813590506116df816124de565b92915050565b6000813590506116f4816124f5565b92915050565b60006020828403121561170c57600080fd5b600061171a84828501611632565b91505092915050565b6000806040838503121561173657600080fd5b600061174485828601611632565b9250506020611755858286016116e5565b9150509250929050565b60006020828403121561177157600080fd5b600061177f84828501611647565b91505092915050565b6000806040838503121561179b57600080fd5b60006117a985828601611647565b92505060206117ba85828601611632565b9150509250929050565b6000806000806000608086880312156117dc57600080fd5b60006117ea88828901611647565b955050602086013567ffffffffffffffff81111561180757600080fd5b6118138882890161165c565b94509450506040611826888289016116e5565b9250506060611837888289016116d0565b9150509295509295909350565b6000806040838503121561185757600080fd5b600061186585828601611647565b9250506020611876858286016116d0565b9150509250929050565b6000806020838503121561189357600080fd5b600083013567ffffffffffffffff8111156118ad57600080fd5b6118b98582860161165c565b92509250509250929050565b600080604083850312156118d857600080fd5b600083013567ffffffffffffffff8111156118f257600080fd5b6118fe858286016116a6565b925050602061190f858286016116e5565b9150509250929050565b60006020828403121561192b57600080fd5b6000611939848285016116e5565b91505092915050565b600061194e8383611d5b565b905092915050565b61195f8161221e565b82525050565b6000611970826120e2565b61197a8185612105565b93508360208202850161198c856120d2565b8060005b858110156119c857848403895281516119a98582611942565b94506119b4836120f8565b925060208a01995050600181019050611990565b50829750879550505050505092915050565b6119e381612230565b82525050565b6119f281612230565b82525050565b6000611a048385612138565b9350611a118385846122a1565b82840190509392505050565b6000611a28826120ed565b611a328185612116565b9350611a428185602086016122b0565b611a4b8161249f565b840191505092915050565b6000611a61826120ed565b611a6b8185612127565b9350611a7b8185602086016122b0565b611a848161249f565b840191505092915050565b6000611a9c601483612127565b91507f426f6f6b20616c7265616479206578697374732e0000000000000000000000006000830152602082019050919050565b6000611adc601183612127565b91507f50726963652063616e6e6f7420626520300000000000000000000000000000006000830152602082019050919050565b6000611b1c602683612127565b91507f4f776e61626c653a206e6577206f776e657220697320746865207a65726f206160008301527f64647265737300000000000000000000000000000000000000000000000000006020830152604082019050919050565b6000611b82600d83612127565b91507f456e7465722061207469746c65000000000000000000000000000000000000006000830152602082019050919050565b6000611bc2601d83612127565b91507f576520646f6e27742073656c6c207468697320626f6f6b2028796574290000006000830152602082019050919050565b6000611c02603483612127565b91507f596f752070616964207468652077726f6e67207072696365206f72207468652060008301527f626f6f6b206973206e6f742069732073746f636b0000000000000000000000006020830152604082019050919050565b6000611c68602083612127565b91507f4f776e61626c653a2063616c6c6572206973206e6f7420746865206f776e65726000830152602082019050919050565b6000611ca8600083612138565b9150600082019050919050565b6000611cc2602e83612127565b91507f4e6577207175616e746974792063616e6e6f74206265206c6f7765722074686160008301527f6e2061637475616c2073746f636b0000000000000000000000000000000000006020830152604082019050919050565b6000611d28600f83612127565b91507f496e76616c6964204953424e2d313000000000000000000000000000000000006000830152602082019050919050565b6000608083016000830151611d7360008601826119da565b506020830151611d866020860182611e21565b506040830151611d996040860182611e3f565b5060608301518482036060860152611db18282611a1d565b9150508091505092915050565b6000608083016000830151611dd660008601826119da565b506020830151611de96020860182611e21565b506040830151611dfc6040860182611e3f565b5060608301518482036060860152611e148282611a1d565b9150508091505092915050565b611e2a8161225c565b82525050565b611e398161225c565b82525050565b611e488161228a565b82525050565b611e578161228a565b82525050565b6000611e6a8284866119f8565b91508190509392505050565b6000611e8182611c9b565b9150819050919050565b6000602082019050611ea06000830184611956565b92915050565b60006020820190508181036000830152611ec08184611965565b905092915050565b6000602082019050611edd60008301846119e9565b92915050565b6000608082019050611ef860008301876119e9565b611f056020830186611e30565b611f126040830185611e4e565b8181036060830152611f248184611a56565b905095945050505050565b60006020820190508181036000830152611f4881611a8f565b9050919050565b60006020820190508181036000830152611f6881611acf565b9050919050565b60006020820190508181036000830152611f8881611b0f565b9050919050565b60006020820190508181036000830152611fa881611b75565b9050919050565b60006020820190508181036000830152611fc881611bb5565b9050919050565b60006020820190508181036000830152611fe881611bf5565b9050919050565b6000602082019050818103600083015261200881611c5b565b9050919050565b6000602082019050818103600083015261202881611cb5565b9050919050565b6000602082019050818103600083015261204881611d1b565b9050919050565b600060208201905081810360008301526120698184611dbe565b905092915050565b6000604051905081810181811067ffffffffffffffff8211171561209857612097612470565b5b8060405250919050565b600067ffffffffffffffff8211156120bd576120bc612470565b5b601f19601f8301169050602081019050919050565b6000819050602082019050919050565b600081519050919050565b600081519050919050565b6000602082019050919050565b600082825260208201905092915050565b600082825260208201905092915050565b600082825260208201905092915050565b600081905092915050565b600061214e8261225c565b91506121598361225c565b92508261ffff038211156121705761216f6123e3565b5b828201905092915050565b600061218682612294565b915061219183612294565b92508160ff04831182151516156121ab576121aa6123e3565b5b828202905092915050565b60006121c18261225c565b91506121cc8361225c565b9250828210156121df576121de6123e3565b5b828203905092915050565b60006121f582612294565b915061220083612294565b925082821015612213576122126123e3565b5b828203905092915050565b60006122298261226a565b9050919050565b60007fffffffffffffffffffff0000000000000000000000000000000000000000000082169050919050565b600061ffff82169050919050565b600073ffffffffffffffffffffffffffffffffffffffff82169050919050565b6000819050919050565b600060ff82169050919050565b82818337600083830152505050565b60005b838110156122ce5780820151818401526020810190506122b3565b838111156122dd576000848401525b50505050565b60006122ee8261225c565b91506000821415612302576123016123e3565b5b600182039050919050565b6000600282049050600182168061232557607f821691505b6020821081141561233957612338612441565b5b50919050565b600061234a8261228a565b91507fffffffffffffffffffffffffffffffffffffffffffffffffffffffffffffffff82141561237d5761237c6123e3565b5b600182019050919050565b600061239382612294565b915060ff8214156123a7576123a66123e3565b5b600182019050919050565b60006123bd8261225c565b91506123c88361225c565b9250826123d8576123d7612412565b5b828206905092915050565b7f4e487b7100000000000000000000000000000000000000000000000000000000600052601160045260246000fd5b7f4e487b7100000000000000000000000000000000000000000000000000000000600052601260045260246000fd5b7f4e487b7100000000000000000000000000000000000000000000000000000000600052602260045260246000fd5b7f4e487b7100000000000000000000000000000000000000000000000000000000600052604160045260246000fd5b6000601f19601f8301169050919050565b6124b98161221e565b81146124c457600080fd5b50565b6124d081612230565b81146124db57600080fd5b50565b6124e78161225c565b81146124f257600080fd5b50565b6124fe8161228a565b811461250957600080fd5b5056fea2646970667358221220148f7bef9b4036eb966ade354e2ec9c74e8589f6e790e1b1d77eb69f59a0c7f164736f6c63430008000033",
  "immutableReferences": {},
  "source": "// SPDX-License-Identifier: MIT\n\npragma solidity >=0.8.0;\n\nimport \"@openzeppelin/contracts/access/Ownable.sol\";\n\n/// Online library where you can buy books\n/// There is only ISBN-10 in the world for simplicity\ncontract BookStore is Ownable {\n    struct Book {\n        bytes10 isbn;\n        uint16 stock;\n        uint256 price;\n        string title;\n    }\n\n    mapping (string => bytes10[]) public titleToISBN;\n    mapping (bytes10 => Book) public store;\n    mapping (address => bytes10[]) public customersPurchases;\n\n    modifier validBook(bytes10 _isbn, string calldata _title, uint256 _price) {\n        require(_isbn10Check(_isbn), \"Invalid ISBN-10\");\n        require(keccak256(abi.encodePacked(_title)) != keccak256(abi.encodePacked(\"\")), \"Enter a title\");\n        require(_price > 0, \"Price cannot be 0\");\n        _;\n    }\n\n    modifier isRegistered(bytes10 _isbn) {\n        // Since price cannot be 0, it will be\n        // the value to be checked for registration\n        require(store[_isbn].price != 0, \"We don't sell this book (yet)\");\n        _;\n    }\n\n    modifier priceStockCheck(bytes10 _isbn) {\n        // Check that value is enough and book is in stock\n        // DeMorgan law for fun\n        require(!(msg.value != store[_isbn].price |\n                store[_isbn].stock ),\n                \"You paid the wrong price or the book is not is stock\");\n        _;\n    }\n\n    /// @notice Add a new book to be sold\n    function newBook(bytes10 _isbn, string calldata _title, uint256 _price, uint16 _qty) external onlyOwner validBook(_isbn, _title, _price){\n        require(store[_isbn].price == 0, \"Book already exists.\");\n        store[_isbn] = Book(_isbn, _qty, _price, _title);\n        titleToISBN[_title].push(_isbn);\n    }\n\n    /// @notice Refurnish stock of book\n    function addBook(bytes10 _isbn, uint16 _newQty) external onlyOwner isRegistered(_isbn) {\n        require(_newQty > store[_isbn].stock, \"New quantity cannot be lower than actual stock\");\n        store[_isbn].stock = _newQty;\n    }\n\n    /// @notice Allows customers to buy or offer a book\n    function buyBook(bytes10 _isbn, address _recipient) external payable isRegistered(_isbn) priceStockCheck(_isbn) {\n        customersPurchases[_recipient].push(_isbn);\n        store[_isbn].stock--;\n    }\n\n    function withdraw(uint256 _amount) external onlyOwner {\n        require(_amount <= address(this).balance);\n        payable(owner()).transfer(_amount);\n    }\n\n    /// @notice search a book by its title\n    /// @return array of Books with title _title\n    function searchByTitle(string calldata _title) external view returns(Book[] memory) {\n        bytes10[] memory ids = titleToISBN[_title];\n        uint256 resSize = ids.length;\n        Book[] memory res = new Book[](resSize);\n\n        for (uint256 i = 0; i < resSize; i++) {\n            res[i] = searchByISBN(ids[i]);\n        }\n\n        return res;\n    }\n\n    /// @notice search a book by its isbn\n    function searchByISBN(bytes10 _isbn) public view returns(Book memory) {\n        require(_isbn10Check(_isbn), \"Invalid ISBN-10\");\n        return store[_isbn];\n    }\n\n    /// https://en.wikipedia.org/wiki/International_Standard_Book_Number\n    function _isbn10Check(bytes10 _isbn) private pure returns (bool) {\n        uint16 check = 0;\n\n        for(uint8 i = 0; i < 9; i++) {\n            require(uint8(_isbn[i]) <= 10);\n            check += uint8(_isbn[i])*(10-i);\n        }\n        check %= 11;\n        check = 11 - check;\n        return uint8(_isbn[9]) == uint8(check);\n    }\n}",
  "sourcePath": "/Users/simonperriard/Documents/Personnal/HackTheContract_Solutions/contracts/HackTheContract/05.sol",
  "compiler": {
    "name": "solc",
    "version": "0.8.0+commit.c7dfd78e.Emscripten.clang"
  },
  "schemaVersion": "3.4.2",
  "updatedAt": "2021-08-18T07:32:40.473Z",
  "devdoc": {
    "kind": "dev",
    "methods": {
      "owner()": {
        "details": "Returns the address of the current owner."
      },
      "renounceOwnership()": {
        "details": "Leaves the contract without owner. It will not be possible to call `onlyOwner` functions anymore. Can only be called by the current owner. NOTE: Renouncing ownership will leave the contract without an owner, thereby removing any functionality that is only available to the owner."
      },
      "searchByTitle(string)": {
        "returns": {
          "_0": "array of Books with title _title"
        }
      },
      "transferOwnership(address)": {
        "details": "Transfers ownership of the contract to a new account (`newOwner`). Can only be called by the current owner."
      }
    },
    "version": 1
  },
  "userdoc": {
    "kind": "user",
    "methods": {
      "addBook(bytes10,uint16)": {
        "notice": "Refurnish stock of book"
      },
      "buyBook(bytes10,address)": {
        "notice": "Allows customers to buy or offer a book"
      },
      "newBook(bytes10,string,uint256,uint16)": {
        "notice": "Add a new book to be sold"
      },
      "searchByISBN(bytes10)": {
        "notice": "search a book by its isbn"
      },
      "searchByTitle(string)": {
        "notice": "search a book by its title"
      }
    },
    "notice": "Online library where you can buy books There is only ISBN-10 in the world for simplicity",
    "version": 1
  }
}