{
  "contractName": "Court",
  "abi": [
    {
      "inputs": [
        {
          "internalType": "address",
          "name": "_judge",
          "type": "address"
        },
        {
          "internalType": "uint128",
          "name": "_judgePublicKey",
          "type": "uint128"
        },
        {
          "internalType": "address[25]",
          "name": "_jury",
          "type": "address[25]"
        },
        {
          "internalType": "string",
          "name": "_caseDescription",
          "type": "string"
        },
        {
          "internalType": "string",
          "name": "_judgeArguments",
          "type": "string"
        }
      ],
      "stateMutability": "nonpayable",
      "type": "constructor"
    },
    {
      "anonymous": false,
      "inputs": [
        {
          "indexed": true,
          "internalType": "address",
          "name": "previousOwner",
          "type": "address"
        },
        {
          "indexed": true,
          "internalType": "address",
          "name": "newOwner",
          "type": "address"
        }
      ],
      "name": "OwnershipTransferred",
      "type": "event"
    },
    {
      "inputs": [],
      "name": "N",
      "outputs": [
        {
          "internalType": "uint240",
          "name": "",
          "type": "uint240"
        }
      ],
      "stateMutability": "view",
      "type": "function"
    },
    {
      "inputs": [],
      "name": "caseDescription",
      "outputs": [
        {
          "internalType": "string",
          "name": "",
          "type": "string"
        }
      ],
      "stateMutability": "view",
      "type": "function"
    },
    {
      "inputs": [],
      "name": "closed",
      "outputs": [
        {
          "internalType": "bool",
          "name": "",
          "type": "bool"
        }
      ],
      "stateMutability": "view",
      "type": "function"
    },
    {
      "inputs": [],
      "name": "decision",
      "outputs": [
        {
          "internalType": "bool",
          "name": "",
          "type": "bool"
        }
      ],
      "stateMutability": "view",
      "type": "function"
    },
    {
      "inputs": [],
      "name": "judge",
      "outputs": [
        {
          "internalType": "address",
          "name": "",
          "type": "address"
        }
      ],
      "stateMutability": "view",
      "type": "function"
    },
    {
      "inputs": [],
      "name": "judgeArguments",
      "outputs": [
        {
          "internalType": "string",
          "name": "",
          "type": "string"
        }
      ],
      "stateMutability": "view",
      "type": "function"
    },
    {
      "inputs": [],
      "name": "judgePublicKey",
      "outputs": [
        {
          "internalType": "uint128",
          "name": "",
          "type": "uint128"
        }
      ],
      "stateMutability": "view",
      "type": "function"
    },
    {
      "inputs": [
        {
          "internalType": "uint256",
          "name": "",
          "type": "uint256"
        }
      ],
      "name": "jury",
      "outputs": [
        {
          "internalType": "address",
          "name": "",
          "type": "address"
        }
      ],
      "stateMutability": "view",
      "type": "function"
    },
    {
      "inputs": [],
      "name": "jurySize",
      "outputs": [
        {
          "internalType": "uint8",
          "name": "",
          "type": "uint8"
        }
      ],
      "stateMutability": "view",
      "type": "function"
    },
    {
      "inputs": [
        {
          "internalType": "address",
          "name": "",
          "type": "address"
        }
      ],
      "name": "juryVote",
      "outputs": [
        {
          "internalType": "bool",
          "name": "choice",
          "type": "bool"
        },
        {
          "internalType": "bool",
          "name": "voted",
          "type": "bool"
        }
      ],
      "stateMutability": "view",
      "type": "function"
    },
    {
      "inputs": [],
      "name": "numberOfVotes",
      "outputs": [
        {
          "internalType": "uint8",
          "name": "",
          "type": "uint8"
        }
      ],
      "stateMutability": "view",
      "type": "function"
    },
    {
      "inputs": [],
      "name": "owner",
      "outputs": [
        {
          "internalType": "address",
          "name": "",
          "type": "address"
        }
      ],
      "stateMutability": "view",
      "type": "function"
    },
    {
      "inputs": [],
      "name": "renounceOwnership",
      "outputs": [],
      "stateMutability": "nonpayable",
      "type": "function"
    },
    {
      "inputs": [
        {
          "internalType": "address",
          "name": "newOwner",
          "type": "address"
        }
      ],
      "name": "transferOwnership",
      "outputs": [],
      "stateMutability": "nonpayable",
      "type": "function"
    },
    {
      "inputs": [
        {
          "internalType": "bool",
          "name": "_choice",
          "type": "bool"
        }
      ],
      "name": "vote",
      "outputs": [],
      "stateMutability": "nonpayable",
      "type": "function"
    },
    {
      "inputs": [],
      "name": "RSAsign",
      "outputs": [
        {
          "components": [
            {
              "internalType": "uint256",
              "name": "sig",
              "type": "uint256"
            },
            {
              "internalType": "address",
              "name": "judge",
              "type": "address"
            },
            {
              "internalType": "bool",
              "name": "decision",
              "type": "bool"
            },
            {
              "internalType": "string",
              "name": "caseDescription",
              "type": "string"
            }
          ],
          "internalType": "struct Court.Signature",
          "name": "",
          "type": "tuple"
        }
      ],
      "stateMutability": "view",
      "type": "function"
    }
  ],
  "bytecode": "0x60c060405260008060146101000a81548160ff02191690831515021790555060008060156101000a81548160ff02191690831515021790555060008060166101000a81548160ff021916908360ff1602179055506019600060176101000a81548160ff021916908360ff1602179055503480156200007c57600080fd5b50604051620020df380380620020df8339818101604052810190620000a29190620004ad565b620000c2620000b66200017960201b60201c565b6200018160201b60201c565b8473ffffffffffffffffffffffffffffffffffffffff1660808173ffffffffffffffffffffffffffffffffffffffff1660601b81525050836fffffffffffffffffffffffffffffffff1660a0816fffffffffffffffffffffffffffffffff1660801b815250508260019060196200013b92919062000245565b5081601a908051906020019062000154929190620002c7565b5080601b90805190602001906200016d929190620002c7565b50505050505062000742565b600033905090565b60008060009054906101000a900473ffffffffffffffffffffffffffffffffffffffff169050816000806101000a81548173ffffffffffffffffffffffffffffffffffffffff021916908373ffffffffffffffffffffffffffffffffffffffff1602179055508173ffffffffffffffffffffffffffffffffffffffff168173ffffffffffffffffffffffffffffffffffffffff167f8be0079c531659141344cd1fd0a4f28419497f9722a3daafe3b4186f6b6457e060405160405180910390a35050565b8260198101928215620002b4579160200282015b82811115620002b35782518260006101000a81548173ffffffffffffffffffffffffffffffffffffffff021916908373ffffffffffffffffffffffffffffffffffffffff1602179055509160200191906001019062000259565b5b509050620002c3919062000358565b5090565b828054620002d5906200067a565b90600052602060002090601f016020900481019282620002f9576000855562000345565b82601f106200031457805160ff191683800117855562000345565b8280016001018555821562000345579182015b828111156200034457825182559160200191906001019062000327565b5b50905062000354919062000358565b5090565b5b808211156200037357600081600090555060010162000359565b5090565b60006200038e620003888462000598565b62000564565b90508082856020860282011115620003a557600080fd5b60005b85811015620003d95781620003be888262000428565b845260208401935060208301925050600181019050620003a8565b5050509392505050565b6000620003fa620003f484620005c1565b62000564565b9050828152602081018484840111156200041357600080fd5b6200042084828562000644565b509392505050565b60008151905062000439816200070e565b92915050565b600082601f8301126200045157600080fd5b60196200046084828562000377565b91505092915050565b600082601f8301126200047b57600080fd5b81516200048d848260208601620003e3565b91505092915050565b600081519050620004a78162000728565b92915050565b60008060008060006103a08688031215620004c757600080fd5b6000620004d78882890162000428565b9550506020620004ea8882890162000496565b9450506040620004fd888289016200043f565b93505061036086015167ffffffffffffffff8111156200051c57600080fd5b6200052a8882890162000469565b92505061038086015167ffffffffffffffff8111156200054957600080fd5b620005578882890162000469565b9150509295509295909350565b6000604051905081810181811067ffffffffffffffff821117156200058e576200058d620006df565b5b8060405250919050565b600067ffffffffffffffff821115620005b657620005b5620006df565b5b602082029050919050565b600067ffffffffffffffff821115620005df57620005de620006df565b5b601f19601f8301169050602081019050919050565b6000620006018262000624565b9050919050565b60006fffffffffffffffffffffffffffffffff82169050919050565b600073ffffffffffffffffffffffffffffffffffffffff82169050919050565b60005b838110156200066457808201518184015260208101905062000647565b8381111562000674576000848401525b50505050565b600060028204905060018216806200069357607f821691505b60208210811415620006aa57620006a9620006b0565b5b50919050565b7f4e487b7100000000000000000000000000000000000000000000000000000000600052602260045260246000fd5b7f4e487b7100000000000000000000000000000000000000000000000000000000600052604160045260246000fd5b6200071981620005f4565b81146200072557600080fd5b50565b620007338162000608565b81146200073f57600080fd5b50565b60805160601c60a05160801c61195c62000783600039600081816103c60152610c180152600081816103600152818161041e0152610873015261195c6000f3fe608060405234801561001057600080fd5b50600436106101005760003560e01c80638da5cb5b11610097578063e4d7c28c11610066578063e4d7c28c1461027c578063ed74d58b1461029a578063f2fde38b146102b8578063ffb60163146102d457610100565b80638da5cb5b146101f1578063ae1c1ff71461020f578063b112a06414610240578063c9e525df1461025e57610100565b8063573255f4116100d3578063573255f41461017b578063597e1fb514610199578063715018a6146101b7578063729ecb07146101c157610100565b80630e7d490d146101055780631ab744d0146101235780634b9f5c9814610141578063536c8c151461015d575b600080fd5b61010d6102f2565b60405161011a9190611538565b60405180910390f35b61012b610305565b60405161013891906114e0565b60405180910390f35b61015b60048036038101906101569190610fd4565b610504565b005b61016561085e565b6040516101729190611538565b60405180910390f35b610183610871565b60405161019091906113bf565b60405180910390f35b6101a1610895565b6040516101ae91906113da565b60405180910390f35b6101bf6108a8565b005b6101db60048036038101906101d69190610ffd565b610930565b6040516101e891906113bf565b60405180910390f35b6101f9610966565b60405161020691906113bf565b60405180910390f35b61022960048036038101906102249190610fab565b61098f565b6040516102379291906113f5565b60405180910390f35b6102486109cd565b604051610255919061141e565b60405180910390f35b610266610a5b565b604051610273919061151d565b60405180910390f35b610284610a7d565b60405161029191906113da565b60405180910390f35b6102a2610a90565b6040516102af919061141e565b60405180910390f35b6102d260048036038101906102cd9190610fab565b610b1e565b005b6102dc610c16565b6040516102e99190611502565b60405180910390f35b600060169054906101000a900460ff1681565b61030d610f2c565b600060149054906101000a900460ff1661035c576040517f08c379a000000000000000000000000000000000000000000000000000000000815260040161035390611480565b60405180910390fd5b60007f0000000000000000000000000000000000000000000000000000000000000000600060159054906101000a900460ff16601a6040516020016103a393929190611386565b60405160208183030381529060405280519060200120905060006104098260601c7f00000000000000000000000000000000000000000000000000000000000000007d019502e64b3deff07b8378ff53d5799d9843c63cb871640c11196b500001610c3a565b905060405180608001604052808281526020017f000000000000000000000000000000000000000000000000000000000000000073ffffffffffffffffffffffffffffffffffffffff168152602001600060159054906101000a900460ff1615158152602001601a805461047c90611723565b80601f01602080910402602001604051908101604052809291908181526020018280546104a890611723565b80156104f55780601f106104ca576101008083540402835291602001916104f5565b820191906000526020600020905b8154815290600101906020018083116104d857829003601f168201915b50505050508152509250505090565b600060149054906101000a900460ff1615610554576040517f08c379a000000000000000000000000000000000000000000000000000000000815260040161054b906114c0565b60405180910390fd5b61055d33610d81565b61056657600080fd5b601c60003373ffffffffffffffffffffffffffffffffffffffff1673ffffffffffffffffffffffffffffffffffffffff16815260200190815260200160002060000160019054906101000a900460ff16156105f6576040517f08c379a00000000000000000000000000000000000000000000000000000000081526004016105ed90611460565b60405180910390fd5b80601c60003373ffffffffffffffffffffffffffffffffffffffff1673ffffffffffffffffffffffffffffffffffffffff16815260200190815260200160002060000160006101000a81548160ff0219169083151502179055506001601c60003373ffffffffffffffffffffffffffffffffffffffff1673ffffffffffffffffffffffffffffffffffffffff16815260200190815260200160002060000160016101000a81548160ff0219169083151502179055506000601681819054906101000a900460ff16809291906106ca90611755565b91906101000a81548160ff021916908360ff16021790555050600060179054906101000a900460ff1660ff16600060169054906101000a900460ff1660ff16141561085b5760008060005b600060179054906101000a900460ff1660ff168160ff16101561081a57601c600060018360ff1660198110610773577f4e487b7100000000000000000000000000000000000000000000000000000000600052603260045260246000fd5b0160009054906101000a900473ffffffffffffffffffffffffffffffffffffffff1673ffffffffffffffffffffffffffffffffffffffff1673ffffffffffffffffffffffffffffffffffffffff16815260200190815260200160002060000160009054906101000a900460ff16156107f85782806107f090611755565b935050610807565b818061080390611755565b9250505b808061081290611755565b915050610715565b508060ff168260ff1611600060156101000a81548160ff0219169083151502179055506001600060146101000a81548160ff02191690831515021790555050505b50565b600060179054906101000a900460ff1681565b7f000000000000000000000000000000000000000000000000000000000000000081565b600060149054906101000a900460ff1681565b6108b0610e60565b73ffffffffffffffffffffffffffffffffffffffff166108ce610966565b73ffffffffffffffffffffffffffffffffffffffff1614610924576040517f08c379a000000000000000000000000000000000000000000000000000000000815260040161091b906114a0565b60405180910390fd5b61092e6000610e68565b565b6001816019811061094057600080fd5b016000915054906101000a900473ffffffffffffffffffffffffffffffffffffffff1681565b60008060009054906101000a900473ffffffffffffffffffffffffffffffffffffffff16905090565b601c6020528060005260406000206000915090508060000160009054906101000a900460ff16908060000160019054906101000a900460ff16905082565b601b80546109da90611723565b80601f0160208091040260200160405190810160405280929190818152602001828054610a0690611723565b8015610a535780601f10610a2857610100808354040283529160200191610a53565b820191906000526020600020905b815481529060010190602001808311610a3657829003601f168201915b505050505081565b7d019502e64b3deff07b8378ff53d5799d9843c63cb871640c11196b50000181565b600060159054906101000a900460ff1681565b601a8054610a9d90611723565b80601f0160208091040260200160405190810160405280929190818152602001828054610ac990611723565b8015610b165780601f10610aeb57610100808354040283529160200191610b16565b820191906000526020600020905b815481529060010190602001808311610af957829003601f168201915b505050505081565b610b26610e60565b73ffffffffffffffffffffffffffffffffffffffff16610b44610966565b73ffffffffffffffffffffffffffffffffffffffff1614610b9a576040517f08c379a0000000000000000000000000000000000000000000000000000000008152600401610b91906114a0565b60405180910390fd5b600073ffffffffffffffffffffffffffffffffffffffff168173ffffffffffffffffffffffffffffffffffffffff161415610c0a576040517f08c379a0000000000000000000000000000000000000000000000000000000008152600401610c0190611440565b60405180910390fd5b610c1381610e68565b50565b7f000000000000000000000000000000000000000000000000000000000000000081565b60008083905060008573ffffffffffffffffffffffffffffffffffffffff1690506000856fffffffffffffffffffffffffffffffff161415610c8157600192505050610d7a565b5b6001826fffffffffffffffffffffffffffffffff161115610d74576000600283610cac91906117c7565b6fffffffffffffffffffffffffffffffff161415610d1157837dffffffffffffffffffffffffffffffffffffffffffffffffffffffffffff168182610cf191906115d1565b610cfb91906117f8565b9050600282610d0a91906115a0565b9150610d6f565b837dffffffffffffffffffffffffffffffffffffffffffffffffffffffffffff168673ffffffffffffffffffffffffffffffffffffffff1682610d5491906115d1565b610d5e91906117f8565b90508180610d6b906116f9565b9250505b610c82565b80925050505b9392505050565b600080600090505b600060179054906101000a900460ff1660ff168160ff161015610e55578273ffffffffffffffffffffffffffffffffffffffff1660018260ff1660198110610dfa577f4e487b7100000000000000000000000000000000000000000000000000000000600052603260045260246000fd5b0160009054906101000a900473ffffffffffffffffffffffffffffffffffffffff1673ffffffffffffffffffffffffffffffffffffffff161415610e42576001915050610e5b565b8080610e4d90611755565b915050610d89565b50600090505b919050565b600033905090565b60008060009054906101000a900473ffffffffffffffffffffffffffffffffffffffff169050816000806101000a81548173ffffffffffffffffffffffffffffffffffffffff021916908373ffffffffffffffffffffffffffffffffffffffff1602179055508173ffffffffffffffffffffffffffffffffffffffff168173ffffffffffffffffffffffffffffffffffffffff167f8be0079c531659141344cd1fd0a4f28419497f9722a3daafe3b4186f6b6457e060405160405180910390a35050565b604051806080016040528060008152602001600073ffffffffffffffffffffffffffffffffffffffff168152602001600015158152602001606081525090565b600081359050610f7b816118e1565b92915050565b600081359050610f90816118f8565b92915050565b600081359050610fa58161190f565b92915050565b600060208284031215610fbd57600080fd5b6000610fcb84828501610f6c565b91505092915050565b600060208284031215610fe657600080fd5b6000610ff484828501610f81565b91505092915050565b60006020828403121561100f57600080fd5b600061101d84828501610f96565b91505092915050565b61102f8161162b565b82525050565b61103e8161162b565b82525050565b6110556110508261162b565b61177f565b82525050565b6110648161163d565b82525050565b6110738161163d565b82525050565b61108a6110858261163d565b611791565b82525050565b600061109b82611568565b6110a58185611573565b93506110b58185602086016116c6565b6110be816118b6565b840191505092915050565b60006110d482611568565b6110de8185611584565b93506110ee8185602086016116c6565b6110f7816118b6565b840191505092915050565b6000815461110f81611723565b6111198186611595565b94506001821660008114611134576001811461114557611178565b60ff19831686528186019350611178565b61114e85611553565b60005b8381101561117057815481890152600182019150602081019050611151565b838801955050505b50505092915050565b600061118e602683611584565b91507f4f776e61626c653a206e6577206f776e657220697320746865207a65726f206160008301527f64647265737300000000000000000000000000000000000000000000000000006020830152604082019050919050565b60006111f4601183611584565b91507f596f7520616c726561647920766f7465640000000000000000000000000000006000830152602082019050919050565b6000611234600e83611584565b91507f4361736520697320636c6f7365640000000000000000000000000000000000006000830152602082019050919050565b6000611274602083611584565b91507f4f776e61626c653a2063616c6c6572206973206e6f7420746865206f776e65726000830152602082019050919050565b60006112b4601283611584565b91507f43617365206973207374696c6c206f70656e00000000000000000000000000006000830152602082019050919050565b60006080830160008301516112ff6000860182611368565b5060208301516113126020860182611026565b506040830151611325604086018261105b565b506060830151848203606086015261133d8282611090565b9150508091505092915050565b61135381611649565b82525050565b61136281611685565b82525050565b611371816116af565b82525050565b611380816116b9565b82525050565b60006113928286611044565b6014820191506113a28285611079565b6001820191506113b28284611102565b9150819050949350505050565b60006020820190506113d46000830184611035565b92915050565b60006020820190506113ef600083018461106a565b92915050565b600060408201905061140a600083018561106a565b611417602083018461106a565b9392505050565b6000602082019050818103600083015261143881846110c9565b905092915050565b6000602082019050818103600083015261145981611181565b9050919050565b60006020820190508181036000830152611479816111e7565b9050919050565b6000602082019050818103600083015261149981611227565b9050919050565b600060208201905081810360008301526114b981611267565b9050919050565b600060208201905081810360008301526114d9816112a7565b9050919050565b600060208201905081810360008301526114fa81846112e7565b905092915050565b6000602082019050611517600083018461134a565b92915050565b60006020820190506115326000830184611359565b92915050565b600060208201905061154d6000830184611377565b92915050565b60008190508160005260206000209050919050565b600081519050919050565b600082825260208201905092915050565b600082825260208201905092915050565b600081905092915050565b60006115ab82611649565b91506115b683611649565b9250826115c6576115c5611858565b5b828204905092915050565b60006115dc826116af565b91506115e7836116af565b9250817fffffffffffffffffffffffffffffffffffffffffffffffffffffffffffffffff04831182151516156116205761161f611829565b5b828202905092915050565b600061163682611665565b9050919050565b60008115159050919050565b60006fffffffffffffffffffffffffffffffff82169050919050565b600073ffffffffffffffffffffffffffffffffffffffff82169050919050565b60007dffffffffffffffffffffffffffffffffffffffffffffffffffffffffffff82169050919050565b6000819050919050565b600060ff82169050919050565b60005b838110156116e45780820151818401526020810190506116c9565b838111156116f3576000848401525b50505050565b600061170482611649565b9150600082141561171857611717611829565b5b600182039050919050565b6000600282049050600182168061173b57607f821691505b6020821081141561174f5761174e611887565b5b50919050565b6000611760826116b9565b915060ff82141561177457611773611829565b5b600182019050919050565b600061178a826117a3565b9050919050565b600061179c826117b5565b9050919050565b60006117ae826118d4565b9050919050565b60006117c0826118c7565b9050919050565b60006117d282611649565b91506117dd83611649565b9250826117ed576117ec611858565b5b828206905092915050565b6000611803826116af565b915061180e836116af565b92508261181e5761181d611858565b5b828206905092915050565b7f4e487b7100000000000000000000000000000000000000000000000000000000600052601160045260246000fd5b7f4e487b7100000000000000000000000000000000000000000000000000000000600052601260045260246000fd5b7f4e487b7100000000000000000000000000000000000000000000000000000000600052602260045260246000fd5b6000601f19601f8301169050919050565b60008160f81b9050919050565b60008160601b9050919050565b6118ea8161162b565b81146118f557600080fd5b50565b6119018161163d565b811461190c57600080fd5b50565b611918816116af565b811461192357600080fd5b5056fea264697066735822122028602b97e200dae94c8d9f5a42afde9e5bb15fd254bebfcde14c96080ae38a0d64736f6c63430008000033",
  "immutableReferences": {
    "1703": [
      {
        "length": 32,
        "start": 864
      },
      {
        "length": 32,
        "start": 1054
      },
      {
        "length": 32,
        "start": 2163
      }
    ],
    "1717": [
      {
        "length": 32,
        "start": 966
      },
      {
        "length": 32,
        "start": 3096
      }
    ]
  },
  "source": "// SPDX-License-Identifier: MIT\n\npragma solidity >=0.8.0;\n\nimport \"@openzeppelin/contracts/access/Ownable.sol\";\n\n/// OpenTribunal allows an official party to open a court and register a jury via their\n/// ethereum addresses and rule the case based on the judge's arguments (guilty or not guilty).\n/// Once the case is ruled, the judge signs the decision and the case is closed.\n///\n/// There are 25 jury members, chosen randomly in a pool of registered and verified\n/// persons. The official party has a secured vault containing information to trace back the address\n/// to its owner if needed. All jury members will vote, or the police will come and encourage the vote.\ncontract Court is Ownable {\n\n    address public immutable judge;\n    bool public closed = false;\n    bool public decision = false;\n    uint8 public numberOfVotes = 0;\n    uint8 public jurySize = 25;\n    uint128 public immutable judgePublicKey;\n    // RSA public parameter N\n    uint240 public constant N = 0x19502e64b3deff07b8378ff53d5799d9843c63cb871640c11196b500001;\n    address[25] public jury;\n    string public caseDescription;\n    string public judgeArguments;\n\n    struct Vote {\n        bool choice;\n        bool voted;\n    }\n\n    mapping (address => Vote) public juryVote;\n\n    struct Signature {\n        uint256 sig;\n        address judge;\n        bool decision;\n        string caseDescription;\n    }\n\n    constructor(address _judge, uint128 _judgePublicKey, address[25] memory _jury, string memory _caseDescription, string memory _judgeArguments) {\n        judge = _judge;\n        judgePublicKey = _judgePublicKey;\n        jury = _jury;\n        caseDescription = _caseDescription;\n        judgeArguments = _judgeArguments;\n    }\n\n    modifier caseClosed() {\n        require(closed, \"Case is closed\");\n        _;\n    }\n\n    modifier caseOpen() {\n        require(!closed, \"Case is still open\");\n        _;\n    }\n\n    modifier isJury() {\n        require(_juryCheck(msg.sender));\n        _;\n    }\n\n    modifier hasNotVoted() {\n        require(!juryVote[msg.sender].voted, \"You already voted\");\n        _;\n    }\n\n    /// @notice check that _address is in the jury\n    function _juryCheck(address _address) private view returns (bool) {\n\n        for(uint8 i = 0; i < jurySize; i++) {\n            if(jury[i] == _address) {\n                return true;\n            }\n        }\n\n        return false;\n    }\n\n    /// @notice Each jury member can vot eon the case\n    ///         the decision is guilty (true) or not guilty (false)\n    function vote(bool _choice) external caseOpen isJury hasNotVoted {\n        juryVote[msg.sender].choice = _choice;\n        juryVote[msg.sender].voted = true;\n        numberOfVotes++;\n\n        if (numberOfVotes == jurySize) {\n            //Take decision and close the case\n            uint8 guilty = 0;\n            uint8 notGuilty = 0;\n            for(uint8 i = 0; i < jurySize; i++) {\n                if(juryVote[jury[i]].choice) {\n                    guilty++;\n                } else {\n                    notGuilty++;\n                }\n            }\n\n            decision = guilty > notGuilty;\n            closed = true;\n        }\n    }\n\n    /// @notice fastexp with mod\n    function fastExpMod(uint160 _base, uint128 _exponent, uint240 _mod) private pure returns (uint256) {\n        uint128 currentExp = _exponent;\n        uint256 currentValue = _base;\n\n        if (_exponent == 0) {\n            return 1;\n        }\n\n        while (currentExp > 1) {\n            if (currentExp % 2 == 0) {\n                currentValue = currentValue * currentValue % _mod;\n                currentExp /= 2;\n            } else {\n                currentValue = currentValue * _base % _mod;\n                currentExp--;\n            }\n        }\n        \n        return currentValue;\n    }\n\n\n    /// @notice get a signed version (by the judge) of the resolved case\n    function RSAsign() caseClosed external view returns(Signature memory) {\n        bytes20 h = bytes20(keccak256(abi.encodePacked(judge, decision, caseDescription)));\n        uint256 sig = fastExpMod(uint160(h), judgePublicKey, N);\n        return Signature(sig, judge, decision, caseDescription);\n    }\n}\n\ncontract Chainbunal is Ownable {\n\n    Court[] public courts;\n\n    function openCourt(address _judge, uint128 _judgePublicKey, address[25] memory _jury, string memory _caseDescription, string memory _judgeArguments) external onlyOwner returns (Court){\n        Court newCourt = new Court(_judge, _judgePublicKey, _jury, _caseDescription, _judgeArguments);\n        courts.push(newCourt);\n        return newCourt;\n    }\n}",
  "sourcePath": "/Users/simonperriard/Documents/Personnal/HackTheContract_Solutions/contracts/HackTheContract/04.sol",
  "compiler": {
    "name": "solc",
    "version": "0.8.0+commit.c7dfd78e.Emscripten.clang"
  },
  "schemaVersion": "3.4.2",
  "updatedAt": "2021-08-18T07:32:40.466Z",
  "devdoc": {
    "kind": "dev",
    "methods": {
      "owner()": {
        "details": "Returns the address of the current owner."
      },
      "renounceOwnership()": {
        "details": "Leaves the contract without owner. It will not be possible to call `onlyOwner` functions anymore. Can only be called by the current owner. NOTE: Renouncing ownership will leave the contract without an owner, thereby removing any functionality that is only available to the owner."
      },
      "transferOwnership(address)": {
        "details": "Transfers ownership of the contract to a new account (`newOwner`). Can only be called by the current owner."
      }
    },
    "version": 1
  },
  "userdoc": {
    "kind": "user",
    "methods": {
      "RSAsign()": {
        "notice": "get a signed version (by the judge) of the resolved case"
      },
      "vote(bool)": {
        "notice": "Each jury member can vot eon the case         the decision is guilty (true) or not guilty (false)"
      }
    },
    "notice": "OpenTribunal allows an official party to open a court and register a jury via their ethereum addresses and rule the case based on the judge's arguments (guilty or not guilty). Once the case is ruled, the judge signs the decision and the case is closed. There are 25 jury members, chosen randomly in a pool of registered and verified persons. The official party has a secured vault containing information to trace back the address to its owner if needed. All jury members will vote, or the police will come and encourage the vote.",
    "version": 1
  }
}