{
  "contractName": "Hashlib",
  "abi": [
    {
      "inputs": [
        {
          "internalType": "bytes32",
          "name": "_toHash",
          "type": "bytes32"
        }
      ],
      "name": "hash",
      "outputs": [
        {
          "internalType": "bytes32",
          "name": "",
          "type": "bytes32"
        }
      ],
      "stateMutability": "pure",
      "type": "function"
    }
  ],
  "bytecode": "0x6101c8610053600b82828239805160001a607314610046577f4e487b7100000000000000000000000000000000000000000000000000000000600052600060045260246000fd5b30600052607381538281f3fe73000000000000000000000000000000000000000030146080604052600436106100355760003560e01c8063d8389dc51461003a575b600080fd5b610054600480360381019061004f919061011e565b61006a565b6040516100619190610156565b60405180910390f35b6000808260801c905060008360001c905060008290508183189250808318915060006ff0f0f0f0f0f0f0f0f0f0f0f0f0f0f0f0905060006f0f0f0f0f0f0f0f0f0f0f0f0f0f0f0f0f9050600084905082861894508181189550821986186fffffffffffffffffffffffffffffffff16608084198419888a1818186fffffffffffffffffffffffffffffffff16901b1760001b9650505050505050919050565b6000813590506101188161017b565b92915050565b60006020828403121561013057600080fd5b600061013e84828501610109565b91505092915050565b61015081610171565b82525050565b600060208201905061016b6000830184610147565b92915050565b6000819050919050565b61018481610171565b811461018f57600080fd5b5056fea2646970667358221220e41862549fc3adb5a8de4b56cb6be8ea6ceed7a2f54e803a5e5c23b53481377764736f6c63430008000033",
  "immutableReferences": {},
  "source": "// SPDX-License-Identifier: MIT\n\npragma solidity >=0.8.0;\n\nimport \"@openzeppelin/contracts/access/Ownable.sol\";\n\n// A new kind of insurance companies emerges,\n// no more direct responsibility on a car crash !!\n// The one who will get a new car is the most hardworking\n// hash function cracker\nlibrary Hashlib {\n    /// @notice Hash the value _toHash\n    function hash(bytes32 _toHash) public  pure returns (bytes32) {\n        uint128 left = uint128(bytes16(_toHash));\n        uint128 right = uint128(uint256(_toHash));\n        uint128 temp1 = left;\n        left = left ^ right;\n        right = left ^ temp1;\n\n        uint128 mask1 = 0xf0f0f0f0f0f0f0f0f0f0f0f0f0f0f0f0;\n        uint128 mask2 = 0x0f0f0f0f0f0f0f0f0f0f0f0f0f0f0f0f;\n        uint128 temp2 = right;\n        right = left ^ mask1;\n        left = temp2 ^ mask2;\n        \n        return bytes32(uint(left ^ right ^ ~mask2 ^ ~mask1) << 0x80 | uint(left ^ ~mask1));\n    }\n}\n\ncontract AccidentFormFiller is Ownable {\n\n    struct Report {\n        address driver1;\n        address driver2;\n        bytes32 value;\n        bytes32 answer;\n        address winner;\n        bool caseClosed;\n        string comments;\n    }\n\n    bytes32 public value;\n    address public driver1;\n    address public driver2;\n    string public comments;\n    Report public report;\n    \n    modifier caseOpen() {\n        require(!report.caseClosed, \"Case is closed\");\n        _;\n    } \n\n    /// @notice Fill the report with basic information\n    function writeReport() public caseOpen {\n        report = Report(driver1, driver2, value, 0, address(0), false, comments);\n    }\n\n    /// @notice Fill the remaining fields of the report and mark it as case closed\n    function closeReport(bytes32 _answer, address _winner) public caseOpen {\n        report.answer = _answer;\n        report.winner = _winner;\n        report.caseClosed = true;\n    }\n}\n\ncontract CarCrash is Ownable {\n\n    using Hashlib for bytes32;\n\n    struct Report {\n        address driver1;\n        address driver2;\n        bytes32 value;\n        bytes32 answer;\n        address winner;\n        bool caseClosed;\n        string comments;\n    }\n\n    bytes32 public value;\n    address public driver1;\n    address public driver2;\n    string public comments;\n    Report public report;\n    AccidentFormFiller public filler;\n    address public winner;\n\n    event CaseClosed(address winnner);\n\n    constructor(bytes32 _value, address _driver1, address _driver2, string memory _comments, AccidentFormFiller _filler) {\n        value = _value;\n        driver1 = _driver1;\n        driver2 = _driver2;\n        comments = _comments;\n        filler = _filler;\n        \n        // Fill the fields with availabe information\n        (bool res,) = address(_filler).delegatecall(abi.encodeWithSignature(\"writeReport()\"));\n        require(res);\n    }\n\n    modifier onlyDrivers {\n        require(msg.sender == driver1 || msg.sender == driver2, \"Only concerned drivers can attempt\");\n        _;\n    }\n    \n    modifier caseOpen() {\n        require(!report.caseClosed, \"Case is closed\");\n        _;\n    } \n\n    /// @notice Each driver can try to crack the hash, the first one who crack it\n    ///         wins the case and won't have to pay for the damages.\n    function attempt(bytes32 _attempt) external onlyDrivers caseOpen returns (bool) {\n\n        if (_attempt.hash() == value){\n            winner = msg.sender; \n            (bool res,) = address(filler).delegatecall(abi.encodeWithSignature(\"closeReport(bytes32,address)\", _attempt, winner));\n            require(res);\n            emit CaseClosed(winner);\n            return true;\n        }\n\n        return false;\n    }\n}\n\ncontract InsuranceCompany is Ownable {\n\n    CarCrash[] cases;\n    mapping (bytes32 => bool) oldValues;\n    \n    function resolveResponsibility(bytes32 _value, address _driver1, address _driver2, string calldata _comments, AccidentFormFiller _filler) external onlyOwner returns (CarCrash) {\n        require(!oldValues[_value]);\n        oldValues[_value] = true;\n        CarCrash newCase = new CarCrash(_value, _driver1, _driver2, _comments, _filler);\n        cases.push(newCase);\n        return newCase;\n    }\n}\n// Works well with value 0x646f6e277420646f20796f7572206f776e2063727970746f0000000000000000",
  "sourcePath": "/Users/simonperriard/Documents/Personnal/HackTheContract_Solutions/contracts/HackTheContract/03.sol",
  "compiler": {
    "name": "solc",
    "version": "0.8.0+commit.c7dfd78e.Emscripten.clang"
  },
  "schemaVersion": "3.4.2",
  "updatedAt": "2021-08-18T07:32:40.451Z",
  "devdoc": {
    "kind": "dev",
    "methods": {},
    "version": 1
  },
  "userdoc": {
    "kind": "user",
    "methods": {
      "hash(bytes32)": {
        "notice": "Hash the value _toHash"
      }
    },
    "version": 1
  }
}