{
  "contractName": "InsuranceCompany",
  "abi": [
    {
      "anonymous": false,
      "inputs": [
        {
          "indexed": true,
          "internalType": "address",
          "name": "previousOwner",
          "type": "address"
        },
        {
          "indexed": true,
          "internalType": "address",
          "name": "newOwner",
          "type": "address"
        }
      ],
      "name": "OwnershipTransferred",
      "type": "event"
    },
    {
      "inputs": [],
      "name": "owner",
      "outputs": [
        {
          "internalType": "address",
          "name": "",
          "type": "address"
        }
      ],
      "stateMutability": "view",
      "type": "function"
    },
    {
      "inputs": [],
      "name": "renounceOwnership",
      "outputs": [],
      "stateMutability": "nonpayable",
      "type": "function"
    },
    {
      "inputs": [
        {
          "internalType": "address",
          "name": "newOwner",
          "type": "address"
        }
      ],
      "name": "transferOwnership",
      "outputs": [],
      "stateMutability": "nonpayable",
      "type": "function"
    },
    {
      "inputs": [
        {
          "internalType": "bytes32",
          "name": "_value",
          "type": "bytes32"
        },
        {
          "internalType": "address",
          "name": "_driver1",
          "type": "address"
        },
        {
          "internalType": "address",
          "name": "_driver2",
          "type": "address"
        },
        {
          "internalType": "string",
          "name": "_comments",
          "type": "string"
        },
        {
          "internalType": "contract AccidentFormFiller",
          "name": "_filler",
          "type": "address"
        }
      ],
      "name": "resolveResponsibility",
      "outputs": [
        {
          "internalType": "contract CarCrash",
          "name": "",
          "type": "address"
        }
      ],
      "stateMutability": "nonpayable",
      "type": "function"
    }
  ],
  "bytecode": "0x608060405234801561001057600080fd5b5061002d61002261003260201b60201c565b61003a60201b60201c565b6100fe565b600033905090565b60008060009054906101000a900473ffffffffffffffffffffffffffffffffffffffff169050816000806101000a81548173ffffffffffffffffffffffffffffffffffffffff021916908373ffffffffffffffffffffffffffffffffffffffff1602179055508173ffffffffffffffffffffffffffffffffffffffff168173ffffffffffffffffffffffffffffffffffffffff167f8be0079c531659141344cd1fd0a4f28419497f9722a3daafe3b4186f6b6457e060405160405180910390a35050565b6121dd8061010d6000396000f3fe60806040523480156200001157600080fd5b5060043610620000525760003560e01c8063715018a614620000575780638bde08de14620000635780638da5cb5b1462000099578063f2fde38b14620000bb575b600080fd5b62000061620000db565b005b6200008160048036038101906200007b9190620005c6565b6200016c565b60405162000090919062000808565b60405180910390f35b620000a362000301565b604051620000b2919062000785565b60405180910390f35b620000d96004803603810190620000d391906200059a565b6200032a565b005b620000e56200042e565b73ffffffffffffffffffffffffffffffffffffffff166200010562000301565b73ffffffffffffffffffffffffffffffffffffffff16146200015e576040517f08c379a0000000000000000000000000000000000000000000000000000000008152600401620001559062000847565b60405180910390fd5b6200016a600062000436565b565b6000620001786200042e565b73ffffffffffffffffffffffffffffffffffffffff166200019862000301565b73ffffffffffffffffffffffffffffffffffffffff1614620001f1576040517f08c379a0000000000000000000000000000000000000000000000000000000008152600401620001e89062000847565b60405180910390fd5b6002600088815260200190815260200160002060009054906101000a900460ff16156200021d57600080fd5b60016002600089815260200190815260200160002060006101000a81548160ff02191690831515021790555060008787878787876040516200025f90620004fa565b6200027096959493929190620007a2565b604051809103906000f0801580156200028d573d6000803e3d6000fd5b5090506001819080600181540180825580915050600190039060005260206000200160009091909190916101000a81548173ffffffffffffffffffffffffffffffffffffffff021916908373ffffffffffffffffffffffffffffffffffffffff160217905550809150509695505050505050565b60008060009054906101000a900473ffffffffffffffffffffffffffffffffffffffff16905090565b620003346200042e565b73ffffffffffffffffffffffffffffffffffffffff166200035462000301565b73ffffffffffffffffffffffffffffffffffffffff1614620003ad576040517f08c379a0000000000000000000000000000000000000000000000000000000008152600401620003a49062000847565b60405180910390fd5b600073ffffffffffffffffffffffffffffffffffffffff168173ffffffffffffffffffffffffffffffffffffffff16141562000420576040517f08c379a0000000000000000000000000000000000000000000000000000000008152600401620004179062000825565b60405180910390fd5b6200042b8162000436565b50565b600033905090565b60008060009054906101000a900473ffffffffffffffffffffffffffffffffffffffff169050816000806101000a81548173ffffffffffffffffffffffffffffffffffffffff021916908373ffffffffffffffffffffffffffffffffffffffff1602179055508173ffffffffffffffffffffffffffffffffffffffff168173ffffffffffffffffffffffffffffffffffffffff167f8be0079c531659141344cd1fd0a4f28419497f9722a3daafe3b4186f6b6457e060405160405180910390a35050565b61181d806200098b83390190565b60008135905062000519816200093c565b92915050565b600081359050620005308162000956565b92915050565b600081359050620005478162000970565b92915050565b60008083601f8401126200056057600080fd5b8235905067ffffffffffffffff8111156200057a57600080fd5b6020830191508360018202830111156200059357600080fd5b9250929050565b600060208284031215620005ad57600080fd5b6000620005bd8482850162000508565b91505092915050565b60008060008060008060a08789031215620005e057600080fd5b6000620005f089828a016200051f565b96505060206200060389828a0162000508565b95505060406200061689828a0162000508565b945050606087013567ffffffffffffffff8111156200063457600080fd5b6200064289828a016200054d565b935093505060806200065789828a0162000536565b9150509295509295509295565b6200066f816200087a565b82525050565b62000680816200088e565b82525050565b6200069181620008cc565b82525050565b620006a281620008f4565b82525050565b6000620006b6838562000869565b9350620006c58385846200091c565b620006d0836200092b565b840190509392505050565b6000620006ea60268362000869565b91507f4f776e61626c653a206e6577206f776e657220697320746865207a65726f206160008301527f64647265737300000000000000000000000000000000000000000000000000006020830152604082019050919050565b60006200075260208362000869565b91507f4f776e61626c653a2063616c6c6572206973206e6f7420746865206f776e65726000830152602082019050919050565b60006020820190506200079c600083018462000664565b92915050565b600060a082019050620007b9600083018962000675565b620007c8602083018862000664565b620007d7604083018762000664565b8181036060830152620007ec818587620006a8565b9050620007fd608083018462000686565b979650505050505050565b60006020820190506200081f600083018462000697565b92915050565b600060208201905081810360008301526200084081620006db565b9050919050565b60006020820190508181036000830152620008628162000743565b9050919050565b600082825260208201905092915050565b60006200088782620008ac565b9050919050565b6000819050919050565b6000620008a5826200087a565b9050919050565b600073ffffffffffffffffffffffffffffffffffffffff82169050919050565b6000620008d982620008e0565b9050919050565b6000620008ed82620008ac565b9050919050565b6000620009018262000908565b9050919050565b60006200091582620008ac565b9050919050565b82818337600083830152505050565b6000601f19601f8301169050919050565b62000947816200087a565b81146200095357600080fd5b50565b62000961816200088e565b81146200096d57600080fd5b50565b6200097b8162000898565b81146200098757600080fd5b5056fe60806040523480156200001157600080fd5b506040516200181d3803806200181d833981810160405281019062000037919062000475565b620000576200004b6200024260201b60201c565b6200024a60201b60201c565b8460018190555083600260006101000a81548173ffffffffffffffffffffffffffffffffffffffff021916908373ffffffffffffffffffffffffffffffffffffffff16021790555082600360006101000a81548173ffffffffffffffffffffffffffffffffffffffff021916908373ffffffffffffffffffffffffffffffffffffffff1602179055508160049080519060200190620000f89291906200030e565b5080600b60006101000a81548173ffffffffffffffffffffffffffffffffffffffff021916908373ffffffffffffffffffffffffffffffffffffffff16021790555060008173ffffffffffffffffffffffffffffffffffffffff166040516024016040516020818303038152906040527fd9020bbe000000000000000000000000000000000000000000000000000000007bffffffffffffffffffffffffffffffffffffffffffffffffffffffff19166020820180517bffffffffffffffffffffffffffffffffffffffffffffffffffffffff8381831617835250505050604051620001e5919062000547565b600060405180830381855af49150503d806000811462000222576040519150601f19603f3d011682016040523d82523d6000602084013e62000227565b606091505b50509050806200023657600080fd5b50505050505062000747565b600033905090565b60008060009054906101000a900473ffffffffffffffffffffffffffffffffffffffff169050816000806101000a81548173ffffffffffffffffffffffffffffffffffffffff021916908373ffffffffffffffffffffffffffffffffffffffff1602179055508173ffffffffffffffffffffffffffffffffffffffff168173ffffffffffffffffffffffffffffffffffffffff167f8be0079c531659141344cd1fd0a4f28419497f9722a3daafe3b4186f6b6457e060405160405180910390a35050565b8280546200031c9062000665565b90600052602060002090601f0160209004810192826200034057600085556200038c565b82601f106200035b57805160ff19168380011785556200038c565b828001600101855582156200038c579182015b828111156200038b5782518255916020019190600101906200036e565b5b5090506200039b91906200039f565b5090565b5b80821115620003ba576000816000905550600101620003a0565b5090565b6000620003d5620003cf8462000594565b62000560565b905082815260208101848484011115620003ee57600080fd5b620003fb8482856200062f565b509392505050565b6000815190506200041481620006f9565b92915050565b6000815190506200042b8162000713565b92915050565b60008151905062000442816200072d565b92915050565b600082601f8301126200045a57600080fd5b81516200046c848260208601620003be565b91505092915050565b600080600080600060a086880312156200048e57600080fd5b60006200049e888289016200041a565b9550506020620004b18882890162000403565b9450506040620004c48882890162000403565b935050606086015167ffffffffffffffff811115620004e257600080fd5b620004f08882890162000448565b9250506080620005038882890162000431565b9150509295509295909350565b60006200051d82620005c7565b620005298185620005d2565b93506200053b8185602086016200062f565b80840191505092915050565b600062000555828462000510565b915081905092915050565b6000604051905081810181811067ffffffffffffffff821117156200058a5762000589620006ca565b5b8060405250919050565b600067ffffffffffffffff821115620005b257620005b1620006ca565b5b601f19601f8301169050602081019050919050565b600081519050919050565b600081905092915050565b6000620005ea826200060f565b9050919050565b6000819050919050565b60006200060882620005dd565b9050919050565b600073ffffffffffffffffffffffffffffffffffffffff82169050919050565b60005b838110156200064f57808201518184015260208101905062000632565b838111156200065f576000848401525b50505050565b600060028204905060018216806200067e57607f821691505b602082108114156200069557620006946200069b565b5b50919050565b7f4e487b7100000000000000000000000000000000000000000000000000000000600052602260045260246000fd5b7f4e487b7100000000000000000000000000000000000000000000000000000000600052604160045260246000fd5b6200070481620005dd565b81146200071057600080fd5b50565b6200071e81620005f1565b81146200072a57600080fd5b50565b6200073881620005fb565b81146200074457600080fd5b50565b6110c680620007576000396000f3fe608060405234801561001057600080fd5b50600436106100a95760003560e01c8063715018a611610071578063715018a61461014a5780638da5cb5b146101545780639ca2eb7e14610172578063caac9dca146101a2578063dfbf53ae146101c0578063f2fde38b146101de576100a9565b806325c843b9146100ae5780632606a10b146100cc57806329fb7a85146100f05780633fa4f2451461010e57806354ca8fc61461012c575b600080fd5b6100b66101fa565b6040516100c39190610e7d565b60405180910390f35b6100d4610288565b6040516100e79796959493929190610d72565b60405180910390f35b6100f86103ad565b6040516101059190610d57565b60405180910390f35b6101166103d3565b6040516101239190610e1e565b60405180910390f35b6101346103d9565b6040516101419190610d57565b60405180910390f35b6101526103ff565b005b61015c610487565b6040516101699190610d57565b60405180910390f35b61018c60048036038101906101879190610aed565b6104b0565b6040516101999190610de8565b60405180910390f35b6101aa610875565b6040516101b79190610e62565b60405180910390f35b6101c861089b565b6040516101d59190610d57565b60405180910390f35b6101f860048036038101906101f39190610ac4565b6108c1565b005b6004805461020790610ff0565b80601f016020809104026020016040519081016040528092919081815260200182805461023390610ff0565b80156102805780601f1061025557610100808354040283529160200191610280565b820191906000526020600020905b81548152906001019060200180831161026357829003601f168201915b505050505081565b60058060000160009054906101000a900473ffffffffffffffffffffffffffffffffffffffff16908060010160009054906101000a900473ffffffffffffffffffffffffffffffffffffffff16908060020154908060030154908060040160009054906101000a900473ffffffffffffffffffffffffffffffffffffffff16908060040160149054906101000a900460ff169080600501805461032a90610ff0565b80601f016020809104026020016040519081016040528092919081815260200182805461035690610ff0565b80156103a35780601f10610378576101008083540402835291602001916103a3565b820191906000526020600020905b81548152906001019060200180831161038657829003601f168201915b5050505050905087565b600260009054906101000a900473ffffffffffffffffffffffffffffffffffffffff1681565b60015481565b600360009054906101000a900473ffffffffffffffffffffffffffffffffffffffff1681565b6104076109b9565b73ffffffffffffffffffffffffffffffffffffffff16610425610487565b73ffffffffffffffffffffffffffffffffffffffff161461047b576040517f08c379a000000000000000000000000000000000000000000000000000000000815260040161047290610eff565b60405180910390fd5b61048560006109c1565b565b60008060009054906101000a900473ffffffffffffffffffffffffffffffffffffffff16905090565b6000600260009054906101000a900473ffffffffffffffffffffffffffffffffffffffff1673ffffffffffffffffffffffffffffffffffffffff163373ffffffffffffffffffffffffffffffffffffffff16148061055b5750600360009054906101000a900473ffffffffffffffffffffffffffffffffffffffff1673ffffffffffffffffffffffffffffffffffffffff163373ffffffffffffffffffffffffffffffffffffffff16145b61059a576040517f08c379a000000000000000000000000000000000000000000000000000000000815260040161059190610edf565b60405180910390fd5b600560040160149054906101000a900460ff16156105ed576040517f08c379a00000000000000000000000000000000000000000000000000000000081526004016105e490610ebf565b60405180910390fd5b6001548273__Hashlib_______________________________63d8389dc590916040518263ffffffff1660e01b81526004016106299190610e03565b60206040518083038186803b15801561064157600080fd5b505af4158015610655573d6000803e3d6000fd5b505050506040513d601f19601f820116820180604052508101906106799190610b16565b141561086b5733600c60006101000a81548173ffffffffffffffffffffffffffffffffffffffff021916908373ffffffffffffffffffffffffffffffffffffffff1602179055506000600b60009054906101000a900473ffffffffffffffffffffffffffffffffffffffff1673ffffffffffffffffffffffffffffffffffffffff1683600c60009054906101000a900473ffffffffffffffffffffffffffffffffffffffff16604051602401610730929190610e39565b6040516020818303038152906040527ff87150bb000000000000000000000000000000000000000000000000000000007bffffffffffffffffffffffffffffffffffffffffffffffffffffffff19166020820180517bffffffffffffffffffffffffffffffffffffffffffffffffffffffff83818316178352505050506040516107ba9190610d40565b600060405180830381855af49150503d80600081146107f5576040519150601f19603f3d011682016040523d82523d6000602084013e6107fa565b606091505b505090508061080857600080fd5b7f9d63a8b2570289a7ff3abdac36d43c4e1243b9986341ebd7c529d502e54404b0600c60009054906101000a900473ffffffffffffffffffffffffffffffffffffffff166040516108599190610d57565b60405180910390a16001915050610870565b600090505b919050565b600b60009054906101000a900473ffffffffffffffffffffffffffffffffffffffff1681565b600c60009054906101000a900473ffffffffffffffffffffffffffffffffffffffff1681565b6108c96109b9565b73ffffffffffffffffffffffffffffffffffffffff166108e7610487565b73ffffffffffffffffffffffffffffffffffffffff161461093d576040517f08c379a000000000000000000000000000000000000000000000000000000000815260040161093490610eff565b60405180910390fd5b600073ffffffffffffffffffffffffffffffffffffffff168173ffffffffffffffffffffffffffffffffffffffff1614156109ad576040517f08c379a00000000000000000000000000000000000000000000000000000000081526004016109a490610e9f565b60405180910390fd5b6109b6816109c1565b50565b600033905090565b60008060009054906101000a900473ffffffffffffffffffffffffffffffffffffffff169050816000806101000a81548173ffffffffffffffffffffffffffffffffffffffff021916908373ffffffffffffffffffffffffffffffffffffffff1602179055508173ffffffffffffffffffffffffffffffffffffffff168173ffffffffffffffffffffffffffffffffffffffff167f8be0079c531659141344cd1fd0a4f28419497f9722a3daafe3b4186f6b6457e060405160405180910390a35050565b600081359050610a9481611062565b92915050565b600081359050610aa981611079565b92915050565b600081519050610abe81611079565b92915050565b600060208284031215610ad657600080fd5b6000610ae484828501610a85565b91505092915050565b600060208284031215610aff57600080fd5b6000610b0d84828501610a9a565b91505092915050565b600060208284031215610b2857600080fd5b6000610b3684828501610aaf565b91505092915050565b610b4881610f51565b82525050565b610b5781610f63565b82525050565b610b6681610f6f565b82525050565b610b7581610f6f565b82525050565b6000610b8682610f1f565b610b908185610f35565b9350610ba0818560208601610fbd565b80840191505092915050565b610bb581610f99565b82525050565b6000610bc682610f2a565b610bd08185610f40565b9350610be0818560208601610fbd565b610be981611051565b840191505092915050565b6000610c01602683610f40565b91507f4f776e61626c653a206e6577206f776e657220697320746865207a65726f206160008301527f64647265737300000000000000000000000000000000000000000000000000006020830152604082019050919050565b6000610c67600e83610f40565b91507f4361736520697320636c6f7365640000000000000000000000000000000000006000830152602082019050919050565b6000610ca7602283610f40565b91507f4f6e6c7920636f6e6365726e656420647269766572732063616e20617474656d60008301527f70740000000000000000000000000000000000000000000000000000000000006020830152604082019050919050565b6000610d0d602083610f40565b91507f4f776e61626c653a2063616c6c6572206973206e6f7420746865206f776e65726000830152602082019050919050565b6000610d4c8284610b7b565b915081905092915050565b6000602082019050610d6c6000830184610b3f565b92915050565b600060e082019050610d87600083018a610b3f565b610d946020830189610b3f565b610da16040830188610b5d565b610dae6060830187610b5d565b610dbb6080830186610b3f565b610dc860a0830185610b4e565b81810360c0830152610dda8184610bbb565b905098975050505050505050565b6000602082019050610dfd6000830184610b4e565b92915050565b6000602082019050610e186000830184610b6c565b92915050565b6000602082019050610e336000830184610b5d565b92915050565b6000604082019050610e4e6000830185610b5d565b610e5b6020830184610b3f565b9392505050565b6000602082019050610e776000830184610bac565b92915050565b60006020820190508181036000830152610e978184610bbb565b905092915050565b60006020820190508181036000830152610eb881610bf4565b9050919050565b60006020820190508181036000830152610ed881610c5a565b9050919050565b60006020820190508181036000830152610ef881610c9a565b9050919050565b60006020820190508181036000830152610f1881610d00565b9050919050565b600081519050919050565b600081519050919050565b600081905092915050565b600082825260208201905092915050565b6000610f5c82610f79565b9050919050565b60008115159050919050565b6000819050919050565b600073ffffffffffffffffffffffffffffffffffffffff82169050919050565b6000610fa482610fab565b9050919050565b6000610fb682610f79565b9050919050565b60005b83811015610fdb578082015181840152602081019050610fc0565b83811115610fea576000848401525b50505050565b6000600282049050600182168061100857607f821691505b6020821081141561101c5761101b611022565b5b50919050565b7f4e487b7100000000000000000000000000000000000000000000000000000000600052602260045260246000fd5b6000601f19601f8301169050919050565b61106b81610f51565b811461107657600080fd5b50565b61108281610f6f565b811461108d57600080fd5b5056fea26469706673582212205d0f6b27213f56aeb34b1a9044de70cf8be3609b61c0f2b75da305744904bc4964736f6c63430008000033a2646970667358221220654b034a0f97c493dd6ead61f5e8cbaaa98046c9e3d2b033bbf341da2b5e27b464736f6c63430008000033",
  "immutableReferences": {},
  "source": "// SPDX-License-Identifier: MIT\n\npragma solidity >=0.8.0;\n\nimport \"@openzeppelin/contracts/access/Ownable.sol\";\n\n// A new kind of insurance companies emerges,\n// no more direct responsibility on a car crash !!\n// The one who will get a new car is the most hardworking\n// hash function cracker\nlibrary Hashlib {\n    /// @notice Hash the value _toHash\n    function hash(bytes32 _toHash) public  pure returns (bytes32) {\n        uint128 left = uint128(bytes16(_toHash));\n        uint128 right = uint128(uint256(_toHash));\n        uint128 temp1 = left;\n        left = left ^ right;\n        right = left ^ temp1;\n\n        uint128 mask1 = 0xf0f0f0f0f0f0f0f0f0f0f0f0f0f0f0f0;\n        uint128 mask2 = 0x0f0f0f0f0f0f0f0f0f0f0f0f0f0f0f0f;\n        uint128 temp2 = right;\n        right = left ^ mask1;\n        left = temp2 ^ mask2;\n        \n        return bytes32(uint(left ^ right ^ ~mask2 ^ ~mask1) << 0x80 | uint(left ^ ~mask1));\n    }\n}\n\ncontract AccidentFormFiller is Ownable {\n\n    struct Report {\n        address driver1;\n        address driver2;\n        bytes32 value;\n        bytes32 answer;\n        address winner;\n        bool caseClosed;\n        string comments;\n    }\n\n    bytes32 public value;\n    address public driver1;\n    address public driver2;\n    string public comments;\n    Report public report;\n    \n    modifier caseOpen() {\n        require(!report.caseClosed, \"Case is closed\");\n        _;\n    } \n\n    /// @notice Fill the report with basic information\n    function writeReport() public caseOpen {\n        report = Report(driver1, driver2, value, 0, address(0), false, comments);\n    }\n\n    /// @notice Fill the remaining fields of the report and mark it as case closed\n    function closeReport(bytes32 _answer, address _winner) public caseOpen {\n        report.answer = _answer;\n        report.winner = _winner;\n        report.caseClosed = true;\n    }\n}\n\ncontract CarCrash is Ownable {\n\n    using Hashlib for bytes32;\n\n    struct Report {\n        address driver1;\n        address driver2;\n        bytes32 value;\n        bytes32 answer;\n        address winner;\n        bool caseClosed;\n        string comments;\n    }\n\n    bytes32 public value;\n    address public driver1;\n    address public driver2;\n    string public comments;\n    Report public report;\n    AccidentFormFiller public filler;\n    address public winner;\n\n    event CaseClosed(address winnner);\n\n    constructor(bytes32 _value, address _driver1, address _driver2, string memory _comments, AccidentFormFiller _filler) {\n        value = _value;\n        driver1 = _driver1;\n        driver2 = _driver2;\n        comments = _comments;\n        filler = _filler;\n        \n        // Fill the fields with availabe information\n        (bool res,) = address(_filler).delegatecall(abi.encodeWithSignature(\"writeReport()\"));\n        require(res);\n    }\n\n    modifier onlyDrivers {\n        require(msg.sender == driver1 || msg.sender == driver2, \"Only concerned drivers can attempt\");\n        _;\n    }\n    \n    modifier caseOpen() {\n        require(!report.caseClosed, \"Case is closed\");\n        _;\n    } \n\n    /// @notice Each driver can try to crack the hash, the first one who crack it\n    ///         wins the case and won't have to pay for the damages.\n    function attempt(bytes32 _attempt) external onlyDrivers caseOpen returns (bool) {\n\n        if (_attempt.hash() == value){\n            winner = msg.sender; \n            (bool res,) = address(filler).delegatecall(abi.encodeWithSignature(\"closeReport(bytes32,address)\", _attempt, winner));\n            require(res);\n            emit CaseClosed(winner);\n            return true;\n        }\n\n        return false;\n    }\n}\n\ncontract InsuranceCompany is Ownable {\n\n    CarCrash[] cases;\n    mapping (bytes32 => bool) oldValues;\n    \n    function resolveResponsibility(bytes32 _value, address _driver1, address _driver2, string calldata _comments, AccidentFormFiller _filler) external onlyOwner returns (CarCrash) {\n        require(!oldValues[_value]);\n        oldValues[_value] = true;\n        CarCrash newCase = new CarCrash(_value, _driver1, _driver2, _comments, _filler);\n        cases.push(newCase);\n        return newCase;\n    }\n}\n// Works well with value 0x646f6e277420646f20796f7572206f776e2063727970746f0000000000000000",
  "sourcePath": "/Users/simonperriard/Documents/Personnal/HackTheContract_Solutions/contracts/HackTheContract/03.sol",
  "compiler": {
    "name": "solc",
    "version": "0.8.0+commit.c7dfd78e.Emscripten.clang"
  },
  "schemaVersion": "3.4.2",
  "updatedAt": "2021-08-18T07:32:40.456Z",
  "devdoc": {
    "kind": "dev",
    "methods": {
      "owner()": {
        "details": "Returns the address of the current owner."
      },
      "renounceOwnership()": {
        "details": "Leaves the contract without owner. It will not be possible to call `onlyOwner` functions anymore. Can only be called by the current owner. NOTE: Renouncing ownership will leave the contract without an owner, thereby removing any functionality that is only available to the owner."
      },
      "transferOwnership(address)": {
        "details": "Transfers ownership of the contract to a new account (`newOwner`). Can only be called by the current owner."
      }
    },
    "version": 1
  },
  "userdoc": {
    "kind": "user",
    "methods": {},
    "version": 1
  }
}