{
  "contractName": "PayChecks",
  "abi": [
    {
      "inputs": [
        {
          "internalType": "string",
          "name": "_companyName",
          "type": "string"
        },
        {
          "components": [
            {
              "internalType": "address",
              "name": "employeeAddress",
              "type": "address"
            },
            {
              "internalType": "uint16",
              "name": "payGradeId",
              "type": "uint16"
            }
          ],
          "internalType": "struct PayChecks.Employee[]",
          "name": "_employees",
          "type": "tuple[]"
        },
        {
          "internalType": "uint256[]",
          "name": "_payGrades",
          "type": "uint256[]"
        }
      ],
      "stateMutability": "nonpayable",
      "type": "constructor"
    },
    {
      "anonymous": false,
      "inputs": [
        {
          "indexed": true,
          "internalType": "address",
          "name": "previousOwner",
          "type": "address"
        },
        {
          "indexed": true,
          "internalType": "address",
          "name": "newOwner",
          "type": "address"
        }
      ],
      "name": "OwnershipTransferred",
      "type": "event"
    },
    {
      "inputs": [],
      "name": "companyName",
      "outputs": [
        {
          "internalType": "string",
          "name": "",
          "type": "string"
        }
      ],
      "stateMutability": "view",
      "type": "function"
    },
    {
      "inputs": [
        {
          "internalType": "uint256",
          "name": "",
          "type": "uint256"
        }
      ],
      "name": "employees",
      "outputs": [
        {
          "internalType": "address",
          "name": "employeeAddress",
          "type": "address"
        },
        {
          "internalType": "uint16",
          "name": "payGradeId",
          "type": "uint16"
        }
      ],
      "stateMutability": "view",
      "type": "function"
    },
    {
      "inputs": [
        {
          "internalType": "address",
          "name": "",
          "type": "address"
        }
      ],
      "name": "employeesId",
      "outputs": [
        {
          "internalType": "uint32",
          "name": "",
          "type": "uint32"
        }
      ],
      "stateMutability": "view",
      "type": "function"
    },
    {
      "inputs": [],
      "name": "lastPaymentTime",
      "outputs": [
        {
          "internalType": "uint256",
          "name": "",
          "type": "uint256"
        }
      ],
      "stateMutability": "view",
      "type": "function"
    },
    {
      "inputs": [],
      "name": "owner",
      "outputs": [
        {
          "internalType": "address",
          "name": "",
          "type": "address"
        }
      ],
      "stateMutability": "view",
      "type": "function"
    },
    {
      "inputs": [
        {
          "internalType": "uint256",
          "name": "",
          "type": "uint256"
        }
      ],
      "name": "payGrades",
      "outputs": [
        {
          "internalType": "uint256",
          "name": "",
          "type": "uint256"
        }
      ],
      "stateMutability": "view",
      "type": "function"
    },
    {
      "inputs": [],
      "name": "renounceOwnership",
      "outputs": [],
      "stateMutability": "nonpayable",
      "type": "function"
    },
    {
      "inputs": [
        {
          "internalType": "address",
          "name": "newOwner",
          "type": "address"
        }
      ],
      "name": "transferOwnership",
      "outputs": [],
      "stateMutability": "nonpayable",
      "type": "function"
    },
    {
      "inputs": [
        {
          "internalType": "uint16",
          "name": "_newEmployeePayGradeId",
          "type": "uint16"
        },
        {
          "internalType": "address",
          "name": "_newEmployeeAddress",
          "type": "address"
        }
      ],
      "name": "addEmployee",
      "outputs": [],
      "stateMutability": "nonpayable",
      "type": "function"
    },
    {
      "inputs": [],
      "name": "runSalaryPayment",
      "outputs": [],
      "stateMutability": "payable",
      "type": "function"
    },
    {
      "inputs": [],
      "name": "computeTotalSalarialMass",
      "outputs": [
        {
          "internalType": "uint256",
          "name": "",
          "type": "uint256"
        }
      ],
      "stateMutability": "view",
      "type": "function"
    },
    {
      "inputs": [
        {
          "internalType": "uint16",
          "name": "_newPayGradeId",
          "type": "uint16"
        },
        {
          "internalType": "address",
          "name": "_employeeAddress",
          "type": "address"
        }
      ],
      "name": "changePayGradeForEmployee",
      "outputs": [],
      "stateMutability": "nonpayable",
      "type": "function"
    },
    {
      "inputs": [
        {
          "internalType": "uint16",
          "name": "_payGradeId",
          "type": "uint16"
        },
        {
          "internalType": "uint256",
          "name": "_newAmount",
          "type": "uint256"
        }
      ],
      "name": "updatePayGrade",
      "outputs": [],
      "stateMutability": "nonpayable",
      "type": "function"
    },
    {
      "inputs": [
        {
          "internalType": "uint16",
          "name": "_amount",
          "type": "uint16"
        }
      ],
      "name": "addPayGrade",
      "outputs": [],
      "stateMutability": "nonpayable",
      "type": "function"
    }
  ],
  "bytecode": "0x608060405260006002553480156200001657600080fd5b50604051620023bc380380620023bc83398181016040528101906200003c91906200075d565b6200005c620000506200034160201b60201c565b6200034960201b60201c565b8160005b81518163ffffffff161015620000f3576000828263ffffffff1681518110620000b2577f4e487b7100000000000000000000000000000000000000000000000000000000600052603260045260246000fd5b602002602001015160000151905080620000cb57600080fd5b803b80151915620000db57600080fd5b50508080620000ea906200098b565b91505062000060565b5083600190805190602001906200010c9291906200040d565b508160049080519060200190620001259291906200049e565b5060005b83518163ffffffff16101562000336576003848263ffffffff16815181106200017b577f4e487b7100000000000000000000000000000000000000000000000000000000600052603260045260246000fd5b60200260200101519080600181540180825580915050600190039060005260206000200160009091909190915060008201518160000160006101000a81548173ffffffffffffffffffffffffffffffffffffffff021916908373ffffffffffffffffffffffffffffffffffffffff16021790555060208201518160000160146101000a81548161ffff021916908361ffff16021790555050508251848263ffffffff168151811062000256577f4e487b7100000000000000000000000000000000000000000000000000000000600052603260045260246000fd5b60200260200101516020015161ffff16106200027157600080fd5b6000848263ffffffff1681518110620002b3577f4e487b7100000000000000000000000000000000000000000000000000000000600052603260045260246000fd5b602002602001015160000151905081600560008373ffffffffffffffffffffffffffffffffffffffff1673ffffffffffffffffffffffffffffffffffffffff16815260200190815260200160002060006101000a81548163ffffffff021916908363ffffffff1602179055505080806200032d906200098b565b91505062000129565b505050505062000a98565b600033905090565b60008060009054906101000a900473ffffffffffffffffffffffffffffffffffffffff169050816000806101000a81548173ffffffffffffffffffffffffffffffffffffffff021916908373ffffffffffffffffffffffffffffffffffffffff1602179055508173ffffffffffffffffffffffffffffffffffffffff168173ffffffffffffffffffffffffffffffffffffffff167f8be0079c531659141344cd1fd0a4f28419497f9722a3daafe3b4186f6b6457e060405160405180910390a35050565b8280546200041b9062000955565b90600052602060002090601f0160209004810192826200043f57600085556200048b565b82601f106200045a57805160ff19168380011785556200048b565b828001600101855582156200048b579182015b828111156200048a5782518255916020019190600101906200046d565b5b5090506200049a9190620004f0565b5090565b828054828255906000526020600020908101928215620004dd579160200282015b82811115620004dc578251825591602001919060010190620004bf565b5b509050620004ec9190620004f0565b5090565b5b808211156200050b576000816000905550600101620004f1565b5090565b600062000526620005208462000832565b620007fe565b905080838252602082019050828560408602820111156200054657600080fd5b60005b858110156200057a57816200055f8882620006dc565b84526020840193506040830192505060018101905062000549565b5050509392505050565b60006200059b620005958462000861565b620007fe565b90508083825260208201905082856020860282011115620005bb57600080fd5b60005b85811015620005ef5781620005d4888262000746565b845260208401935060208301925050600181019050620005be565b5050509392505050565b6000620006106200060a8462000890565b620007fe565b9050828152602081018484840111156200062957600080fd5b620006368482856200091f565b509392505050565b6000815190506200064f8162000a4a565b92915050565b600082601f8301126200066757600080fd5b8151620006798482602086016200050f565b91505092915050565b600082601f8301126200069457600080fd5b8151620006a684826020860162000584565b91505092915050565b600082601f830112620006c157600080fd5b8151620006d3848260208601620005f9565b91505092915050565b600060408284031215620006ef57600080fd5b620006fb6040620007fe565b905060006200070d848285016200063e565b600083015250602062000723848285016200072f565b60208301525092915050565b600081519050620007408162000a64565b92915050565b600081519050620007578162000a7e565b92915050565b6000806000606084860312156200077357600080fd5b600084015167ffffffffffffffff8111156200078e57600080fd5b6200079c86828701620006af565b935050602084015167ffffffffffffffff811115620007ba57600080fd5b620007c88682870162000655565b925050604084015167ffffffffffffffff811115620007e657600080fd5b620007f48682870162000682565b9150509250925092565b6000604051905081810181811067ffffffffffffffff8211171562000828576200082762000a1b565b5b8060405250919050565b600067ffffffffffffffff82111562000850576200084f62000a1b565b5b602082029050602081019050919050565b600067ffffffffffffffff8211156200087f576200087e62000a1b565b5b602082029050602081019050919050565b600067ffffffffffffffff821115620008ae57620008ad62000a1b565b5b601f19601f8301169050602081019050919050565b6000620008d082620008e5565b9050919050565b600061ffff82169050919050565b600073ffffffffffffffffffffffffffffffffffffffff82169050919050565b6000819050919050565b600063ffffffff82169050919050565b60005b838110156200093f57808201518184015260208101905062000922565b838111156200094f576000848401525b50505050565b600060028204905060018216806200096e57607f821691505b60208210811415620009855762000984620009ec565b5b50919050565b600062000998826200090f565b915063ffffffff821415620009b257620009b1620009bd565b5b600182019050919050565b7f4e487b7100000000000000000000000000000000000000000000000000000000600052601160045260246000fd5b7f4e487b7100000000000000000000000000000000000000000000000000000000600052602260045260246000fd5b7f4e487b7100000000000000000000000000000000000000000000000000000000600052604160045260246000fd5b62000a5581620008c3565b811462000a6157600080fd5b50565b62000a6f81620008d7565b811462000a7b57600080fd5b50565b62000a898162000905565b811462000a9557600080fd5b50565b6119148062000aa86000396000f3fe6080604052600436106100dd5760003560e01c8063715018a61161007f578063dfe607f911610059578063dfe607f91461028c578063e528511a146102b7578063f2fde38b146102e0578063f5ec2eed14610309576100dd565b8063715018a6146102215780638da5cb5b14610238578063d06c154c14610263576100dd565b80634739326b116100bb5780634739326b14610154578063499ee8cd146101925780634df8600d146101bb5780636bd61b1d146101f8576100dd565b806302e59f90146100e257806318c4e1791461011f5780631d4ff82f1461014a575b600080fd5b3480156100ee57600080fd5b5061010960048036038101906101049190611276565b610334565b60405161011691906116b1565b60405180910390f35b34801561012b57600080fd5b50610134610357565b6040516101419190611696565b60405180910390f35b6101526104b9565b005b34801561016057600080fd5b5061017b60048036038101906101769190611340565b6106cf565b6040516101899291906115ab565b60405180910390f35b34801561019e57600080fd5b506101b960048036038101906101b4919061129f565b61072d565b005b3480156101c757600080fd5b506101e260048036038101906101dd9190611340565b6107d9565b6040516101ef9190611696565b60405180910390f35b34801561020457600080fd5b5061021f600480360381019061021a91906112c8565b6107fd565b005b34801561022d57600080fd5b50610236610b64565b005b34801561024457600080fd5b5061024d610bec565b60405161025a9190611590565b60405180910390f35b34801561026f57600080fd5b5061028a600480360381019061028591906112c8565b610c15565b005b34801561029857600080fd5b506102a1610ec5565b6040516102ae9190611696565b60405180910390f35b3480156102c357600080fd5b506102de60048036038101906102d99190611304565b610ecb565b005b3480156102ec57600080fd5b5061030760048036038101906103029190611276565b610fe5565b005b34801561031557600080fd5b5061031e6110dd565b60405161032b91906115d4565b60405180910390f35b60056020528060005260406000206000915054906101000a900463ffffffff1681565b6000806000905060005b6003805490508163ffffffff1610156104b157600060038263ffffffff16815481106103b6577f4e487b7100000000000000000000000000000000000000000000000000000000600052603260045260246000fd5b906000526020600020016040518060400160405290816000820160009054906101000a900473ffffffffffffffffffffffffffffffffffffffff1673ffffffffffffffffffffffffffffffffffffffff1673ffffffffffffffffffffffffffffffffffffffff1681526020016000820160149054906101000a900461ffff1661ffff1661ffff168152505090506004816020015161ffff1681548110610485577f4e487b7100000000000000000000000000000000000000000000000000000000600052603260045260246000fd5b90600052602060002001548361049b91906116e8565b92505080806104a9906117fd565b915050610361565b508091505090565b6104c161116b565b73ffffffffffffffffffffffffffffffffffffffff166104df610bec565b73ffffffffffffffffffffffffffffffffffffffff1614610535576040517f08c379a000000000000000000000000000000000000000000000000000000000815260040161052c90611656565b60405180910390fd5b60005b6003805490508163ffffffff1610156106c557600060038263ffffffff168154811061058d577f4e487b7100000000000000000000000000000000000000000000000000000000600052603260045260246000fd5b906000526020600020016040518060400160405290816000820160009054906101000a900473ffffffffffffffffffffffffffffffffffffffff1673ffffffffffffffffffffffffffffffffffffffff1673ffffffffffffffffffffffffffffffffffffffff1681526020016000820160149054906101000a900461ffff1661ffff1661ffff16815250509050806000015173ffffffffffffffffffffffffffffffffffffffff166108fc6004836020015161ffff168154811061067a577f4e487b7100000000000000000000000000000000000000000000000000000000600052603260045260246000fd5b90600052602060002001549081150290604051600060405180830381858888f193505050501580156106b0573d6000803e3d6000fd5b505080806106bd906117fd565b915050610538565b5042600281905550565b600381815481106106df57600080fd5b906000526020600020016000915090508060000160009054906101000a900473ffffffffffffffffffffffffffffffffffffffff16908060000160149054906101000a900461ffff16905082565b61073561116b565b73ffffffffffffffffffffffffffffffffffffffff16610753610bec565b73ffffffffffffffffffffffffffffffffffffffff16146107a9576040517f08c379a00000000000000000000000000000000000000000000000000000000081526004016107a090611656565b60405180910390fd5b600481908060018154018082558091505060019003906000526020600020016000909161ffff1690919091505550565b600481815481106107e957600080fd5b906000526020600020016000915090505481565b61080561116b565b73ffffffffffffffffffffffffffffffffffffffff16610823610bec565b73ffffffffffffffffffffffffffffffffffffffff1614610879576040517f08c379a000000000000000000000000000000000000000000000000000000000815260040161087090611656565b60405180910390fd5b816004805490508161ffff16106108c5576040517f08c379a00000000000000000000000000000000000000000000000000000000081526004016108bc90611636565b60405180910390fd5b600073ffffffffffffffffffffffffffffffffffffffff168273ffffffffffffffffffffffffffffffffffffffff1614156108ff57600080fd5b600060038054905014806109fb57508173ffffffffffffffffffffffffffffffffffffffff166003600560008573ffffffffffffffffffffffffffffffffffffffff1673ffffffffffffffffffffffffffffffffffffffff16815260200190815260200160002060009054906101000a900463ffffffff1663ffffffff16815481106109b4577f4e487b7100000000000000000000000000000000000000000000000000000000600052603260045260246000fd5b9060005260206000200160000160009054906101000a900473ffffffffffffffffffffffffffffffffffffffff1673ffffffffffffffffffffffffffffffffffffffff1614155b610a3a576040517f08c379a0000000000000000000000000000000000000000000000000000000008152600401610a31906115f6565b60405180910390fd5b600380549050600560008473ffffffffffffffffffffffffffffffffffffffff1673ffffffffffffffffffffffffffffffffffffffff16815260200190815260200160002060006101000a81548163ffffffff021916908363ffffffff160217905550600360405180604001604052808473ffffffffffffffffffffffffffffffffffffffff1681526020018561ffff168152509080600181540180825580915050600190039060005260206000200160009091909190915060008201518160000160006101000a81548173ffffffffffffffffffffffffffffffffffffffff021916908373ffffffffffffffffffffffffffffffffffffffff16021790555060208201518160000160146101000a81548161ffff021916908361ffff1602179055505050505050565b610b6c61116b565b73ffffffffffffffffffffffffffffffffffffffff16610b8a610bec565b73ffffffffffffffffffffffffffffffffffffffff1614610be0576040517f08c379a0000000000000000000000000000000000000000000000000000000008152600401610bd790611656565b60405180910390fd5b610bea6000611173565b565b60008060009054906101000a900473ffffffffffffffffffffffffffffffffffffffff16905090565b610c1d61116b565b73ffffffffffffffffffffffffffffffffffffffff16610c3b610bec565b73ffffffffffffffffffffffffffffffffffffffff1614610c91576040517f08c379a0000000000000000000000000000000000000000000000000000000008152600401610c8890611656565b60405180910390fd5b808073ffffffffffffffffffffffffffffffffffffffff166003600560008473ffffffffffffffffffffffffffffffffffffffff1673ffffffffffffffffffffffffffffffffffffffff16815260200190815260200160002060009054906101000a900463ffffffff1663ffffffff1681548110610d38577f4e487b7100000000000000000000000000000000000000000000000000000000600052603260045260246000fd5b9060005260206000200160000160009054906101000a900473ffffffffffffffffffffffffffffffffffffffff1673ffffffffffffffffffffffffffffffffffffffff1614610dbc576040517f08c379a0000000000000000000000000000000000000000000000000000000008152600401610db390611676565b60405180910390fd5b826004805490508161ffff1610610e08576040517f08c379a0000000000000000000000000000000000000000000000000000000008152600401610dff90611636565b60405180910390fd5b836003600560008673ffffffffffffffffffffffffffffffffffffffff1673ffffffffffffffffffffffffffffffffffffffff16815260200190815260200160002060009054906101000a900463ffffffff1663ffffffff1681548110610e98577f4e487b7100000000000000000000000000000000000000000000000000000000600052603260045260246000fd5b9060005260206000200160000160146101000a81548161ffff021916908361ffff16021790555050505050565b60025481565b610ed361116b565b73ffffffffffffffffffffffffffffffffffffffff16610ef1610bec565b73ffffffffffffffffffffffffffffffffffffffff1614610f47576040517f08c379a0000000000000000000000000000000000000000000000000000000008152600401610f3e90611656565b60405180910390fd5b816004805490508161ffff1610610f93576040517f08c379a0000000000000000000000000000000000000000000000000000000008152600401610f8a90611636565b60405180910390fd5b8160048461ffff1681548110610fd2577f4e487b7100000000000000000000000000000000000000000000000000000000600052603260045260246000fd5b9060005260206000200181905550505050565b610fed61116b565b73ffffffffffffffffffffffffffffffffffffffff1661100b610bec565b73ffffffffffffffffffffffffffffffffffffffff1614611061576040517f08c379a000000000000000000000000000000000000000000000000000000000815260040161105890611656565b60405180910390fd5b600073ffffffffffffffffffffffffffffffffffffffff168173ffffffffffffffffffffffffffffffffffffffff1614156110d1576040517f08c379a00000000000000000000000000000000000000000000000000000000081526004016110c890611616565b60405180910390fd5b6110da81611173565b50565b600180546110ea906117cb565b80601f0160208091040260200160405190810160405280929190818152602001828054611116906117cb565b80156111635780601f1061113857610100808354040283529160200191611163565b820191906000526020600020905b81548152906001019060200180831161114657829003601f168201915b505050505081565b600033905090565b60008060009054906101000a900473ffffffffffffffffffffffffffffffffffffffff169050816000806101000a81548173ffffffffffffffffffffffffffffffffffffffff021916908373ffffffffffffffffffffffffffffffffffffffff1602179055508173ffffffffffffffffffffffffffffffffffffffff168173ffffffffffffffffffffffffffffffffffffffff167f8be0079c531659141344cd1fd0a4f28419497f9722a3daafe3b4186f6b6457e060405160405180910390a35050565b60008135905061124681611899565b92915050565b60008135905061125b816118b0565b92915050565b600081359050611270816118c7565b92915050565b60006020828403121561128857600080fd5b600061129684828501611237565b91505092915050565b6000602082840312156112b157600080fd5b60006112bf8482850161124c565b91505092915050565b600080604083850312156112db57600080fd5b60006112e98582860161124c565b92505060206112fa85828601611237565b9150509250929050565b6000806040838503121561131757600080fd5b60006113258582860161124c565b925050602061133685828601611261565b9150509250929050565b60006020828403121561135257600080fd5b600061136084828501611261565b91505092915050565b6113728161173e565b82525050565b6000611383826116cc565b61138d81856116d7565b935061139d818560208601611798565b6113a681611888565b840191505092915050565b60006113be602f836116d7565b91507f54686973206164647265737320616c726561647920636f72726573706f6e647360008301527f20746f20616e20656d706c6f79656500000000000000000000000000000000006020830152604082019050919050565b60006114246026836116d7565b91507f4f776e61626c653a206e6577206f776e657220697320746865207a65726f206160008301527f64647265737300000000000000000000000000000000000000000000000000006020830152604082019050919050565b600061148a6014836116d7565b91507f496e76616c6964207061792067726164652049440000000000000000000000006000830152602082019050919050565b60006114ca6020836116d7565b91507f4f776e61626c653a2063616c6c6572206973206e6f7420746865206f776e65726000830152602082019050919050565b600061150a6030836116d7565b91507f54686973206164647265737320646f6573206e6f7420636f72726573706f6e6460008301527f20746f20616e7920656d706c6f796565000000000000000000000000000000006020830152604082019050919050565b61156c81611750565b82525050565b61157b8161177e565b82525050565b61158a81611788565b82525050565b60006020820190506115a56000830184611369565b92915050565b60006040820190506115c06000830185611369565b6115cd6020830184611563565b9392505050565b600060208201905081810360008301526115ee8184611378565b905092915050565b6000602082019050818103600083015261160f816113b1565b9050919050565b6000602082019050818103600083015261162f81611417565b9050919050565b6000602082019050818103600083015261164f8161147d565b9050919050565b6000602082019050818103600083015261166f816114bd565b9050919050565b6000602082019050818103600083015261168f816114fd565b9050919050565b60006020820190506116ab6000830184611572565b92915050565b60006020820190506116c66000830184611581565b92915050565b600081519050919050565b600082825260208201905092915050565b60006116f38261177e565b91506116fe8361177e565b9250827fffffffffffffffffffffffffffffffffffffffffffffffffffffffffffffffff038211156117335761173261182a565b5b828201905092915050565b60006117498261175e565b9050919050565b600061ffff82169050919050565b600073ffffffffffffffffffffffffffffffffffffffff82169050919050565b6000819050919050565b600063ffffffff82169050919050565b60005b838110156117b657808201518184015260208101905061179b565b838111156117c5576000848401525b50505050565b600060028204905060018216806117e357607f821691505b602082108114156117f7576117f6611859565b5b50919050565b600061180882611788565b915063ffffffff82141561181f5761181e61182a565b5b600182019050919050565b7f4e487b7100000000000000000000000000000000000000000000000000000000600052601160045260246000fd5b7f4e487b7100000000000000000000000000000000000000000000000000000000600052602260045260246000fd5b6000601f19601f8301169050919050565b6118a28161173e565b81146118ad57600080fd5b50565b6118b981611750565b81146118c457600080fd5b50565b6118d08161177e565b81146118db57600080fd5b5056fea2646970667358221220449f717e023f0bad865064c9c23abda5c1997f3246534c6224accb9fcf5573a764736f6c63430008000033",
  "immutableReferences": {},
  "source": "// SPDX-License-Identifier: MIT\n\npragma solidity ^0.8.0;\n\nimport \"@openzeppelin/contracts/access/Ownable.sol\";\n\ncontract PayChecks is Ownable {\n\n    struct Employee {\n        address employeeAddress;\n        uint16 payGradeId;\n    }\n\n    string public companyName;\n    uint256 public lastPaymentTime = 0;\n    Employee[] public employees;\n    uint256[] public payGrades;\n    mapping (address => uint32) public employeesId;\n\n    constructor(string memory _companyName, Employee[] memory _employees, uint256[] memory _payGrades) isNotContract(_employees) {\n        companyName = _companyName;\n        payGrades = _payGrades;\n\n        for (uint32 i = 0; i < _employees.length; i++) {\n            \n            // employees = _employees not supported yet\n            // so copy one by one\n            employees.push(_employees[i]);\n            \n            // Check that pay grade of each employee is in the _payGrades id range\n            require(_employees[i].payGradeId < _payGrades.length);\n            \n            address employeeAddress = _employees[i].employeeAddress;\n            employeesId[employeeAddress] = i;\n        }\n    }\n\n    /// @notice check that each employee is not a contract\n    modifier isNotContract(Employee[] memory _employees) {\n\n        for (uint32 i = 0; i < _employees.length; i++) {\n            address employeeAddress = _employees[i].employeeAddress;\n            assembly {\n                if iszero(employeeAddress) {revert(0,0)}\n                let size := extcodesize(employeeAddress)\n                if not(iszero(size)) {revert(0,0)}\n            }\n        }\n        _;\n    }\n\n    modifier isEmployee(address _address) {\n        require(employees[employeesId[_address]].employeeAddress == _address,\n        \"This address does not correspond to any employee\");\n        _;\n    }\n\n    modifier isValidPayGradeId(uint16 _payGradeId) {\n        require(_payGradeId < payGrades.length, \"Invalid pay grade ID\");\n        _;\n    }\n    \n    /// @notice Allows to add employees after contract construction\n    function addEmployee(uint16 _newEmployeePayGradeId, address _newEmployeeAddress) external onlyOwner isValidPayGradeId(_newEmployeePayGradeId) {\n        require(_newEmployeeAddress != address(0x0));\n        // Check that employee is not already registered\n        require(employees.length == 0 || \n                employees[employeesId[_newEmployeeAddress]].employeeAddress != _newEmployeeAddress,\n                \"This address already corresponds to an employee\");\n        \n        // Next employee id is current employees array length\n        employeesId[_newEmployeeAddress] = uint32(employees.length);\n        employees.push(Employee(_newEmployeeAddress, _newEmployeePayGradeId));\n    }\n\n    /// @notice pay all employees\n    function runSalaryPayment() external payable onlyOwner {\n        for(uint32 i = 0; i < employees.length; i++) {\n            Employee memory current = employees[i];\n            payable(current.employeeAddress).transfer(payGrades[current.payGradeId]);\n        }\n        lastPaymentTime = block.timestamp;\n    }\n\n    /// @notice compute the sum of all the salaries\n    function computeTotalSalarialMass() external view returns (uint256) {\n        uint256 total = 0;\n        for(uint32 i = 0; i < employees.length; i++) {\n            Employee memory current = employees[i];\n            total += payGrades[current.payGradeId];\n        }\n        return total;\n    }\n\n    /// @notice change an employee's pay grade\n    function changePayGradeForEmployee(uint16 _newPayGradeId, address _employeeAddress) external onlyOwner isEmployee(_employeeAddress) isValidPayGradeId(_newPayGradeId){\n        employees[employeesId[_employeeAddress]].payGradeId = _newPayGradeId;\n    }\n\n    /// @notice update the amount of a pay grade\n    function updatePayGrade(uint16 _payGradeId, uint256 _newAmount) external onlyOwner isValidPayGradeId(_payGradeId) {\n        payGrades[_payGradeId] = _newAmount;\n    }\n\n    /// @notice add a new pay grade\n    function addPayGrade(uint16 _amount) external onlyOwner {\n        payGrades.push(_amount);\n    }\n}",
  "sourcePath": "/Users/simonperriard/Documents/Personnal/HackTheContract_Solutions/contracts/HackTheContract/07.sol",
  "compiler": {
    "name": "solc",
    "version": "0.8.0+commit.c7dfd78e.Emscripten.clang"
  },
  "schemaVersion": "3.4.2",
  "updatedAt": "2021-08-18T07:32:40.481Z",
  "devdoc": {
    "kind": "dev",
    "methods": {
      "owner()": {
        "details": "Returns the address of the current owner."
      },
      "renounceOwnership()": {
        "details": "Leaves the contract without owner. It will not be possible to call `onlyOwner` functions anymore. Can only be called by the current owner. NOTE: Renouncing ownership will leave the contract without an owner, thereby removing any functionality that is only available to the owner."
      },
      "transferOwnership(address)": {
        "details": "Transfers ownership of the contract to a new account (`newOwner`). Can only be called by the current owner."
      }
    },
    "version": 1
  },
  "userdoc": {
    "kind": "user",
    "methods": {
      "addEmployee(uint16,address)": {
        "notice": "Allows to add employees after contract construction"
      },
      "addPayGrade(uint16)": {
        "notice": "add a new pay grade"
      },
      "changePayGradeForEmployee(uint16,address)": {
        "notice": "change an employee's pay grade"
      },
      "computeTotalSalarialMass()": {
        "notice": "compute the sum of all the salaries"
      },
      "runSalaryPayment()": {
        "notice": "pay all employees"
      },
      "updatePayGrade(uint16,uint256)": {
        "notice": "update the amount of a pay grade"
      }
    },
    "version": 1
  }
}