{
  "contractName": "RockPaperScissorsFabric",
  "abi": [
    {
      "anonymous": false,
      "inputs": [
        {
          "indexed": true,
          "internalType": "address",
          "name": "previousOwner",
          "type": "address"
        },
        {
          "indexed": true,
          "internalType": "address",
          "name": "newOwner",
          "type": "address"
        }
      ],
      "name": "OwnershipTransferred",
      "type": "event"
    },
    {
      "inputs": [],
      "name": "owner",
      "outputs": [
        {
          "internalType": "address",
          "name": "",
          "type": "address"
        }
      ],
      "stateMutability": "view",
      "type": "function"
    },
    {
      "inputs": [],
      "name": "renounceOwnership",
      "outputs": [],
      "stateMutability": "nonpayable",
      "type": "function"
    },
    {
      "inputs": [
        {
          "internalType": "address",
          "name": "newOwner",
          "type": "address"
        }
      ],
      "name": "transferOwnership",
      "outputs": [],
      "stateMutability": "nonpayable",
      "type": "function"
    },
    {
      "inputs": [
        {
          "internalType": "address",
          "name": "_player1",
          "type": "address"
        },
        {
          "internalType": "address",
          "name": "_player2",
          "type": "address"
        },
        {
          "internalType": "uint256",
          "name": "_agreedStake",
          "type": "uint256"
        }
      ],
      "name": "newGame",
      "outputs": [
        {
          "internalType": "address",
          "name": "",
          "type": "address"
        }
      ],
      "stateMutability": "nonpayable",
      "type": "function"
    },
    {
      "inputs": [
        {
          "internalType": "address",
          "name": "_gameAddress",
          "type": "address"
        }
      ],
      "name": "killGame",
      "outputs": [],
      "stateMutability": "nonpayable",
      "type": "function"
    },
    {
      "inputs": [
        {
          "internalType": "uint256",
          "name": "_amount",
          "type": "uint256"
        }
      ],
      "name": "withdraw",
      "outputs": [],
      "stateMutability": "nonpayable",
      "type": "function"
    },
    {
      "inputs": [],
      "name": "killSwitch",
      "outputs": [],
      "stateMutability": "nonpayable",
      "type": "function"
    }
  ],
  "bytecode": "0x608060405234801561001057600080fd5b5061002d61002261003260201b60201c565b61003a60201b60201c565b6100fe565b600033905090565b60008060009054906101000a900473ffffffffffffffffffffffffffffffffffffffff169050816000806101000a81548173ffffffffffffffffffffffffffffffffffffffff021916908373ffffffffffffffffffffffffffffffffffffffff1602179055508173ffffffffffffffffffffffffffffffffffffffff168173ffffffffffffffffffffffffffffffffffffffff167f8be0079c531659141344cd1fd0a4f28419497f9722a3daafe3b4186f6b6457e060405160405180910390a35050565b61454d8061010d6000396000f3fe60806040523480156200001157600080fd5b5060043610620000885760003560e01c80637bd86e6f11620000635780637bd86e6f14620000d95780638da5cb5b146200010f578063ada146981462000131578063f2fde38b146200013d5762000088565b80632c17b3fe146200008d5780632e1a7d4d14620000ad578063715018a614620000cd575b600080fd5b620000ab6004803603810190620000a5919062000763565b6200015d565b005b620000cb6004803603810190620000c59190620007e5565b6200024b565b005b620000d762000327565b005b620000f76004803603810190620000f191906200078f565b620003b8565b604051620001069190620008dd565b60405180910390f35b6200011962000489565b604051620001289190620008dd565b60405180910390f35b6200013b620004b2565b005b6200015b600480360381019062000155919062000763565b62000557565b005b620001676200065b565b73ffffffffffffffffffffffffffffffffffffffff166200018762000489565b73ffffffffffffffffffffffffffffffffffffffff1614620001e0576040517f08c379a0000000000000000000000000000000000000000000000000000000008152600401620001d79062000959565b60405180910390fd5b60008190508073ffffffffffffffffffffffffffffffffffffffff1663ada146986040518163ffffffff1660e01b8152600401600060405180830381600087803b1580156200022e57600080fd5b505af115801562000243573d6000803e3d6000fd5b505050505050565b620002556200065b565b73ffffffffffffffffffffffffffffffffffffffff166200027562000489565b73ffffffffffffffffffffffffffffffffffffffff1614620002ce576040517f08c379a0000000000000000000000000000000000000000000000000000000008152600401620002c59062000959565b60405180910390fd5b47811115620002dc57600080fd5b3373ffffffffffffffffffffffffffffffffffffffff166108fc829081150290604051600060405180830381858888f1935050505015801562000323573d6000803e3d6000fd5b5050565b620003316200065b565b73ffffffffffffffffffffffffffffffffffffffff166200035162000489565b73ffffffffffffffffffffffffffffffffffffffff1614620003aa576040517f08c379a0000000000000000000000000000000000000000000000000000000008152600401620003a19062000959565b60405180910390fd5b620003b6600062000663565b565b6000620003c46200065b565b73ffffffffffffffffffffffffffffffffffffffff16620003e462000489565b73ffffffffffffffffffffffffffffffffffffffff16146200043d576040517f08c379a0000000000000000000000000000000000000000000000000000000008152600401620004349062000959565b60405180910390fd5b6000848484604051620004509062000727565b6200045e93929190620008fa565b604051809103906000f0801580156200047b573d6000803e3d6000fd5b509050809150509392505050565b60008060009054906101000a900473ffffffffffffffffffffffffffffffffffffffff16905090565b620004bc6200065b565b73ffffffffffffffffffffffffffffffffffffffff16620004dc62000489565b73ffffffffffffffffffffffffffffffffffffffff161462000535576040517f08c379a00000000000000000000000000000000000000000000000000000000081526004016200052c9062000959565b60405180910390fd5b6200053f62000489565b73ffffffffffffffffffffffffffffffffffffffff16ff5b620005616200065b565b73ffffffffffffffffffffffffffffffffffffffff166200058162000489565b73ffffffffffffffffffffffffffffffffffffffff1614620005da576040517f08c379a0000000000000000000000000000000000000000000000000000000008152600401620005d19062000959565b60405180910390fd5b600073ffffffffffffffffffffffffffffffffffffffff168173ffffffffffffffffffffffffffffffffffffffff1614156200064d576040517f08c379a0000000000000000000000000000000000000000000000000000000008152600401620006449062000937565b60405180910390fd5b620006588162000663565b50565b600033905090565b60008060009054906101000a900473ffffffffffffffffffffffffffffffffffffffff169050816000806101000a81548173ffffffffffffffffffffffffffffffffffffffff021916908373ffffffffffffffffffffffffffffffffffffffff1602179055508173ffffffffffffffffffffffffffffffffffffffff168173ffffffffffffffffffffffffffffffffffffffff167f8be0079c531659141344cd1fd0a4f28419497f9722a3daafe3b4186f6b6457e060405160405180910390a35050565b613b1980620009ff83390190565b6000813590506200074681620009ca565b92915050565b6000813590506200075d81620009e4565b92915050565b6000602082840312156200077657600080fd5b6000620007868482850162000735565b91505092915050565b600080600060608486031215620007a557600080fd5b6000620007b58682870162000735565b9350506020620007c88682870162000735565b9250506040620007db868287016200074c565b9150509250925092565b600060208284031215620007f857600080fd5b600062000808848285016200074c565b91505092915050565b6200081c816200098c565b82525050565b6000620008316026836200097b565b91507f4f776e61626c653a206e6577206f776e657220697320746865207a65726f206160008301527f64647265737300000000000000000000000000000000000000000000000000006020830152604082019050919050565b6000620008996020836200097b565b91507f4f776e61626c653a2063616c6c6572206973206e6f7420746865206f776e65726000830152602082019050919050565b620008d781620009c0565b82525050565b6000602082019050620008f4600083018462000811565b92915050565b600060608201905062000911600083018662000811565b62000920602083018562000811565b6200092f6040830184620008cc565b949350505050565b60006020820190508181036000830152620009528162000822565b9050919050565b6000602082019050818103600083015262000974816200088a565b9050919050565b600082825260208201905092915050565b60006200099982620009a0565b9050919050565b600073ffffffffffffffffffffffffffffffffffffffff82169050919050565b6000819050919050565b620009d5816200098c565b8114620009e157600080fd5b50565b620009ef81620009c0565b8114620009fb57600080fd5b5056fe61010060405260008060146101000a81548160ff0219169083600481111562000051577f4e487b7100000000000000000000000000000000000000000000000000000000600052602160045260246000fd5b02179055503480156200006357600080fd5b5060405162003b1938038062003b1983398181016040528101906200008991906200054b565b620000a96200009d620003a160201b60201c565b620003a960201b60201c565b600073ffffffffffffffffffffffffffffffffffffffff168373ffffffffffffffffffffffffffffffffffffffff1614158015620001145750600073ffffffffffffffffffffffffffffffffffffffff168273ffffffffffffffffffffffffffffffffffffffff1614155b62000156576040517f08c379a00000000000000000000000000000000000000000000000000000000081526004016200014d9062000625565b60405180910390fd5b4260e08181525050600060026001600003816200019c577f4e487b7100000000000000000000000000000000000000000000000000000000600052601260045260246000fd5b04905080821115620001e5576040517f08c379a0000000000000000000000000000000000000000000000000000000008152600401620001dc9062000647565b60405180910390fd5b8373ffffffffffffffffffffffffffffffffffffffff1660808173ffffffffffffffffffffffffffffffffffffffff1660601b815250508273ffffffffffffffffffffffffffffffffffffffff1660a08173ffffffffffffffffffffffffffffffffffffffff1660601b815250508160c0818152505060006040518060600160405280600081526020017f3078300000000000000000000000000000000000000000000000000000000000815260200160405180602001604052806000815250815250905080600260008773ffffffffffffffffffffffffffffffffffffffff1673ffffffffffffffffffffffffffffffffffffffff168152602001908152602001600020600082015181600001556020820151816001015560408201518160020190805190602001906200031c9291906200046d565b5090505080600260008673ffffffffffffffffffffffffffffffffffffffff1673ffffffffffffffffffffffffffffffffffffffff16815260200190815260200160002060008201518160000155602082015181600101556040820151816002019080519060200190620003929291906200046d565b50905050505050505062000751565b600033905090565b60008060009054906101000a900473ffffffffffffffffffffffffffffffffffffffff169050816000806101000a81548173ffffffffffffffffffffffffffffffffffffffff021916908373ffffffffffffffffffffffffffffffffffffffff1602179055508173ffffffffffffffffffffffffffffffffffffffff168173ffffffffffffffffffffffffffffffffffffffff167f8be0079c531659141344cd1fd0a4f28419497f9722a3daafe3b4186f6b6457e060405160405180910390a35050565b8280546200047b90620006b8565b90600052602060002090601f0160209004810192826200049f5760008555620004eb565b82601f10620004ba57805160ff1916838001178555620004eb565b82800160010185558215620004eb579182015b82811115620004ea578251825591602001919060010190620004cd565b5b509050620004fa9190620004fe565b5090565b5b8082111562000519576000816000905550600101620004ff565b5090565b6000815190506200052e816200071d565b92915050565b600081519050620005458162000737565b92915050565b6000806000606084860312156200056157600080fd5b600062000571868287016200051d565b935050602062000584868287016200051d565b9250506040620005978682870162000534565b9150509250925092565b6000620005b0601c8362000669565b91507f496e76616c696420706c617965722061646472657373202830783029000000006000830152602082019050919050565b6000620005f260118362000669565b91507f546f6f206d756368206174207374616b650000000000000000000000000000006000830152602082019050919050565b600060208201905081810360008301526200064081620005a1565b9050919050565b600060208201905081810360008301526200066281620005e3565b9050919050565b600082825260208201905092915050565b600062000687826200068e565b9050919050565b600073ffffffffffffffffffffffffffffffffffffffff82169050919050565b6000819050919050565b60006002820490506001821680620006d157607f821691505b60208210811415620006e857620006e7620006ee565b5b50919050565b7f4e487b7100000000000000000000000000000000000000000000000000000000600052602260045260246000fd5b62000728816200067a565b81146200073457600080fd5b50565b6200074281620006ae565b81146200074e57600080fd5b50565b60805160601c60a05160601c60c05160e0516132856200089460003960008181611c9b0152611e7701526000818161061c01528181612068015281816121960152818161222201528181612310015261249501526000818161052d015281816106cd0152818161094e01528181610c7401528181610d86015281816110bf01528181611343015281816114c9015281816115c50152818161171e015281816118a90152818161193c01528181611abc01528181611f160152818161224701526122ef0152600081816104c501528181610678015281816108f901528181610be701528181610d310152818161106b01528181611125015281816112b7015281816114420152818161153f0152818161178401528181611843015281816119a201528181611e5301528181611ec1015281816121bb01526122ce01526132856000f3fe6080604052600436106101145760003560e01c8063b357a028116100a0578063d8270dce11610064578063d8270dce14610333578063dfbf53ae1461035e578063e169bf6c14610389578063f2fde38b14610393578063faf0ab9d146103bc57610114565b8063b357a02814610248578063b93e0e3914610273578063c44d6f871461029e578063d15e55b7146102c9578063d30895e41461030857610114565b80634c261247116100e75780634c2612471461019b57806359a5f12d146101c4578063715018a6146101ef5780638da5cb5b14610206578063ada146981461023157610114565b80630c3f6acf146101195780633ccfd60b1461014457806342bd0e441461015b57806349128b8d14610172575b600080fd5b34801561012557600080fd5b5061012e6103e7565b60405161013b9190612dec565b60405180910390f35b34801561015057600080fd5b506101596103fa565b005b34801561016757600080fd5b50610170610676565b005b34801561017e57600080fd5b5061019960048036038101906101949190612749565b6108f7565b005b3480156101a757600080fd5b506101c260048036038101906101bd9190612772565b610d2f565b005b3480156101d057600080fd5b506101d9611aba565b6040516101e69190612d7f565b60405180910390f35b3480156101fb57600080fd5b50610204611ade565b005b34801561021257600080fd5b5061021b611b66565b6040516102289190612d7f565b60405180910390f35b34801561023d57600080fd5b50610246611b8f565b005b34801561025457600080fd5b5061025d611d27565b60405161026a9190612dd1565b60405180910390f35b34801561027f57600080fd5b50610288611d4f565b6040516102959190612dd1565b60405180910390f35b3480156102aa57600080fd5b506102b3611d77565b6040516102c09190612dd1565b60405180910390f35b3480156102d557600080fd5b506102f060048036038101906102eb9190612720565b611d9f565b6040516102ff93929190612f66565b60405180910390f35b34801561031457600080fd5b5061031d611e51565b60405161032a9190612d7f565b60405180910390f35b34801561033f57600080fd5b50610348611e75565b6040516103559190612f4b565b60405180910390f35b34801561036a57600080fd5b50610373611e99565b6040516103809190612d7f565b60405180910390f35b610391611ebf565b005b34801561039f57600080fd5b506103ba60048036038101906103b59190612720565b61239b565b005b3480156103c857600080fd5b506103d1612493565b6040516103de9190612f4b565b60405180910390f35b600060149054906101000a900460ff1681565b6003806004811115610435577f4e487b7100000000000000000000000000000000000000000000000000000000600052602160045260246000fd5b600060149054906101000a900460ff16600481111561047d577f4e487b7100000000000000000000000000000000000000000000000000000000600052602160045260246000fd5b146104bd576040517f08c379a00000000000000000000000000000000000000000000000000000000081526004016104b490612e2b565b60405180910390fd5b6000600260007f000000000000000000000000000000000000000000000000000000000000000073ffffffffffffffffffffffffffffffffffffffff1673ffffffffffffffffffffffffffffffffffffffff168152602001908152602001600020600001819055506000600260007f000000000000000000000000000000000000000000000000000000000000000073ffffffffffffffffffffffffffffffffffffffff1673ffffffffffffffffffffffffffffffffffffffff168152602001908152602001600020600001819055506004600060146101000a81548160ff021916908360048111156105d9577f4e487b7100000000000000000000000000000000000000000000000000000000600052602160045260246000fd5b0217905550600160009054906101000a900473ffffffffffffffffffffffffffffffffffffffff1673ffffffffffffffffffffffffffffffffffffffff166108fc7f000000000000000000000000000000000000000000000000000000000000000060026106479190613036565b9081150290604051600060405180830381858888f19350505050158015610672573d6000803e3d6000fd5b5050565b7f000000000000000000000000000000000000000000000000000000000000000073ffffffffffffffffffffffffffffffffffffffff163373ffffffffffffffffffffffffffffffffffffffff16148061071b57507f000000000000000000000000000000000000000000000000000000000000000073ffffffffffffffffffffffffffffffffffffffff163373ffffffffffffffffffffffffffffffffffffffff16145b61075a576040517f08c379a000000000000000000000000000000000000000000000000000000000815260040161075190612e6b565b60405180910390fd5b6000806004811115610795577f4e487b7100000000000000000000000000000000000000000000000000000000600052602160045260246000fd5b600060149054906101000a900460ff1660048111156107dd577f4e487b7100000000000000000000000000000000000000000000000000000000600052602160045260246000fd5b1461081d576040517f08c379a000000000000000000000000000000000000000000000000000000000815260040161081490612e2b565b60405180910390fd5b6000600260003373ffffffffffffffffffffffffffffffffffffffff1673ffffffffffffffffffffffffffffffffffffffff1681526020019081526020016000206000015490506000600260003373ffffffffffffffffffffffffffffffffffffffff1673ffffffffffffffffffffffffffffffffffffffff168152602001908152602001600020600001819055503373ffffffffffffffffffffffffffffffffffffffff166108fc829081150290604051600060405180830381858888f193505050501580156108f2573d6000803e3d6000fd5b505050565b7f000000000000000000000000000000000000000000000000000000000000000073ffffffffffffffffffffffffffffffffffffffff163373ffffffffffffffffffffffffffffffffffffffff16148061099c57507f000000000000000000000000000000000000000000000000000000000000000073ffffffffffffffffffffffffffffffffffffffff163373ffffffffffffffffffffffffffffffffffffffff16145b6109db576040517f08c379a00000000000000000000000000000000000000000000000000000000081526004016109d290612e6b565b60405180910390fd5b6001806004811115610a16577f4e487b7100000000000000000000000000000000000000000000000000000000600052602160045260246000fd5b600060149054906101000a900460ff166004811115610a5e577f4e487b7100000000000000000000000000000000000000000000000000000000600052602160045260246000fd5b14610a9e576040517f08c379a0000000000000000000000000000000000000000000000000000000008152600401610a9590612e2b565b60405180910390fd5b7f3078300000000000000000000000000000000000000000000000000000000000600260003373ffffffffffffffffffffffffffffffffffffffff1673ffffffffffffffffffffffffffffffffffffffff1681526020019081526020016000206001015414610b42576040517f08c379a0000000000000000000000000000000000000000000000000000000008152600401610b3990612e8b565b60405180910390fd5b81600260003373ffffffffffffffffffffffffffffffffffffffff1673ffffffffffffffffffffffffffffffffffffffff168152602001908152602001600020600101819055507f3927e95d68b56bf949eddce714a77cb6a0e0283b3cbf9909ac820c1e91d74dc633604051610bb89190612d7f565b60405180910390a17f3078300000000000000000000000000000000000000000000000000000000000600260007f000000000000000000000000000000000000000000000000000000000000000073ffffffffffffffffffffffffffffffffffffffff1673ffffffffffffffffffffffffffffffffffffffff1681526020019081526020016000206001015414158015610cd457507f3078300000000000000000000000000000000000000000000000000000000000600260007f000000000000000000000000000000000000000000000000000000000000000073ffffffffffffffffffffffffffffffffffffffff1673ffffffffffffffffffffffffffffffffffffffff1681526020019081526020016000206001015414155b15610d2b576002600060146101000a81548160ff02191690836004811115610d25577f4e487b7100000000000000000000000000000000000000000000000000000000600052602160045260246000fd5b02179055505b5050565b7f000000000000000000000000000000000000000000000000000000000000000073ffffffffffffffffffffffffffffffffffffffff163373ffffffffffffffffffffffffffffffffffffffff161480610dd457507f000000000000000000000000000000000000000000000000000000000000000073ffffffffffffffffffffffffffffffffffffffff163373ffffffffffffffffffffffffffffffffffffffff16145b610e13576040517f08c379a0000000000000000000000000000000000000000000000000000000008152600401610e0a90612e6b565b60405180910390fd5b6002806004811115610e4e577f4e487b7100000000000000000000000000000000000000000000000000000000600052602160045260246000fd5b600060149054906101000a900460ff166004811115610e96577f4e487b7100000000000000000000000000000000000000000000000000000000600052602160045260246000fd5b14610ed6576040517f08c379a0000000000000000000000000000000000000000000000000000000008152600401610ecd90612e2b565b60405180910390fd5b8282604051602001610ee9929190612cfb565b60405160208183030381529060405280519060200120604051602001610f0e90612d2b565b60405160208183030381529060405280519060200120811480610f545750604051602001610f3b90612d6a565b6040516020818303038152906040528051906020012081145b80610f825750604051602001610f6990612d40565b6040516020818303038152906040528051906020012081145b610fc1576040517f08c379a0000000000000000000000000000000000000000000000000000000008152600401610fb890612ecb565b60405180910390fd5b600260003373ffffffffffffffffffffffffffffffffffffffff1673ffffffffffffffffffffffffffffffffffffffff168152602001908152602001600020600101548484604051602001611017929190612cfb565b6040516020818303038152906040528051906020012014611234577fb5de6d1ec66cc1b0f8c029e96ec004e6564d9aaf5956fa024aecd270cbdd7b6f336040516110619190612d7f565b60405180910390a17f000000000000000000000000000000000000000000000000000000000000000073ffffffffffffffffffffffffffffffffffffffff163373ffffffffffffffffffffffffffffffffffffffff161415611123577f0000000000000000000000000000000000000000000000000000000000000000600160006101000a81548173ffffffffffffffffffffffffffffffffffffffff021916908373ffffffffffffffffffffffffffffffffffffffff160217905550611185565b7f0000000000000000000000000000000000000000000000000000000000000000600160006101000a81548173ffffffffffffffffffffffffffffffffffffffff021916908373ffffffffffffffffffffffffffffffffffffffff1602179055505b6003600060146101000a81548160ff021916908360048111156111d1577f4e487b7100000000000000000000000000000000000000000000000000000000600052602160045260246000fd5b02179055507f745c90b656b4aafe296c8ca35aeacfe56cb96c90e1d320e5da643fff1051b6c0600160009054906101000a900473ffffffffffffffffffffffffffffffffffffffff166040516112279190612d7f565b60405180910390a1611ab4565b8383600260003373ffffffffffffffffffffffffffffffffffffffff1673ffffffffffffffffffffffffffffffffffffffff1681526020019081526020016000206002019190611285929190612583565b50600060405160200161129790612d55565b6040516020818303038152906040528051906020012090506000600260007f000000000000000000000000000000000000000000000000000000000000000073ffffffffffffffffffffffffffffffffffffffff1673ffffffffffffffffffffffffffffffffffffffff1681526020019081526020016000206002016040516020016113239190612d14565b6040516020818303038152906040528051906020012090506000600260007f000000000000000000000000000000000000000000000000000000000000000073ffffffffffffffffffffffffffffffffffffffff1673ffffffffffffffffffffffffffffffffffffffff1681526020019081526020016000206002016040516020016113af9190612d14565b6040516020818303038152906040528051906020012090507f1ddaae84a5b0db17c31fa327b7fa255053d685807559c5ae8183603da07da3cc336040516113f69190612d7f565b60405180910390a182821415801561140e5750828114155b15611ab057808214156116c4577f3078300000000000000000000000000000000000000000000000000000000000600260007f000000000000000000000000000000000000000000000000000000000000000073ffffffffffffffffffffffffffffffffffffffff1673ffffffffffffffffffffffffffffffffffffffff168152602001908152602001600020600101819055507f3078300000000000000000000000000000000000000000000000000000000000600260007f000000000000000000000000000000000000000000000000000000000000000073ffffffffffffffffffffffffffffffffffffffff1673ffffffffffffffffffffffffffffffffffffffff1681526020019081526020016000206001018190555060405180602001604052806000815250600260007f000000000000000000000000000000000000000000000000000000000000000073ffffffffffffffffffffffffffffffffffffffff1673ffffffffffffffffffffffffffffffffffffffff16815260200190815260200160002060020190805190602001906115ae929190612609565b5060405180602001604052806000815250600260007f000000000000000000000000000000000000000000000000000000000000000073ffffffffffffffffffffffffffffffffffffffff1673ffffffffffffffffffffffffffffffffffffffff1681526020019081526020016000206002019080519060200190611634929190612609565b506001600060146101000a81548160ff02191690836004811115611681577f4e487b7100000000000000000000000000000000000000000000000000000000600052602160045260246000fd5b02179055507f4de411966911eab10c37d2d2df9d6c4f4f4c8af1a7a80477ffeb448e06466eb387876040516116b7929190612e07565b60405180910390a1611aaf565b6040516020016116d390612d2b565b604051602081830303815290604052805190602001208214156117e9576040516020016116ff90612d6a565b60405160208183030381529060405280519060200120811415611782577f0000000000000000000000000000000000000000000000000000000000000000600160006101000a81548173ffffffffffffffffffffffffffffffffffffffff021916908373ffffffffffffffffffffffffffffffffffffffff1602179055506117e4565b7f0000000000000000000000000000000000000000000000000000000000000000600160006101000a81548173ffffffffffffffffffffffffffffffffffffffff021916908373ffffffffffffffffffffffffffffffffffffffff1602179055505b611a04565b6040516020016117f890612d6a565b6040516020818303038152906040528051906020012082141561190e5760405160200161182490612d2b565b604051602081830303815290604052805190602001208114156118a7577f0000000000000000000000000000000000000000000000000000000000000000600160006101000a81548173ffffffffffffffffffffffffffffffffffffffff021916908373ffffffffffffffffffffffffffffffffffffffff160217905550611909565b7f0000000000000000000000000000000000000000000000000000000000000000600160006101000a81548173ffffffffffffffffffffffffffffffffffffffff021916908373ffffffffffffffffffffffffffffffffffffffff1602179055505b611a03565b60405160200161191d90612d2b565b604051602081830303815290604052805190602001208114156119a0577f0000000000000000000000000000000000000000000000000000000000000000600160006101000a81548173ffffffffffffffffffffffffffffffffffffffff021916908373ffffffffffffffffffffffffffffffffffffffff160217905550611a02565b7f0000000000000000000000000000000000000000000000000000000000000000600160006101000a81548173ffffffffffffffffffffffffffffffffffffffff021916908373ffffffffffffffffffffffffffffffffffffffff1602179055505b5b5b6003600060146101000a81548160ff02191690836004811115611a50577f4e487b7100000000000000000000000000000000000000000000000000000000600052602160045260246000fd5b02179055507f745c90b656b4aafe296c8ca35aeacfe56cb96c90e1d320e5da643fff1051b6c0600160009054906101000a900473ffffffffffffffffffffffffffffffffffffffff16604051611aa69190612d7f565b60405180910390a15b5b5050505b50505050565b7f000000000000000000000000000000000000000000000000000000000000000081565b611ae66124b7565b73ffffffffffffffffffffffffffffffffffffffff16611b04611b66565b73ffffffffffffffffffffffffffffffffffffffff1614611b5a576040517f08c379a0000000000000000000000000000000000000000000000000000000008152600401611b5190612eab565b60405180910390fd5b611b6460006124bf565b565b60008060009054906101000a900473ffffffffffffffffffffffffffffffffffffffff16905090565b611b976124b7565b73ffffffffffffffffffffffffffffffffffffffff16611bb5611b66565b73ffffffffffffffffffffffffffffffffffffffff1614611c0b576040517f08c379a0000000000000000000000000000000000000000000000000000000008152600401611c0290612eab565b60405180910390fd5b6004806004811115611c46577f4e487b7100000000000000000000000000000000000000000000000000000000600052602160045260246000fd5b600060149054906101000a900460ff166004811115611c8e577f4e487b7100000000000000000000000000000000000000000000000000000000600052602160045260246000fd5b1480611cc8575062093a807f0000000000000000000000000000000000000000000000000000000000000000611cc49190612fe0565b4210155b611d07576040517f08c379a0000000000000000000000000000000000000000000000000000000008152600401611cfe90612f0b565b60405180910390fd5b611d0f611b66565b73ffffffffffffffffffffffffffffffffffffffff16ff5b604051602001611d3690612d40565b6040516020818303038152906040528051906020012081565b604051602001611d5e90612d2b565b6040516020818303038152906040528051906020012081565b604051602001611d8690612d6a565b6040516020818303038152906040528051906020012081565b6002602052806000526040600020600091509050806000015490806001015490806002018054611dce9061313d565b80601f0160208091040260200160405190810160405280929190818152602001828054611dfa9061313d565b8015611e475780601f10611e1c57610100808354040283529160200191611e47565b820191906000526020600020905b815481529060010190602001808311611e2a57829003601f168201915b5050505050905083565b7f000000000000000000000000000000000000000000000000000000000000000081565b7f000000000000000000000000000000000000000000000000000000000000000081565b600160009054906101000a900473ffffffffffffffffffffffffffffffffffffffff1681565b7f000000000000000000000000000000000000000000000000000000000000000073ffffffffffffffffffffffffffffffffffffffff163373ffffffffffffffffffffffffffffffffffffffff161480611f6457507f000000000000000000000000000000000000000000000000000000000000000073ffffffffffffffffffffffffffffffffffffffff163373ffffffffffffffffffffffffffffffffffffffff16145b611fa3576040517f08c379a0000000000000000000000000000000000000000000000000000000008152600401611f9a90612e6b565b60405180910390fd5b6000806004811115611fde577f4e487b7100000000000000000000000000000000000000000000000000000000600052602160045260246000fd5b600060149054906101000a900460ff166004811115612026577f4e487b7100000000000000000000000000000000000000000000000000000000600052602160045260246000fd5b14612066576040517f08c379a000000000000000000000000000000000000000000000000000000000815260040161205d90612e2b565b60405180910390fd5b7f000000000000000000000000000000000000000000000000000000000000000034146120c8576040517f08c379a00000000000000000000000000000000000000000000000000000000081526004016120bf90612eeb565b60405180910390fd5b6000600260003373ffffffffffffffffffffffffffffffffffffffff1673ffffffffffffffffffffffffffffffffffffffff168152602001908152602001600020600001541461214d576040517f08c379a000000000000000000000000000000000000000000000000000000000815260040161214490612f2b565b60405180910390fd5b34600260003373ffffffffffffffffffffffffffffffffffffffff1673ffffffffffffffffffffffffffffffffffffffff168152602001908152602001600020600001819055507f0000000000000000000000000000000000000000000000000000000000000000600260007f000000000000000000000000000000000000000000000000000000000000000073ffffffffffffffffffffffffffffffffffffffff1673ffffffffffffffffffffffffffffffffffffffff168152602001908152602001600020600001541480156122a657507f0000000000000000000000000000000000000000000000000000000000000000600260007f000000000000000000000000000000000000000000000000000000000000000073ffffffffffffffffffffffffffffffffffffffff1673ffffffffffffffffffffffffffffffffffffffff16815260200190815260200160002060000154145b15612398577ff7750bebc6a1d050dec98239cfc17dbb80b7469bdbf2a73da0c8023a4f46f7727f00000000000000000000000000000000000000000000000000000000000000007f00000000000000000000000000000000000000000000000000000000000000007f000000000000000000000000000000000000000000000000000000000000000060405161233e93929190612d9a565b60405180910390a16001600060146101000a81548160ff02191690836004811115612392577f4e487b7100000000000000000000000000000000000000000000000000000000600052602160045260246000fd5b02179055505b50565b6123a36124b7565b73ffffffffffffffffffffffffffffffffffffffff166123c1611b66565b73ffffffffffffffffffffffffffffffffffffffff1614612417576040517f08c379a000000000000000000000000000000000000000000000000000000000815260040161240e90612eab565b60405180910390fd5b600073ffffffffffffffffffffffffffffffffffffffff168173ffffffffffffffffffffffffffffffffffffffff161415612487576040517f08c379a000000000000000000000000000000000000000000000000000000000815260040161247e90612e4b565b60405180910390fd5b612490816124bf565b50565b7f000000000000000000000000000000000000000000000000000000000000000081565b600033905090565b60008060009054906101000a900473ffffffffffffffffffffffffffffffffffffffff169050816000806101000a81548173ffffffffffffffffffffffffffffffffffffffff021916908373ffffffffffffffffffffffffffffffffffffffff1602179055508173ffffffffffffffffffffffffffffffffffffffff168173ffffffffffffffffffffffffffffffffffffffff167f8be0079c531659141344cd1fd0a4f28419497f9722a3daafe3b4186f6b6457e060405160405180910390a35050565b82805461258f9061313d565b90600052602060002090601f0160209004810192826125b157600085556125f8565b82601f106125ca57803560ff19168380011785556125f8565b828001600101855582156125f8579182015b828111156125f75782358255916020019190600101906125dc565b5b509050612605919061268f565b5090565b8280546126159061313d565b90600052602060002090601f016020900481019282612637576000855561267e565b82601f1061265057805160ff191683800117855561267e565b8280016001018555821561267e579182015b8281111561267d578251825591602001919060010190612662565b5b50905061268b919061268f565b5090565b5b808211156126a8576000816000905550600101612690565b5090565b6000813590506126bb81613221565b92915050565b6000813590506126d081613238565b92915050565b60008083601f8401126126e857600080fd5b8235905067ffffffffffffffff81111561270157600080fd5b60208301915083600182028301111561271957600080fd5b9250929050565b60006020828403121561273257600080fd5b6000612740848285016126ac565b91505092915050565b60006020828403121561275b57600080fd5b6000612769848285016126c1565b91505092915050565b6000806020838503121561278557600080fd5b600083013567ffffffffffffffff81111561279f57600080fd5b6127ab858286016126d6565b92509250509250929050565b6127c081613090565b82525050565b6127cf816130a2565b82525050565b6127de816130e9565b82525050565b60006127f08385612fc4565b93506127fd8385846130fb565b612806836131fc565b840190509392505050565b600061281d8385612fd5565b935061282a8385846130fb565b82840190509392505050565b600061284182612fb9565b61284b8185612fc4565b935061285b81856020860161310a565b612864816131fc565b840191505092915050565b6000815461287c8161313d565b6128868186612fd5565b945060018216600081146128a157600181146128b2576128e5565b60ff198316865281860193506128e5565b6128bb85612fa4565b60005b838110156128dd578154818901526001820191506020810190506128be565b838801955050505b50505092915050565b60006128fb602283612fc4565b91507f506c6561736520636865636b20746865207374617465206f662074686520676160008301527f6d650000000000000000000000000000000000000000000000000000000000006020830152604082019050919050565b6000612961602683612fc4565b91507f4f776e61626c653a206e6577206f776e657220697320746865207a65726f206160008301527f64647265737300000000000000000000000000000000000000000000000000006020830152604082019050919050565b60006129c7602a83612fc4565b91507f4e6f6e20706c61796572732063616e6e6f7420696e746572616374207769746860008301527f207468652067616d652e000000000000000000000000000000000000000000006020830152604082019050919050565b6000612a2d600483612fd5565b91507f524f434b000000000000000000000000000000000000000000000000000000006000830152600482019050919050565b6000612a6d601683612fc4565b91507f596f7520616c726561647920636f6d6d69747465642e000000000000000000006000830152602082019050919050565b6000612aad602083612fc4565b91507f4f776e61626c653a2063616c6c6572206973206e6f7420746865206f776e65726000830152602082019050919050565b6000612aed600883612fd5565b91507f53434953534f52530000000000000000000000000000000000000000000000006000830152600882019050919050565b6000612b2d603f83612fc4565b91507f596f757220616374696f6e20697320696e76616c69643a2063686f6f7365206260008301527f65747765656e20524f434b2c20504150455220616e642053434953534f5253006020830152604082019050919050565b6000612b93602f83612fc4565b91507f54686520616d6f756e74206d75737420636f72726573706f6e6420746f20746860008301527f6520616772656564207374616b652e00000000000000000000000000000000006020830152604082019050919050565b6000612bf9600083612fd5565b9150600082019050919050565b6000612c13603283612fc4565b91507f45697468657220697420697320746f6f20736f6f6e206f72207468652067616d60008301527f65206973206e6f742066696e69736865642e00000000000000000000000000006020830152604082019050919050565b6000612c79601c83612fc4565b91507f596f7520616c72656164792073656e7420796f7572206d6f6e65792e000000006000830152602082019050919050565b6000612cb9600583612fd5565b91507f50415045520000000000000000000000000000000000000000000000000000006000830152600582019050919050565b612cf5816130df565b82525050565b6000612d08828486612811565b91508190509392505050565b6000612d20828461286f565b915081905092915050565b6000612d3682612a20565b9150819050919050565b6000612d4b82612ae0565b9150819050919050565b6000612d6082612bec565b9150819050919050565b6000612d7582612cac565b9150819050919050565b6000602082019050612d9460008301846127b7565b92915050565b6000606082019050612daf60008301866127b7565b612dbc60208301856127b7565b612dc96040830184612cec565b949350505050565b6000602082019050612de660008301846127c6565b92915050565b6000602082019050612e0160008301846127d5565b92915050565b60006020820190508181036000830152612e228184866127e4565b90509392505050565b60006020820190508181036000830152612e44816128ee565b9050919050565b60006020820190508181036000830152612e6481612954565b9050919050565b60006020820190508181036000830152612e84816129ba565b9050919050565b60006020820190508181036000830152612ea481612a60565b9050919050565b60006020820190508181036000830152612ec481612aa0565b9050919050565b60006020820190508181036000830152612ee481612b20565b9050919050565b60006020820190508181036000830152612f0481612b86565b9050919050565b60006020820190508181036000830152612f2481612c06565b9050919050565b60006020820190508181036000830152612f4481612c6c565b9050919050565b6000602082019050612f606000830184612cec565b92915050565b6000606082019050612f7b6000830186612cec565b612f8860208301856127c6565b8181036040830152612f9a8184612836565b9050949350505050565b60008190508160005260206000209050919050565b600081519050919050565b600082825260208201905092915050565b600081905092915050565b6000612feb826130df565b9150612ff6836130df565b9250827fffffffffffffffffffffffffffffffffffffffffffffffffffffffffffffffff0382111561302b5761302a61316f565b5b828201905092915050565b6000613041826130df565b915061304c836130df565b9250817fffffffffffffffffffffffffffffffffffffffffffffffffffffffffffffffff04831182151516156130855761308461316f565b5b828202905092915050565b600061309b826130bf565b9050919050565b6000819050919050565b60008190506130ba8261320d565b919050565b600073ffffffffffffffffffffffffffffffffffffffff82169050919050565b6000819050919050565b60006130f4826130ac565b9050919050565b82818337600083830152505050565b60005b8381101561312857808201518184015260208101905061310d565b83811115613137576000848401525b50505050565b6000600282049050600182168061315557607f821691505b60208210811415613169576131686131cd565b5b50919050565b7f4e487b7100000000000000000000000000000000000000000000000000000000600052601160045260246000fd5b7f4e487b7100000000000000000000000000000000000000000000000000000000600052602160045260246000fd5b7f4e487b7100000000000000000000000000000000000000000000000000000000600052602260045260246000fd5b6000601f19601f8301169050919050565b6005811061321e5761321d61319e565b5b50565b61322a81613090565b811461323557600080fd5b50565b613241816130a2565b811461324c57600080fd5b5056fea2646970667358221220c4afe267ebe63822cbd3eb6feeb635d78bf6376fa2ffe29681bbe07689800bf664736f6c63430008000033a2646970667358221220747ad86d26cc447e6ac34e8563a3a20d28afa8b0de3d947917e3ca5fba1bba5364736f6c63430008000033",
  "immutableReferences": {},
  "source": "// SPDX-License-Identifier: MIT\n\npragma solidity >= 0.8.0;\n\nimport \"@openzeppelin/contracts/access/Ownable.sol\";\n\n/// Simply a rock-paper-scissors game with a commitment scheme to avoid front-running attacks. \n/// 1 (FUNDING state). Both players must first fund the game with the agreedStake amount\n/// 2 (COMMITMENT state). Then they will commit to their action (\"ROCK\", \"PAPER\" or \"SCISSORS\")\n/// 3 (REVEAL state). When both have committed, they will reveal their action and the winner is designated.\n///                     In the case of a draw, goto 2.\n/// 4 (WON state). The winner can withdraw his prise.\n/// 5 (FINISHED state). The owner can kill the contract, any remaining funds are sent to the owner.\ncontract RockPaperScissors is Ownable {\n\n    enum GameState {FUNDING, COMMITMENT, REVEAL, WON, FINISHED}\n    GameState public currentState = GameState.FUNDING;\n\n    address public immutable player1;\n    address public immutable player2;\n    address public winner;\n    uint256 public immutable agreedStake;\n    uint256 public immutable creationTime;\n\n    struct PlayerState {\n        uint stake;\n        bytes32 commitment;\n        string action;\n    }\n\n    mapping (address => PlayerState) public playerStates;\n\n    event GameStart(address player1, address player2, uint256 stake);\n    event PlayerCommitted(address player);\n    event PlayerRevealed(address player);\n    event Liar(address player);\n    event Draw(string action);\n    event Winner(address winner);\n\n    bytes32 public constant ROCK = keccak256(abi.encodePacked(\"ROCK\"));\n    bytes32 public constant PAPER = keccak256(abi.encodePacked(\"PAPER\"));\n    bytes32 public constant SCISSORS = keccak256(abi.encodePacked(\"SCISSORS\"));\n\n    constructor(address _player1, address _player2, uint256 _agreedStake) {\n        require(_player1 != address(0) && _player2 != address(0), \"Invalid player address (0x0)\");\n\n        creationTime = block.timestamp;\n\n        // Limit the amount at stake, otherwise withdraw() could overflow and revert, and winner never gets paid\n        uint maxStake;\n        unchecked {\n            maxStake = (uint256(0)-1)/2;\n        }\n        require(_agreedStake <= maxStake, \"Too much at stake\");\n        player1 = _player1;\n        player2 = _player2;\n        agreedStake = _agreedStake;\n\n        PlayerState memory newPlayer = PlayerState(0, \"0x0\", \"\");\n        playerStates[_player1] = newPlayer;\n        playerStates[_player2] = newPlayer;\n    }\n\n    modifier onlyPlayers() {\n        require(msg.sender == player1 || msg.sender == player2, \"Non players cannot interact with the game.\");\n        _;\n    }\n\n    modifier stateCheck(GameState _state) {\n        require(currentState == _state, \"Please check the state of the game\");\n        _;\n    }\n\n    modifier stateCheckWithStall(GameState _state) {\n        require(currentState == _state ||\n        block.timestamp >= creationTime + 1 weeks,\n        \"Either it is too soon or the game is not finished.\");\n        _;\n    }\n\n    modifier actionIsValid(bytes32 _action) {\n        require(_action == ROCK ||\n                _action == PAPER || \n                _action == SCISSORS,\n                \"Your action is invalid: choose between ROCK, PAPER and SCISSORS\");\n        _;\n    }\n\n    /// @notice both players must put the amount at stake in the contract\n    function fundGame() external payable onlyPlayers stateCheck(GameState.FUNDING) {\n        require(msg.value == agreedStake, \"The amount must correspond to the agreed stake.\");\n        require(playerStates[msg.sender].stake == 0, \"You already sent your money.\");\n\n        playerStates[msg.sender].stake = msg.value;\n\n        // Lock fundings when both players have put amounts at stake\n        if (playerStates[player1].stake == agreedStake && playerStates[player2].stake == agreedStake) {\n            emit GameStart(player1, player2, agreedStake);\n            currentState = GameState.COMMITMENT;\n        }\n    }\n\n    /// @notice during the FUNDING phase, the players still can withdraw their funds\n    function unfundGame() external onlyPlayers stateCheck(GameState.FUNDING) {\n        uint refundAmount = playerStates[msg.sender].stake;\n        playerStates[msg.sender].stake = 0;\n        payable(msg.sender).transfer(refundAmount);\n    }\n\n    /// @notice after the FUNDING phase, each player will commit to his action\n    function commitToAction(bytes32 _playerCommitment) external onlyPlayers stateCheck(GameState.COMMITMENT) {\n        require(playerStates[msg.sender].commitment == bytes32(\"0x0\"), \"You already committed.\");\n\n        // Store player commitment\n        playerStates[msg.sender].commitment = _playerCommitment;\n\n        emit PlayerCommitted(msg.sender);\n\n        if (playerStates[player1].commitment != bytes32(\"0x0\") && playerStates[player2].commitment != bytes32(\"0x0\")) {\n            // Go to next state when both committed\n            currentState = GameState.REVEAL;\n        }\n    }\n\n    /// @notice after the COMMITMENT phase, each player will reveal his action, the commitment value is checked, and\n    ///         the battle ends with a winner, or a draw\n    function reveal(string calldata _action) external onlyPlayers stateCheck(GameState.REVEAL) actionIsValid(keccak256(abi.encodePacked(_action))) {\n        if (keccak256(abi.encodePacked(_action)) != playerStates[msg.sender].commitment) {\n            // If a player lies on his action, he loses immediately\n            emit Liar(msg.sender);\n            if (msg.sender == player1) {\n                winner = player2;\n            } else {\n                winner = player1;\n            }\n            currentState = GameState.WON;\n            emit Winner(winner);\n\n            return;\n        }\n\n        playerStates[msg.sender].action = _action;\n\n        bytes32 emptyString = keccak256(abi.encodePacked(\"\"));\n\n        bytes32 action1 = keccak256(abi.encodePacked(playerStates[player1].action));\n        bytes32 action2 = keccak256(abi.encodePacked(playerStates[player2].action));\n\n        emit PlayerRevealed(msg.sender);\n\n        if (action1 != emptyString && action2 != emptyString) {\n            // Both players revealed, time to find the winner\n\n            if (action1 == action2) {\n                // In case of a draw, undo commitment and action\n                // and revert to COMMITMENT state\n                playerStates[player1].commitment = bytes32(\"0x0\");\n                playerStates[player2].commitment = bytes32(\"0x0\");\n\n                playerStates[player1].action = \"\";\n                playerStates[player2].action = \"\";\n\n                currentState = GameState.COMMITMENT;\n                emit Draw(_action);\n\n            } else {\n                if (action1 == ROCK) {\n                    if (action2 == PAPER) {\n                        winner = player2;\n                    } else {\n                        winner = player1;\n                    }\n                } else if (action1 == PAPER) {\n                    if (action2 == ROCK) {\n                        winner = player1;\n                    } else {\n                        winner = player2;\n                    }\n                } else {\n                    // action1 == SCISSORS\n                    if (action2 == ROCK) {\n                        winner = player2;\n                    } else {\n                        winner = player1;\n                    }\n                }\n                currentState = GameState.WON;\n                emit Winner(winner);\n            }\n        }\n    }\n\n    /// @notice once the winner is designated, the winner can withdraw the prize\n    function withdraw() external stateCheck(GameState.WON) {\n        playerStates[player1].stake = 0;\n        playerStates[player2].stake = 0;\n\n        currentState = GameState.FINISHED;\n\n        payable(winner).transfer(2*agreedStake);\n    }\n\n    /// @notice when the game is finished or if the game is stalled for more thant a week\n    ///         , the owner can destruct the contract and reimburse the players if wanted\n    function killSwitch() external onlyOwner stateCheckWithStall(GameState.FINISHED) {\n        // Allow the owner to kill the game either when it is finished,\n        // or when it takes too long\n        selfdestruct(payable(owner()));\n    }\n\n}\n\n/// Fabric for rock-paper-scissors games\n/// nothing to see here\ncontract RockPaperScissorsFabric is Ownable {\n\n    function newGame(address _player1, address _player2, uint256 _agreedStake) external onlyOwner returns(address) {\n        RockPaperScissors newRPS = new RockPaperScissors(_player1, _player2, _agreedStake);\n        return address(newRPS);\n    }\n\n    function killGame(address _gameAddress) external onlyOwner {\n        RockPaperScissors rps = RockPaperScissors(_gameAddress);\n        rps.killSwitch();\n    }\n\n    function withdraw(uint256 _amount) external onlyOwner {\n        require(_amount <= address(this).balance);\n        payable(msg.sender).transfer(_amount);\n    }\n\n    function killSwitch() external onlyOwner {\n        selfdestruct(payable(owner()));\n    }\n}",
  "sourcePath": "/Users/simonperriard/Documents/Personnal/HackTheContract_Solutions/contracts/HackTheContract/00.sol",
  "compiler": {
    "name": "solc",
    "version": "0.8.0+commit.c7dfd78e.Emscripten.clang"
  },
  "schemaVersion": "3.4.2",
  "updatedAt": "2021-08-18T07:32:40.409Z",
  "devdoc": {
    "kind": "dev",
    "methods": {
      "owner()": {
        "details": "Returns the address of the current owner."
      },
      "renounceOwnership()": {
        "details": "Leaves the contract without owner. It will not be possible to call `onlyOwner` functions anymore. Can only be called by the current owner. NOTE: Renouncing ownership will leave the contract without an owner, thereby removing any functionality that is only available to the owner."
      },
      "transferOwnership(address)": {
        "details": "Transfers ownership of the contract to a new account (`newOwner`). Can only be called by the current owner."
      }
    },
    "version": 1
  },
  "userdoc": {
    "kind": "user",
    "methods": {},
    "notice": "Fabric for rock-paper-scissors games nothing to see here",
    "version": 1
  }
}